{
  "contractName": "Razor",
  "abi": [
    {
      "inputs": [],
      "stateMutability": "nonpayable",
      "type": "constructor"
    },
    {
      "anonymous": false,
      "inputs": [
        {
          "indexed": true,
          "internalType": "address",
          "name": "account",
          "type": "address"
        },
        {
          "indexed": true,
          "internalType": "address",
          "name": "operator",
          "type": "address"
        },
        {
          "indexed": false,
          "internalType": "bool",
          "name": "approved",
          "type": "bool"
        }
      ],
      "name": "ApprovalForAll",
      "type": "event"
    },
    {
      "anonymous": false,
      "inputs": [
        {
          "indexed": true,
          "internalType": "bytes32",
          "name": "role",
          "type": "bytes32"
        },
        {
          "indexed": true,
          "internalType": "bytes32",
          "name": "previousAdminRole",
          "type": "bytes32"
        },
        {
          "indexed": true,
          "internalType": "bytes32",
          "name": "newAdminRole",
          "type": "bytes32"
        }
      ],
      "name": "RoleAdminChanged",
      "type": "event"
    },
    {
      "anonymous": false,
      "inputs": [
        {
          "indexed": true,
          "internalType": "bytes32",
          "name": "role",
          "type": "bytes32"
        },
        {
          "indexed": true,
          "internalType": "address",
          "name": "account",
          "type": "address"
        },
        {
          "indexed": true,
          "internalType": "address",
          "name": "sender",
          "type": "address"
        }
      ],
      "name": "RoleGranted",
      "type": "event"
    },
    {
      "anonymous": false,
      "inputs": [
        {
          "indexed": true,
          "internalType": "bytes32",
          "name": "role",
          "type": "bytes32"
        },
        {
          "indexed": true,
          "internalType": "address",
          "name": "account",
          "type": "address"
        },
        {
          "indexed": true,
          "internalType": "address",
          "name": "sender",
          "type": "address"
        }
      ],
      "name": "RoleRevoked",
      "type": "event"
    },
    {
      "anonymous": false,
      "inputs": [
        {
          "indexed": true,
          "internalType": "address",
          "name": "operator",
          "type": "address"
        },
        {
          "indexed": true,
          "internalType": "address",
          "name": "from",
          "type": "address"
        },
        {
          "indexed": true,
          "internalType": "address",
          "name": "to",
          "type": "address"
        },
        {
          "indexed": false,
          "internalType": "uint256[]",
          "name": "ids",
          "type": "uint256[]"
        },
        {
          "indexed": false,
          "internalType": "uint256[]",
          "name": "values",
          "type": "uint256[]"
        }
      ],
      "name": "TransferBatch",
      "type": "event"
    },
    {
      "anonymous": false,
      "inputs": [
        {
          "indexed": true,
          "internalType": "address",
          "name": "operator",
          "type": "address"
        },
        {
          "indexed": true,
          "internalType": "address",
          "name": "from",
          "type": "address"
        },
        {
          "indexed": true,
          "internalType": "address",
          "name": "to",
          "type": "address"
        },
        {
          "indexed": false,
          "internalType": "uint256",
          "name": "id",
          "type": "uint256"
        },
        {
          "indexed": false,
          "internalType": "uint256",
          "name": "value",
          "type": "uint256"
        }
      ],
      "name": "TransferSingle",
      "type": "event"
    },
    {
      "anonymous": false,
      "inputs": [
        {
          "indexed": false,
          "internalType": "string",
          "name": "value",
          "type": "string"
        },
        {
          "indexed": true,
          "internalType": "uint256",
          "name": "id",
          "type": "uint256"
        }
      ],
      "name": "URI",
      "type": "event"
    },
    {
      "inputs": [],
      "name": "DEFAULT_ADMIN_ROLE",
      "outputs": [
        {
          "internalType": "bytes32",
          "name": "",
          "type": "bytes32"
        }
      ],
      "stateMutability": "view",
      "type": "function",
      "constant": true
    },
    {
      "inputs": [],
      "name": "GROUP_ROLE",
      "outputs": [
        {
          "internalType": "bytes32",
          "name": "",
          "type": "bytes32"
        }
      ],
      "stateMutability": "view",
      "type": "function",
      "constant": true
    },
    {
      "inputs": [],
      "name": "RAZOR",
      "outputs": [
        {
          "internalType": "uint256",
          "name": "",
          "type": "uint256"
        }
      ],
      "stateMutability": "view",
      "type": "function",
      "constant": true
    },
    {
      "inputs": [],
      "name": "RZR",
      "outputs": [
        {
          "internalType": "uint256",
          "name": "",
          "type": "uint256"
        }
      ],
      "stateMutability": "view",
      "type": "function",
      "constant": true
    },
    {
      "inputs": [],
      "name": "USER_ROLE",
      "outputs": [
        {
          "internalType": "bytes32",
          "name": "",
          "type": "bytes32"
        }
      ],
      "stateMutability": "view",
      "type": "function",
      "constant": true
    },
    {
      "inputs": [
        {
          "internalType": "address",
          "name": "account",
          "type": "address"
        },
        {
          "internalType": "uint256",
          "name": "id",
          "type": "uint256"
        }
      ],
      "name": "balanceOf",
      "outputs": [
        {
          "internalType": "uint256",
          "name": "",
          "type": "uint256"
        }
      ],
      "stateMutability": "view",
      "type": "function",
      "constant": true
    },
    {
      "inputs": [
        {
          "internalType": "address[]",
          "name": "accounts",
          "type": "address[]"
        },
        {
          "internalType": "uint256[]",
          "name": "ids",
          "type": "uint256[]"
        }
      ],
      "name": "balanceOfBatch",
      "outputs": [
        {
          "internalType": "uint256[]",
          "name": "",
          "type": "uint256[]"
        }
      ],
      "stateMutability": "view",
      "type": "function",
      "constant": true
    },
    {
      "inputs": [],
      "name": "contractOwner",
      "outputs": [
        {
          "internalType": "address",
          "name": "",
          "type": "address"
        }
      ],
      "stateMutability": "view",
      "type": "function",
      "constant": true
    },
    {
      "inputs": [
        {
          "internalType": "bytes32",
          "name": "role",
          "type": "bytes32"
        }
      ],
      "name": "getRoleAdmin",
      "outputs": [
        {
          "internalType": "bytes32",
          "name": "",
          "type": "bytes32"
        }
      ],
      "stateMutability": "view",
      "type": "function",
      "constant": true
    },
    {
      "inputs": [
        {
          "internalType": "bytes32",
          "name": "role",
          "type": "bytes32"
        },
        {
          "internalType": "address",
          "name": "account",
          "type": "address"
        }
      ],
      "name": "grantRole",
      "outputs": [],
      "stateMutability": "nonpayable",
      "type": "function"
    },
    {
      "inputs": [
        {
          "internalType": "bytes32",
          "name": "role",
          "type": "bytes32"
        },
        {
          "internalType": "address",
          "name": "account",
          "type": "address"
        }
      ],
      "name": "hasRole",
      "outputs": [
        {
          "internalType": "bool",
          "name": "",
          "type": "bool"
        }
      ],
      "stateMutability": "view",
      "type": "function",
      "constant": true
    },
    {
      "inputs": [
        {
          "internalType": "address",
          "name": "account",
          "type": "address"
        },
        {
          "internalType": "address",
          "name": "operator",
          "type": "address"
        }
      ],
      "name": "isApprovedForAll",
      "outputs": [
        {
          "internalType": "bool",
          "name": "",
          "type": "bool"
        }
      ],
      "stateMutability": "view",
      "type": "function",
      "constant": true
    },
    {
      "inputs": [
        {
          "internalType": "bytes32",
          "name": "role",
          "type": "bytes32"
        },
        {
          "internalType": "address",
          "name": "account",
          "type": "address"
        }
      ],
      "name": "renounceRole",
      "outputs": [],
      "stateMutability": "nonpayable",
      "type": "function"
    },
    {
      "inputs": [
        {
          "internalType": "bytes32",
          "name": "role",
          "type": "bytes32"
        },
        {
          "internalType": "address",
          "name": "account",
          "type": "address"
        }
      ],
      "name": "revokeRole",
      "outputs": [],
      "stateMutability": "nonpayable",
      "type": "function"
    },
    {
      "inputs": [
        {
          "internalType": "address",
          "name": "from",
          "type": "address"
        },
        {
          "internalType": "address",
          "name": "to",
          "type": "address"
        },
        {
          "internalType": "uint256[]",
          "name": "ids",
          "type": "uint256[]"
        },
        {
          "internalType": "uint256[]",
          "name": "amounts",
          "type": "uint256[]"
        },
        {
          "internalType": "bytes",
          "name": "data",
          "type": "bytes"
        }
      ],
      "name": "safeBatchTransferFrom",
      "outputs": [],
      "stateMutability": "nonpayable",
      "type": "function"
    },
    {
      "inputs": [
        {
          "internalType": "address",
          "name": "from",
          "type": "address"
        },
        {
          "internalType": "address",
          "name": "to",
          "type": "address"
        },
        {
          "internalType": "uint256",
          "name": "id",
          "type": "uint256"
        },
        {
          "internalType": "uint256",
          "name": "amount",
          "type": "uint256"
        },
        {
          "internalType": "bytes",
          "name": "data",
          "type": "bytes"
        }
      ],
      "name": "safeTransferFrom",
      "outputs": [],
      "stateMutability": "nonpayable",
      "type": "function"
    },
    {
      "inputs": [
        {
          "internalType": "address",
          "name": "operator",
          "type": "address"
        },
        {
          "internalType": "bool",
          "name": "approved",
          "type": "bool"
        }
      ],
      "name": "setApprovalForAll",
      "outputs": [],
      "stateMutability": "nonpayable",
      "type": "function"
    },
    {
      "inputs": [
        {
          "internalType": "uint256",
          "name": "",
          "type": "uint256"
        }
      ],
      "name": "uri",
      "outputs": [
        {
          "internalType": "string",
          "name": "",
          "type": "string"
        }
      ],
      "stateMutability": "view",
      "type": "function",
      "constant": true
    },
    {
      "inputs": [
        {
          "internalType": "bytes4",
          "name": "interfaceId",
          "type": "bytes4"
        }
      ],
      "name": "supportsInterface",
      "outputs": [
        {
          "internalType": "bool",
          "name": "",
          "type": "bool"
        }
      ],
      "stateMutability": "view",
      "type": "function",
      "constant": true
    },
    {
      "inputs": [
        {
          "internalType": "address",
          "name": "account",
          "type": "address"
        }
      ],
      "name": "calcReward",
      "outputs": [
        {
          "internalType": "uint256",
          "name": "",
          "type": "uint256"
        }
      ],
      "stateMutability": "view",
      "type": "function",
      "constant": true
    },
    {
      "inputs": [],
      "name": "faucetNFT",
      "outputs": [],
      "stateMutability": "nonpayable",
      "type": "function"
    },
    {
      "inputs": [],
      "name": "mintRZR",
      "outputs": [],
      "stateMutability": "nonpayable",
      "type": "function"
    }
  ],
  "bytecode": "0x608060405233600460006101000a81548173ffffffffffffffffffffffffffffffffffffffff021916908373ffffffffffffffffffffffffffffffffffffffff1602179055503480156200005257600080fd5b506040518060800160405280605981526020016200482f605991396200007e81620000ab60201b60201c565b50620000a53360006103e860405180602001604052806000815250620000c760201b60201c565b62000caf565b8060029080519060200190620000c39291906200052a565b5050565b600073ffffffffffffffffffffffffffffffffffffffff168473ffffffffffffffffffffffffffffffffffffffff1614156200013a576040517f08c379a0000000000000000000000000000000000000000000000000000000008152600401620001319062000661565b60405180910390fd5b60006200014c6200028c60201b60201c565b9050620001858160008762000167886200029460201b60201c565b62000178886200029460201b60201c565b876200031560201b60201c565b8260008086815260200190815260200160002060008773ffffffffffffffffffffffffffffffffffffffff1673ffffffffffffffffffffffffffffffffffffffff1681526020019081526020016000206000828254620001e69190620006bc565b925050819055508473ffffffffffffffffffffffffffffffffffffffff16600073ffffffffffffffffffffffffffffffffffffffff168273ffffffffffffffffffffffffffffffffffffffff167fc3d58168c5ae7397731d063d5bbf3d657854427343f4c083240f7aacaa2d0f628787604051620002669291906200072a565b60405180910390a462000285816000878787876200031d60201b60201c565b5050505050565b600033905090565b60606000600167ffffffffffffffff811115620002b657620002b562000757565b5b604051908082528060200260200182016040528015620002e55781602001602082028036833780820191505090505b50905082816000815181106200030057620002ff62000786565b5b60200260200101818152505080915050919050565b505050505050565b620003498473ffffffffffffffffffffffffffffffffffffffff166200051760201b62000f911760201c565b156200050f578373ffffffffffffffffffffffffffffffffffffffff1663f23a6e6187878686866040518663ffffffff1660e01b8152600401620003929594939291906200089e565b6020604051808303816000875af1925050508015620003d157506040513d601f19601f82011682018060405250810190620003ce91906200096e565b60015b6200048357620003e0620009ad565b806308c379a01415620004445750620003f862000a08565b8062000405575062000446565b806040517f08c379a00000000000000000000000000000000000000000000000000000000081526004016200043b919062000af6565b60405180910390fd5b505b6040517f08c379a00000000000000000000000000000000000000000000000000000000081526004016200047a9062000b90565b60405180910390fd5b63f23a6e6160e01b7bffffffffffffffffffffffffffffffffffffffffffffffffffffffff1916817bffffffffffffffffffffffffffffffffffffffffffffffffffffffff1916146200050d576040517f08c379a0000000000000000000000000000000000000000000000000000000008152600401620005049062000c28565b60405180910390fd5b505b505050505050565b600080823b905060008111915050919050565b828054620005389062000c79565b90600052602060002090601f0160209004810192826200055c5760008555620005a8565b82601f106200057757805160ff1916838001178555620005a8565b82800160010185558215620005a8579182015b82811115620005a75782518255916020019190600101906200058a565b5b509050620005b79190620005bb565b5090565b5b80821115620005d6576000816000905550600101620005bc565b5090565b600082825260208201905092915050565b7f455243313135353a206d696e7420746f20746865207a65726f2061646472657360008201527f7300000000000000000000000000000000000000000000000000000000000000602082015250565b600062000649602183620005da565b91506200065682620005eb565b604082019050919050565b600060208201905081810360008301526200067c816200063a565b9050919050565b6000819050919050565b7f4e487b7100000000000000000000000000000000000000000000000000000000600052601160045260246000fd5b6000620006c98262000683565b9150620006d68362000683565b9250827fffffffffffffffffffffffffffffffffffffffffffffffffffffffffffffffff038211156200070e576200070d6200068d565b5b828201905092915050565b620007248162000683565b82525050565b600060408201905062000741600083018562000719565b62000750602083018462000719565b9392505050565b7f4e487b7100000000000000000000000000000000000000000000000000000000600052604160045260246000fd5b7f4e487b7100000000000000000000000000000000000000000000000000000000600052603260045260246000fd5b600073ffffffffffffffffffffffffffffffffffffffff82169050919050565b6000620007e282620007b5565b9050919050565b620007f481620007d5565b82525050565b600081519050919050565b600082825260208201905092915050565b60005b838110156200083657808201518184015260208101905062000819565b8381111562000846576000848401525b50505050565b6000601f19601f8301169050919050565b60006200086a82620007fa565b62000876818562000805565b93506200088881856020860162000816565b62000893816200084c565b840191505092915050565b600060a082019050620008b56000830188620007e9565b620008c46020830187620007e9565b620008d3604083018662000719565b620008e2606083018562000719565b8181036080830152620008f681846200085d565b90509695505050505050565b6000604051905090565b600080fd5b60007fffffffff0000000000000000000000000000000000000000000000000000000082169050919050565b620009488162000911565b81146200095457600080fd5b50565b60008151905062000968816200093d565b92915050565b6000602082840312156200098757620009866200090c565b5b6000620009978482850162000957565b91505092915050565b60008160e01c9050919050565b600060033d1115620009cf5760046000803e620009cc600051620009a0565b90505b90565b620009dd826200084c565b810181811067ffffffffffffffff82111715620009ff57620009fe62000757565b5b80604052505050565b600060443d101562000a1a5762000aa7565b62000a2462000902565b60043d036004823e80513d602482011167ffffffffffffffff8211171562000a4e57505062000aa7565b808201805167ffffffffffffffff81111562000a6e575050505062000aa7565b80602083010160043d03850181111562000a8d57505050505062000aa7565b62000a9e82602001850186620009d2565b82955050505050505b90565b600081519050919050565b600062000ac28262000aaa565b62000ace8185620005da565b935062000ae081856020860162000816565b62000aeb816200084c565b840191505092915050565b6000602082019050818103600083015262000b12818462000ab5565b905092915050565b7f455243313135353a207472616e7366657220746f206e6f6e204552433131353560008201527f526563656976657220696d706c656d656e746572000000000000000000000000602082015250565b600062000b78603483620005da565b915062000b858262000b1a565b604082019050919050565b6000602082019050818103600083015262000bab8162000b69565b9050919050565b7f455243313135353a204552433131353552656365697665722072656a6563746560008201527f6420746f6b656e73000000000000000000000000000000000000000000000000602082015250565b600062000c10602883620005da565b915062000c1d8262000bb2565b604082019050919050565b6000602082019050818103600083015262000c438162000c01565b9050919050565b7f4e487b7100000000000000000000000000000000000000000000000000000000600052602260045260246000fd5b6000600282049050600182168062000c9257607f821691505b6020821081141562000ca95762000ca862000c4a565b5b50919050565b613b708062000cbf6000396000f3fe608060405234801561001057600080fd5b50600436106101415760003560e01c80639959c72b116100b8578063d547741f1161007c578063d547741f1461039c578063e2915711146103b8578063e985e9c5146103c2578063eaa79dce146103f2578063f242432a146103fc578063fa260da41461041857610141565b80639959c72b14610308578063a217fddf14610326578063a22cb46514610344578063c812a21514610360578063ce606ee01461037e57610141565b80632eb2c2d61161010a5780632eb2c2d6146102245780632f2ff15d1461024057806336568abe1461025c5780633a61738d146102785780634e1273f4146102a857806391d14854146102d857610141565b8062fdd58e1461014657806301ffc9a7146101765780630e89341c146101a657806313119161146101d6578063248a9ca3146101f4575b600080fd5b610160600480360381019061015b91906123c3565b610436565b60405161016d9190612412565b60405180910390f35b610190600480360381019061018b9190612485565b6104ff565b60405161019d91906124cd565b60405180910390f35b6101c060048036038101906101bb91906124e8565b610511565b6040516101cd91906125ae565b60405180910390f35b6101de6105a5565b6040516101eb91906125e9565b60405180910390f35b61020e60048036038101906102099190612630565b6105c9565b60405161021b91906125e9565b60405180910390f35b61023e6004803603810190610239919061285a565b6105e9565b005b61025a60048036038101906102559190612929565b61068a565b005b61027660048036038101906102719190612929565b6106b3565b005b610292600480360381019061028d9190612969565b610736565b60405161029f9190612412565b60405180910390f35b6102c260048036038101906102bd9190612a59565b61086b565b6040516102cf9190612b8f565b60405180910390f35b6102f260048036038101906102ed9190612929565b610984565b6040516102ff91906124cd565b60405180910390f35b6103106109ef565b60405161031d9190612412565b60405180910390f35b61032e6109f4565b60405161033b91906125e9565b60405180910390f35b61035e60048036038101906103599190612bdd565b6109fb565b005b610368610a11565b60405161037591906125e9565b60405180910390f35b610386610a35565b6040516103939190612c2c565b60405180910390f35b6103b660048036038101906103b19190612929565b610a5b565b005b6103c0610a84565b005b6103dc60048036038101906103d79190612c47565b610d0c565b6040516103e991906124cd565b60405180910390f35b6103fa610da0565b005b61041660048036038101906104119190612c87565b610eeb565b005b610420610f8c565b60405161042d9190612412565b60405180910390f35b60008073ffffffffffffffffffffffffffffffffffffffff168373ffffffffffffffffffffffffffffffffffffffff1614156104a7576040517f08c379a000000000000000000000000000000000000000000000000000000000815260040161049e90612d90565b60405180910390fd5b60008083815260200190815260200160002060008473ffffffffffffffffffffffffffffffffffffffff1673ffffffffffffffffffffffffffffffffffffffff16815260200190815260200160002054905092915050565b600061050a82610fa4565b9050919050565b60606002805461052090612ddf565b80601f016020809104026020016040519081016040528092919081815260200182805461054c90612ddf565b80156105995780601f1061056e57610100808354040283529160200191610599565b820191906000526020600020905b81548152906001019060200180831161057c57829003601f168201915b50505050509050919050565b7f14823911f2da1b49f045a0929a60b8c1f2a7fc8c06c7284ca3e8ab4e193a08c881565b600060036000838152602001908152602001600020600101549050919050565b6105f161101e565b73ffffffffffffffffffffffffffffffffffffffff168573ffffffffffffffffffffffffffffffffffffffff16148061063757506106368561063161101e565b610d0c565b5b610676576040517f08c379a000000000000000000000000000000000000000000000000000000000815260040161066d90612e83565b60405180910390fd5b6106838585858585611026565b5050505050565b610693826105c9565b6106a48161069f61101e565b61133a565b6106ae83836113d7565b505050565b6106bb61101e565b73ffffffffffffffffffffffffffffffffffffffff168173ffffffffffffffffffffffffffffffffffffffff1614610728576040517f08c379a000000000000000000000000000000000000000000000000000000000815260040161071f90612f15565b60405180910390fd5b61073282826114b8565b5050565b6000806107cf670de0b6b3a76400003073ffffffffffffffffffffffffffffffffffffffff1662fdd58e8660006040518363ffffffff1660e01b8152600401610780929190612f35565b602060405180830381865afa15801561079d573d6000803e3d6000fd5b505050506040513d601f19601f820116820180604052508101906107c19190612f73565b61159a90919063ffffffff16565b905060018110156107e4576000915050610866565b6000610838600560008673ffffffffffffffffffffffffffffffffffffffff1673ffffffffffffffffffffffffffffffffffffffff16815260200190815260200160002054436115b090919063ffffffff16565b9050610861816108536103e8856115c690919063ffffffff16565b61159a90919063ffffffff16565b925050505b919050565b606081518351146108b1576040517f08c379a00000000000000000000000000000000000000000000000000000000081526004016108a890613012565b60405180910390fd5b6000835167ffffffffffffffff8111156108ce576108cd612662565b5b6040519080825280602002602001820160405280156108fc5781602001602082028036833780820191505090505b50905060005b84518110156109795761094985828151811061092157610920613032565b5b602002602001015185838151811061093c5761093b613032565b5b6020026020010151610436565b82828151811061095c5761095b613032565b5b6020026020010181815250508061097290613090565b9050610902565b508091505092915050565b60006003600084815260200190815260200160002060000160008373ffffffffffffffffffffffffffffffffffffffff1673ffffffffffffffffffffffffffffffffffffffff16815260200190815260200160002060009054906101000a900460ff16905092915050565b600181565b6000801b81565b610a0d610a0661101e565b83836115dc565b5050565b7f8d6b526d6b13eab5a67762424267752264b236dd46b48a705b5b5249049123f781565b600460009054906101000a900473ffffffffffffffffffffffffffffffffffffffff1681565b610a64826105c9565b610a7581610a7061101e565b61133a565b610a7f83836114b8565b505050565b60003073ffffffffffffffffffffffffffffffffffffffff1662fdd58e600460009054906101000a900473ffffffffffffffffffffffffffffffffffffffff1660006040518363ffffffff1660e01b8152600401610ae3929190612f35565b602060405180830381865afa158015610b00573d6000803e3d6000fd5b505050506040513d601f19601f82011682018060405250810190610b249190612f73565b1415610b2f57610d0a565b60003073ffffffffffffffffffffffffffffffffffffffff1662fdd58e3360006040518363ffffffff1660e01b8152600401610b6c929190612f35565b602060405180830381865afa158015610b89573d6000803e3d6000fd5b505050506040513d601f19601f82011682018060405250810190610bad9190612f73565b9050610bef600460009054906101000a900473ffffffffffffffffffffffffffffffffffffffff16336000600160405180602001604052806000815250611749565b6000811415610c3d5743600560003373ffffffffffffffffffffffffffffffffffffffff1673ffffffffffffffffffffffffffffffffffffffff168152602001908152602001600020819055505b3073ffffffffffffffffffffffffffffffffffffffff166391d148547f14823911f2da1b49f045a0929a60b8c1f2a7fc8c06c7284ca3e8ab4e193a08c8336040518363ffffffff1660e01b8152600401610c989291906130d9565b602060405180830381865afa158015610cb5573d6000803e3d6000fd5b505050506040513d601f19601f82011682018060405250810190610cd99190613117565b610d0857610d077f14823911f2da1b49f045a0929a60b8c1f2a7fc8c06c7284ca3e8ab4e193a08c8336113d7565b5b505b565b6000600160008473ffffffffffffffffffffffffffffffffffffffff1673ffffffffffffffffffffffffffffffffffffffff16815260200190815260200160002060008373ffffffffffffffffffffffffffffffffffffffff1673ffffffffffffffffffffffffffffffffffffffff16815260200190815260200160002060009054906101000a900460ff16905092915050565b6000610dab33610736565b90506000811415610dbc5750610ee9565b610dd833600183604051806020016040528060008152506119cb565b43600560003373ffffffffffffffffffffffffffffffffffffffff1673ffffffffffffffffffffffffffffffffffffffff168152602001908152602001600020819055503073ffffffffffffffffffffffffffffffffffffffff166391d148547f8d6b526d6b13eab5a67762424267752264b236dd46b48a705b5b5249049123f7336040518363ffffffff1660e01b8152600401610e779291906130d9565b602060405180830381865afa158015610e94573d6000803e3d6000fd5b505050506040513d601f19601f82011682018060405250810190610eb89190613117565b610ee757610ee67f8d6b526d6b13eab5a67762424267752264b236dd46b48a705b5b5249049123f7336113d7565b5b505b565b610ef361101e565b73ffffffffffffffffffffffffffffffffffffffff168573ffffffffffffffffffffffffffffffffffffffff161480610f395750610f3885610f3361101e565b610d0c565b5b610f78576040517f08c379a0000000000000000000000000000000000000000000000000000000008152600401610f6f906131b6565b60405180910390fd5b610f858585858585611749565b5050505050565b600081565b600080823b905060008111915050919050565b60007f7965db0b000000000000000000000000000000000000000000000000000000007bffffffffffffffffffffffffffffffffffffffffffffffffffffffff1916827bffffffffffffffffffffffffffffffffffffffffffffffffffffffff19161480611017575061101682611b61565b5b9050919050565b600033905090565b815183511461106a576040517f08c379a000000000000000000000000000000000000000000000000000000000815260040161106190613248565b60405180910390fd5b600073ffffffffffffffffffffffffffffffffffffffff168473ffffffffffffffffffffffffffffffffffffffff1614156110da576040517f08c379a00000000000000000000000000000000000000000000000000000000081526004016110d1906132da565b60405180910390fd5b60006110e461101e565b90506110f4818787878787611c43565b60005b84518110156112a557600085828151811061111557611114613032565b5b60200260200101519050600085838151811061113457611133613032565b5b60200260200101519050600080600084815260200190815260200160002060008b73ffffffffffffffffffffffffffffffffffffffff1673ffffffffffffffffffffffffffffffffffffffff168152602001908152602001600020549050818110156111d5576040517f08c379a00000000000000000000000000000000000000000000000000000000081526004016111cc9061336c565b60405180910390fd5b81810360008085815260200190815260200160002060008c73ffffffffffffffffffffffffffffffffffffffff1673ffffffffffffffffffffffffffffffffffffffff168152602001908152602001600020819055508160008085815260200190815260200160002060008b73ffffffffffffffffffffffffffffffffffffffff1673ffffffffffffffffffffffffffffffffffffffff168152602001908152602001600020600082825461128a919061338c565b925050819055505050508061129e90613090565b90506110f7565b508473ffffffffffffffffffffffffffffffffffffffff168673ffffffffffffffffffffffffffffffffffffffff168273ffffffffffffffffffffffffffffffffffffffff167f4a39dc06d4c0dbc64b70af90fd698a233a518aa5d07e595d983b8c0526c8f7fb878760405161131c9291906133e2565b60405180910390a4611332818787878787611c4b565b505050505050565b6113448282610984565b6113d3576113698173ffffffffffffffffffffffffffffffffffffffff166014611e23565b6113778360001c6020611e23565b6040516020016113889291906134ed565b6040516020818303038152906040526040517f08c379a00000000000000000000000000000000000000000000000000000000081526004016113ca91906125ae565b60405180910390fd5b5050565b6113e18282610984565b6114b45760016003600084815260200190815260200160002060000160008373ffffffffffffffffffffffffffffffffffffffff1673ffffffffffffffffffffffffffffffffffffffff16815260200190815260200160002060006101000a81548160ff02191690831515021790555061145961101e565b73ffffffffffffffffffffffffffffffffffffffff168173ffffffffffffffffffffffffffffffffffffffff16837f2f8788117e7eff1d82e926ec794901d17c78024a50270940304540a733656f0d60405160405180910390a45b5050565b6114c28282610984565b156115965760006003600084815260200190815260200160002060000160008373ffffffffffffffffffffffffffffffffffffffff1673ffffffffffffffffffffffffffffffffffffffff16815260200190815260200160002060006101000a81548160ff02191690831515021790555061153b61101e565b73ffffffffffffffffffffffffffffffffffffffff168173ffffffffffffffffffffffffffffffffffffffff16837ff6391f5c32d9c69d2a47ea670b442974b53935d1edc7fd64eb21e047a839171b60405160405180910390a45b5050565b600081836115a89190613527565b905092915050565b600081836115be9190613581565b905092915050565b600081836115d491906135e4565b905092915050565b8173ffffffffffffffffffffffffffffffffffffffff168373ffffffffffffffffffffffffffffffffffffffff16141561164b576040517f08c379a000000000000000000000000000000000000000000000000000000000815260040161164290613687565b60405180910390fd5b80600160008573ffffffffffffffffffffffffffffffffffffffff1673ffffffffffffffffffffffffffffffffffffffff16815260200190815260200160002060008473ffffffffffffffffffffffffffffffffffffffff1673ffffffffffffffffffffffffffffffffffffffff16815260200190815260200160002060006101000a81548160ff0219169083151502179055508173ffffffffffffffffffffffffffffffffffffffff168373ffffffffffffffffffffffffffffffffffffffff167f17307eab39ab6107e8899845ad3d59bd9653f200f220920489ca2b5937696c318360405161173c91906124cd565b60405180910390a3505050565b600073ffffffffffffffffffffffffffffffffffffffff168473ffffffffffffffffffffffffffffffffffffffff1614156117b9576040517f08c379a00000000000000000000000000000000000000000000000000000000081526004016117b0906132da565b60405180910390fd5b60006117c361101e565b90506117e38187876117d48861205f565b6117dd8861205f565b87611c43565b600080600086815260200190815260200160002060008873ffffffffffffffffffffffffffffffffffffffff1673ffffffffffffffffffffffffffffffffffffffff1681526020019081526020016000205490508381101561187a576040517f08c379a00000000000000000000000000000000000000000000000000000000081526004016118719061336c565b60405180910390fd5b83810360008087815260200190815260200160002060008973ffffffffffffffffffffffffffffffffffffffff1673ffffffffffffffffffffffffffffffffffffffff168152602001908152602001600020819055508360008087815260200190815260200160002060008873ffffffffffffffffffffffffffffffffffffffff1673ffffffffffffffffffffffffffffffffffffffff168152602001908152602001600020600082825461192f919061338c565b925050819055508573ffffffffffffffffffffffffffffffffffffffff168773ffffffffffffffffffffffffffffffffffffffff168373ffffffffffffffffffffffffffffffffffffffff167fc3d58168c5ae7397731d063d5bbf3d657854427343f4c083240f7aacaa2d0f6288886040516119ac9291906136a7565b60405180910390a46119c28288888888886120d9565b50505050505050565b600073ffffffffffffffffffffffffffffffffffffffff168473ffffffffffffffffffffffffffffffffffffffff161415611a3b576040517f08c379a0000000000000000000000000000000000000000000000000000000008152600401611a3290613742565b60405180910390fd5b6000611a4561101e565b9050611a6681600087611a578861205f565b611a608861205f565b87611c43565b8260008086815260200190815260200160002060008773ffffffffffffffffffffffffffffffffffffffff1673ffffffffffffffffffffffffffffffffffffffff1681526020019081526020016000206000828254611ac5919061338c565b925050819055508473ffffffffffffffffffffffffffffffffffffffff16600073ffffffffffffffffffffffffffffffffffffffff168273ffffffffffffffffffffffffffffffffffffffff167fc3d58168c5ae7397731d063d5bbf3d657854427343f4c083240f7aacaa2d0f628787604051611b439291906136a7565b60405180910390a4611b5a816000878787876120d9565b5050505050565b60007fd9b67a26000000000000000000000000000000000000000000000000000000007bffffffffffffffffffffffffffffffffffffffffffffffffffffffff1916827bffffffffffffffffffffffffffffffffffffffffffffffffffffffff19161480611c2c57507f0e89341c000000000000000000000000000000000000000000000000000000007bffffffffffffffffffffffffffffffffffffffffffffffffffffffff1916827bffffffffffffffffffffffffffffffffffffffffffffffffffffffff1916145b80611c3c5750611c3b826122b1565b5b9050919050565b505050505050565b611c6a8473ffffffffffffffffffffffffffffffffffffffff16610f91565b15611e1b578373ffffffffffffffffffffffffffffffffffffffff1663bc197c8187878686866040518663ffffffff1660e01b8152600401611cb09594939291906137b7565b6020604051808303816000875af1925050508015611cec57506040513d601f19601f82011682018060405250810190611ce99190613834565b60015b611d9257611cf861386e565b806308c379a01415611d555750611d0d613890565b80611d185750611d57565b806040517f08c379a0000000000000000000000000000000000000000000000000000000008152600401611d4c91906125ae565b60405180910390fd5b505b6040517f08c379a0000000000000000000000000000000000000000000000000000000008152600401611d8990613998565b60405180910390fd5b63bc197c8160e01b7bffffffffffffffffffffffffffffffffffffffffffffffffffffffff1916817bffffffffffffffffffffffffffffffffffffffffffffffffffffffff191614611e19576040517f08c379a0000000000000000000000000000000000000000000000000000000008152600401611e1090613a2a565b60405180910390fd5b505b505050505050565b606060006002836002611e369190613527565b611e40919061338c565b67ffffffffffffffff811115611e5957611e58612662565b5b6040519080825280601f01601f191660200182016040528015611e8b5781602001600182028036833780820191505090505b5090507f300000000000000000000000000000000000000000000000000000000000000081600081518110611ec357611ec2613032565b5b60200101907effffffffffffffffffffffffffffffffffffffffffffffffffffffffffffff1916908160001a9053507f780000000000000000000000000000000000000000000000000000000000000081600181518110611f2757611f26613032565b5b60200101907effffffffffffffffffffffffffffffffffffffffffffffffffffffffffffff1916908160001a90535060006001846002611f679190613527565b611f71919061338c565b90505b6001811115612011577f3031323334353637383961626364656600000000000000000000000000000000600f861660108110611fb357611fb2613032565b5b1a60f81b828281518110611fca57611fc9613032565b5b60200101907effffffffffffffffffffffffffffffffffffffffffffffffffffffffffffff1916908160001a905350600485901c94508061200a90613a4a565b9050611f74565b5060008414612055576040517f08c379a000000000000000000000000000000000000000000000000000000000815260040161204c90613ac0565b60405180910390fd5b8091505092915050565b60606000600167ffffffffffffffff81111561207e5761207d612662565b5b6040519080825280602002602001820160405280156120ac5781602001602082028036833780820191505090505b50905082816000815181106120c4576120c3613032565b5b60200260200101818152505080915050919050565b6120f88473ffffffffffffffffffffffffffffffffffffffff16610f91565b156122a9578373ffffffffffffffffffffffffffffffffffffffff1663f23a6e6187878686866040518663ffffffff1660e01b815260040161213e959493929190613ae0565b6020604051808303816000875af192505050801561217a57506040513d601f19601f820116820180604052508101906121779190613834565b60015b6122205761218661386e565b806308c379a014156121e3575061219b613890565b806121a657506121e5565b806040517f08c379a00000000000000000000000000000000000000000000000000000000081526004016121da91906125ae565b60405180910390fd5b505b6040517f08c379a000000000000000000000000000000000000000000000000000000000815260040161221790613998565b60405180910390fd5b63f23a6e6160e01b7bffffffffffffffffffffffffffffffffffffffffffffffffffffffff1916817bffffffffffffffffffffffffffffffffffffffffffffffffffffffff1916146122a7576040517f08c379a000000000000000000000000000000000000000000000000000000000815260040161229e90613a2a565b60405180910390fd5b505b505050505050565b60007f01ffc9a7000000000000000000000000000000000000000000000000000000007bffffffffffffffffffffffffffffffffffffffffffffffffffffffff1916827bffffffffffffffffffffffffffffffffffffffffffffffffffffffff1916149050919050565b6000604051905090565b600080fd5b600080fd5b600073ffffffffffffffffffffffffffffffffffffffff82169050919050565b600061235a8261232f565b9050919050565b61236a8161234f565b811461237557600080fd5b50565b60008135905061238781612361565b92915050565b6000819050919050565b6123a08161238d565b81146123ab57600080fd5b50565b6000813590506123bd81612397565b92915050565b600080604083850312156123da576123d9612325565b5b60006123e885828601612378565b92505060206123f9858286016123ae565b9150509250929050565b61240c8161238d565b82525050565b60006020820190506124276000830184612403565b92915050565b60007fffffffff0000000000000000000000000000000000000000000000000000000082169050919050565b6124628161242d565b811461246d57600080fd5b50565b60008135905061247f81612459565b92915050565b60006020828403121561249b5761249a612325565b5b60006124a984828501612470565b91505092915050565b60008115159050919050565b6124c7816124b2565b82525050565b60006020820190506124e260008301846124be565b92915050565b6000602082840312156124fe576124fd612325565b5b600061250c848285016123ae565b91505092915050565b600081519050919050565b600082825260208201905092915050565b60005b8381101561254f578082015181840152602081019050612534565b8381111561255e576000848401525b50505050565b6000601f19601f8301169050919050565b600061258082612515565b61258a8185612520565b935061259a818560208601612531565b6125a381612564565b840191505092915050565b600060208201905081810360008301526125c88184612575565b905092915050565b6000819050919050565b6125e3816125d0565b82525050565b60006020820190506125fe60008301846125da565b92915050565b61260d816125d0565b811461261857600080fd5b50565b60008135905061262a81612604565b92915050565b60006020828403121561264657612645612325565b5b60006126548482850161261b565b91505092915050565b600080fd5b7f4e487b7100000000000000000000000000000000000000000000000000000000600052604160045260246000fd5b61269a82612564565b810181811067ffffffffffffffff821117156126b9576126b8612662565b5b80604052505050565b60006126cc61231b565b90506126d88282612691565b919050565b600067ffffffffffffffff8211156126f8576126f7612662565b5b602082029050602081019050919050565b600080fd5b600061272161271c846126dd565b6126c2565b9050808382526020820190506020840283018581111561274457612743612709565b5b835b8181101561276d578061275988826123ae565b845260208401935050602081019050612746565b5050509392505050565b600082601f83011261278c5761278b61265d565b5b813561279c84826020860161270e565b91505092915050565b600080fd5b600067ffffffffffffffff8211156127c5576127c4612662565b5b6127ce82612564565b9050602081019050919050565b82818337600083830152505050565b60006127fd6127f8846127aa565b6126c2565b905082815260208101848484011115612819576128186127a5565b5b6128248482856127db565b509392505050565b600082601f8301126128415761284061265d565b5b81356128518482602086016127ea565b91505092915050565b600080600080600060a0868803121561287657612875612325565b5b600061288488828901612378565b955050602061289588828901612378565b945050604086013567ffffffffffffffff8111156128b6576128b561232a565b5b6128c288828901612777565b935050606086013567ffffffffffffffff8111156128e3576128e261232a565b5b6128ef88828901612777565b925050608086013567ffffffffffffffff8111156129105761290f61232a565b5b61291c8882890161282c565b9150509295509295909350565b600080604083850312156129405761293f612325565b5b600061294e8582860161261b565b925050602061295f85828601612378565b9150509250929050565b60006020828403121561297f5761297e612325565b5b600061298d84828501612378565b91505092915050565b600067ffffffffffffffff8211156129b1576129b0612662565b5b602082029050602081019050919050565b60006129d56129d084612996565b6126c2565b905080838252602082019050602084028301858111156129f8576129f7612709565b5b835b81811015612a215780612a0d8882612378565b8452602084019350506020810190506129fa565b5050509392505050565b600082601f830112612a4057612a3f61265d565b5b8135612a508482602086016129c2565b91505092915050565b60008060408385031215612a7057612a6f612325565b5b600083013567ffffffffffffffff811115612a8e57612a8d61232a565b5b612a9a85828601612a2b565b925050602083013567ffffffffffffffff811115612abb57612aba61232a565b5b612ac785828601612777565b9150509250929050565b600081519050919050565b600082825260208201905092915050565b6000819050602082019050919050565b612b068161238d565b82525050565b6000612b188383612afd565b60208301905092915050565b6000602082019050919050565b6000612b3c82612ad1565b612b468185612adc565b9350612b5183612aed565b8060005b83811015612b82578151612b698882612b0c565b9750612b7483612b24565b925050600181019050612b55565b5085935050505092915050565b60006020820190508181036000830152612ba98184612b31565b905092915050565b612bba816124b2565b8114612bc557600080fd5b50565b600081359050612bd781612bb1565b92915050565b60008060408385031215612bf457612bf3612325565b5b6000612c0285828601612378565b9250506020612c1385828601612bc8565b9150509250929050565b612c268161234f565b82525050565b6000602082019050612c416000830184612c1d565b92915050565b60008060408385031215612c5e57612c5d612325565b5b6000612c6c85828601612378565b9250506020612c7d85828601612378565b9150509250929050565b600080600080600060a08688031215612ca357612ca2612325565b5b6000612cb188828901612378565b9550506020612cc288828901612378565b9450506040612cd3888289016123ae565b9350506060612ce4888289016123ae565b925050608086013567ffffffffffffffff811115612d0557612d0461232a565b5b612d118882890161282c565b9150509295509295909350565b7f455243313135353a2062616c616e636520717565727920666f7220746865207a60008201527f65726f2061646472657373000000000000000000000000000000000000000000602082015250565b6000612d7a602b83612520565b9150612d8582612d1e565b604082019050919050565b60006020820190508181036000830152612da981612d6d565b9050919050565b7f4e487b7100000000000000000000000000000000000000000000000000000000600052602260045260246000fd5b60006002820490506001821680612df757607f821691505b60208210811415612e0b57612e0a612db0565b5b50919050565b7f455243313135353a207472616e736665722063616c6c6572206973206e6f742060008201527f6f776e6572206e6f7220617070726f7665640000000000000000000000000000602082015250565b6000612e6d603283612520565b9150612e7882612e11565b604082019050919050565b60006020820190508181036000830152612e9c81612e60565b9050919050565b7f416363657373436f6e74726f6c3a2063616e206f6e6c792072656e6f756e636560008201527f20726f6c657320666f722073656c660000000000000000000000000000000000602082015250565b6000612eff602f83612520565b9150612f0a82612ea3565b604082019050919050565b60006020820190508181036000830152612f2e81612ef2565b9050919050565b6000604082019050612f4a6000830185612c1d565b612f576020830184612403565b9392505050565b600081519050612f6d81612397565b92915050565b600060208284031215612f8957612f88612325565b5b6000612f9784828501612f5e565b91505092915050565b7f455243313135353a206163636f756e747320616e6420696473206c656e67746860008201527f206d69736d617463680000000000000000000000000000000000000000000000602082015250565b6000612ffc602983612520565b915061300782612fa0565b604082019050919050565b6000602082019050818103600083015261302b81612fef565b9050919050565b7f4e487b7100000000000000000000000000000000000000000000000000000000600052603260045260246000fd5b7f4e487b7100000000000000000000000000000000000000000000000000000000600052601160045260246000fd5b600061309b8261238d565b91507fffffffffffffffffffffffffffffffffffffffffffffffffffffffffffffffff8214156130ce576130cd613061565b5b600182019050919050565b60006040820190506130ee60008301856125da565b6130fb6020830184612c1d565b9392505050565b60008151905061311181612bb1565b92915050565b60006020828403121561312d5761312c612325565b5b600061313b84828501613102565b91505092915050565b7f455243313135353a2063616c6c6572206973206e6f74206f776e6572206e6f7260008201527f20617070726f7665640000000000000000000000000000000000000000000000602082015250565b60006131a0602983612520565b91506131ab82613144565b604082019050919050565b600060208201905081810360008301526131cf81613193565b9050919050565b7f455243313135353a2069647320616e6420616d6f756e7473206c656e6774682060008201527f6d69736d61746368000000000000000000000000000000000000000000000000602082015250565b6000613232602883612520565b915061323d826131d6565b604082019050919050565b6000602082019050818103600083015261326181613225565b9050919050565b7f455243313135353a207472616e7366657220746f20746865207a65726f20616460008201527f6472657373000000000000000000000000000000000000000000000000000000602082015250565b60006132c4602583612520565b91506132cf82613268565b604082019050919050565b600060208201905081810360008301526132f3816132b7565b9050919050565b7f455243313135353a20696e73756666696369656e742062616c616e636520666f60008201527f72207472616e7366657200000000000000000000000000000000000000000000602082015250565b6000613356602a83612520565b9150613361826132fa565b604082019050919050565b6000602082019050818103600083015261338581613349565b9050919050565b60006133978261238d565b91506133a28361238d565b9250827fffffffffffffffffffffffffffffffffffffffffffffffffffffffffffffffff038211156133d7576133d6613061565b5b828201905092915050565b600060408201905081810360008301526133fc8185612b31565b905081810360208301526134108184612b31565b90509392505050565b600081905092915050565b7f416363657373436f6e74726f6c3a206163636f756e7420000000000000000000600082015250565b600061345a601783613419565b915061346582613424565b601782019050919050565b600061347b82612515565b6134858185613419565b9350613495818560208601612531565b80840191505092915050565b7f206973206d697373696e6720726f6c6520000000000000000000000000000000600082015250565b60006134d7601183613419565b91506134e2826134a1565b601182019050919050565b60006134f88261344d565b91506135048285613470565b915061350f826134ca565b915061351b8284613470565b91508190509392505050565b60006135328261238d565b915061353d8361238d565b9250817fffffffffffffffffffffffffffffffffffffffffffffffffffffffffffffffff048311821515161561357657613575613061565b5b828202905092915050565b600061358c8261238d565b91506135978361238d565b9250828210156135aa576135a9613061565b5b828203905092915050565b7f4e487b7100000000000000000000000000000000000000000000000000000000600052601260045260246000fd5b60006135ef8261238d565b91506135fa8361238d565b92508261360a576136096135b5565b5b828204905092915050565b7f455243313135353a2073657474696e6720617070726f76616c2073746174757360008201527f20666f722073656c660000000000000000000000000000000000000000000000602082015250565b6000613671602983612520565b915061367c82613615565b604082019050919050565b600060208201905081810360008301526136a081613664565b9050919050565b60006040820190506136bc6000830185612403565b6136c96020830184612403565b9392505050565b7f455243313135353a206d696e7420746f20746865207a65726f2061646472657360008201527f7300000000000000000000000000000000000000000000000000000000000000602082015250565b600061372c602183612520565b9150613737826136d0565b604082019050919050565b6000602082019050818103600083015261375b8161371f565b9050919050565b600081519050919050565b600082825260208201905092915050565b600061378982613762565b613793818561376d565b93506137a3818560208601612531565b6137ac81612564565b840191505092915050565b600060a0820190506137cc6000830188612c1d565b6137d96020830187612c1d565b81810360408301526137eb8186612b31565b905081810360608301526137ff8185612b31565b90508181036080830152613813818461377e565b90509695505050505050565b60008151905061382e81612459565b92915050565b60006020828403121561384a57613849612325565b5b60006138588482850161381f565b91505092915050565b60008160e01c9050919050565b600060033d111561388d5760046000803e61388a600051613861565b90505b90565b600060443d10156138a057613923565b6138a861231b565b60043d036004823e80513d602482011167ffffffffffffffff821117156138d0575050613923565b808201805167ffffffffffffffff8111156138ee5750505050613923565b80602083010160043d03850181111561390b575050505050613923565b61391a82602001850186612691565b82955050505050505b90565b7f455243313135353a207472616e7366657220746f206e6f6e204552433131353560008201527f526563656976657220696d706c656d656e746572000000000000000000000000602082015250565b6000613982603483612520565b915061398d82613926565b604082019050919050565b600060208201905081810360008301526139b181613975565b9050919050565b7f455243313135353a204552433131353552656365697665722072656a6563746560008201527f6420746f6b656e73000000000000000000000000000000000000000000000000602082015250565b6000613a14602883612520565b9150613a1f826139b8565b604082019050919050565b60006020820190508181036000830152613a4381613a07565b9050919050565b6000613a558261238d565b91506000821415613a6957613a68613061565b5b600182039050919050565b7f537472696e67733a20686578206c656e67746820696e73756666696369656e74600082015250565b6000613aaa602083612520565b9150613ab582613a74565b602082019050919050565b60006020820190508181036000830152613ad981613a9d565b9050919050565b600060a082019050613af56000830188612c1d565b613b026020830187612c1d565b613b0f6040830186612403565b613b1c6060830185612403565b8181036080830152613b2e818461377e565b9050969550505050505056fea2646970667358221220cf5cd9b958f802b06a3ae929955ce738f1d0a8ed134077eba2f490bf4f8e339f64736f6c634300080a003368747470733a2f2f6261667962656961617a77703465346667756b646c6b666b6d786c3333666a3333706f716f6f66797677777a616b61336573727a647073327972342e697066732e647765622e6c696e6b2f302e6a736f6e",
  "immutableReferences": {},
  "source": "// SPDX-License-Identifier: MIT\npragma solidity ^0.8.10;\n\nimport \"@openzeppelin/contracts/token/ERC1155/ERC1155.sol\";\nimport \"@openzeppelin/contracts/utils/Strings.sol\";\nimport \"@openzeppelin/contracts/utils/math/SafeMath.sol\";\nimport \"@openzeppelin/contracts/access/AccessControl.sol\";\n\ncontract Razor is ERC1155, AccessControl {\n    using SafeMath for uint256;\n    address public contractOwner = msg.sender;\n    uint256 public constant RAZOR = 0;\n    uint256 public constant RZR = 1;\n    bytes32 public constant USER_ROLE = keccak256(\"USER_ROLE\");\n    bytes32 public constant GROUP_ROLE = keccak256(\"GROUP_ROLE\");\n    mapping (address => uint256) private previusBlock;\n\n    mapping (uint256 => string) private _uris;\n\n    constructor() ERC1155(\"https://bafybeiaazwp4e4fgukdlkfkmxl33fj33poqoofyvwwzaka3esrzdps2yr4.ipfs.dweb.link/0.json\") {\n        _mint(msg.sender, RAZOR, 1000, \"\");\n    }\n\n    function supportsInterface(bytes4 interfaceId) public view virtual override(ERC1155, AccessControl) returns (bool) {\n        return super.supportsInterface(interfaceId);\n    }\n\n    function calcReward(address account) public view returns(uint256) {\n        uint256 balance = this.balanceOf(account, RAZOR).mul(10 ** 18);\n\n        if(balance < 1) {\n            return 0;\n        }\n\n        uint256 blockDiff = block.number.sub(previusBlock[account]);\n\n        return (balance.div(1000)).mul(blockDiff);\n    }\n\n    function faucetNFT() public {\n        if(this.balanceOf(contractOwner, RAZOR) == 0) {\n            return;\n        }\n        uint256 balanceSender = this.balanceOf(msg.sender, RAZOR);\n\n        _safeTransferFrom(contractOwner, msg.sender, RAZOR, 1, \"\");\n        if(balanceSender == 0) {\n            previusBlock[msg.sender] = block.number;\n        }\n\n        if(!this.hasRole(USER_ROLE, msg.sender)) {\n            _grantRole(USER_ROLE, msg.sender);\n        }\n    }\n\n    function mintRZR() public {\n        uint256 rewards = calcReward(msg.sender);\n\n        if(rewards == 0) {\n            return;\n        }\n\n        _mint(msg.sender, RZR, rewards, \"\");\n        previusBlock[msg.sender] = block.number;\n\n        if(!this.hasRole(GROUP_ROLE, msg.sender)) {\n            _grantRole(GROUP_ROLE, msg.sender);\n        }\n    }\n}",
  "sourcePath": "/home/spielrs/Proyectos/razornft/contracts/Razor.sol",
  "compiler": {
    "name": "solc",
    "version": "0.8.10+commit.fc410830.Emscripten.clang"
  },
  "schemaVersion": "3.4.3",
  "updatedAt": "2021-12-20T00:14:20.187Z",
  "networkType": "ethereum",
  "devdoc": {
    "kind": "dev",
    "methods": {
      "balanceOf(address,uint256)": {
        "details": "See {IERC1155-balanceOf}. Requirements: - `account` cannot be the zero address."
      },
      "balanceOfBatch(address[],uint256[])": {
        "details": "See {IERC1155-balanceOfBatch}. Requirements: - `accounts` and `ids` must have the same length."
      },
      "getRoleAdmin(bytes32)": {
        "details": "Returns the admin role that controls `role`. See {grantRole} and {revokeRole}. To change a role's admin, use {_setRoleAdmin}."
      },
      "grantRole(bytes32,address)": {
        "details": "Grants `role` to `account`. If `account` had not been already granted `role`, emits a {RoleGranted} event. Requirements: - the caller must have ``role``'s admin role."
      },
      "hasRole(bytes32,address)": {
        "details": "Returns `true` if `account` has been granted `role`."
      },
      "isApprovedForAll(address,address)": {
        "details": "See {IERC1155-isApprovedForAll}."
      },
      "renounceRole(bytes32,address)": {
        "details": "Revokes `role` from the calling account. Roles are often managed via {grantRole} and {revokeRole}: this function's purpose is to provide a mechanism for accounts to lose their privileges if they are compromised (such as when a trusted device is misplaced). If the calling account had been revoked `role`, emits a {RoleRevoked} event. Requirements: - the caller must be `account`."
      },
      "revokeRole(bytes32,address)": {
        "details": "Revokes `role` from `account`. If `account` had been granted `role`, emits a {RoleRevoked} event. Requirements: - the caller must have ``role``'s admin role."
      },
      "safeBatchTransferFrom(address,address,uint256[],uint256[],bytes)": {
        "details": "See {IERC1155-safeBatchTransferFrom}."
      },
      "safeTransferFrom(address,address,uint256,uint256,bytes)": {
        "details": "See {IERC1155-safeTransferFrom}."
      },
      "setApprovalForAll(address,bool)": {
        "details": "See {IERC1155-setApprovalForAll}."
      },
      "uri(uint256)": {
        "details": "See {IERC1155MetadataURI-uri}. This implementation returns the same URI for *all* token types. It relies on the token type ID substitution mechanism https://eips.ethereum.org/EIPS/eip-1155#metadata[defined in the EIP]. Clients calling this function must replace the `\\{id\\}` substring with the actual token type ID."
      }
    },
    "version": 1
  },
  "userdoc": {
    "kind": "user",
    "methods": {},
    "version": 1
  }
}