{
  "contractName": "Razor",
  "abi": [
    {
      "inputs": [],
      "stateMutability": "nonpayable",
      "type": "constructor"
    },
    {
      "anonymous": false,
      "inputs": [
        {
          "indexed": true,
          "internalType": "address",
          "name": "account",
          "type": "address"
        },
        {
          "indexed": true,
          "internalType": "address",
          "name": "operator",
          "type": "address"
        },
        {
          "indexed": false,
          "internalType": "bool",
          "name": "approved",
          "type": "bool"
        }
      ],
      "name": "ApprovalForAll",
      "type": "event"
    },
    {
      "anonymous": false,
      "inputs": [
        {
          "indexed": true,
          "internalType": "bytes32",
          "name": "role",
          "type": "bytes32"
        },
        {
          "indexed": true,
          "internalType": "bytes32",
          "name": "previousAdminRole",
          "type": "bytes32"
        },
        {
          "indexed": true,
          "internalType": "bytes32",
          "name": "newAdminRole",
          "type": "bytes32"
        }
      ],
      "name": "RoleAdminChanged",
      "type": "event"
    },
    {
      "anonymous": false,
      "inputs": [
        {
          "indexed": true,
          "internalType": "bytes32",
          "name": "role",
          "type": "bytes32"
        },
        {
          "indexed": true,
          "internalType": "address",
          "name": "account",
          "type": "address"
        },
        {
          "indexed": true,
          "internalType": "address",
          "name": "sender",
          "type": "address"
        }
      ],
      "name": "RoleGranted",
      "type": "event"
    },
    {
      "anonymous": false,
      "inputs": [
        {
          "indexed": true,
          "internalType": "bytes32",
          "name": "role",
          "type": "bytes32"
        },
        {
          "indexed": true,
          "internalType": "address",
          "name": "account",
          "type": "address"
        },
        {
          "indexed": true,
          "internalType": "address",
          "name": "sender",
          "type": "address"
        }
      ],
      "name": "RoleRevoked",
      "type": "event"
    },
    {
      "anonymous": false,
      "inputs": [
        {
          "indexed": true,
          "internalType": "address",
          "name": "operator",
          "type": "address"
        },
        {
          "indexed": true,
          "internalType": "address",
          "name": "from",
          "type": "address"
        },
        {
          "indexed": true,
          "internalType": "address",
          "name": "to",
          "type": "address"
        },
        {
          "indexed": false,
          "internalType": "uint256[]",
          "name": "ids",
          "type": "uint256[]"
        },
        {
          "indexed": false,
          "internalType": "uint256[]",
          "name": "values",
          "type": "uint256[]"
        }
      ],
      "name": "TransferBatch",
      "type": "event"
    },
    {
      "anonymous": false,
      "inputs": [
        {
          "indexed": true,
          "internalType": "address",
          "name": "operator",
          "type": "address"
        },
        {
          "indexed": true,
          "internalType": "address",
          "name": "from",
          "type": "address"
        },
        {
          "indexed": true,
          "internalType": "address",
          "name": "to",
          "type": "address"
        },
        {
          "indexed": false,
          "internalType": "uint256",
          "name": "id",
          "type": "uint256"
        },
        {
          "indexed": false,
          "internalType": "uint256",
          "name": "value",
          "type": "uint256"
        }
      ],
      "name": "TransferSingle",
      "type": "event"
    },
    {
      "anonymous": false,
      "inputs": [
        {
          "indexed": false,
          "internalType": "string",
          "name": "value",
          "type": "string"
        },
        {
          "indexed": true,
          "internalType": "uint256",
          "name": "id",
          "type": "uint256"
        }
      ],
      "name": "URI",
      "type": "event"
    },
    {
      "inputs": [],
      "name": "DEFAULT_ADMIN_ROLE",
      "outputs": [
        {
          "internalType": "bytes32",
          "name": "",
          "type": "bytes32"
        }
      ],
      "stateMutability": "view",
      "type": "function"
    },
    {
      "inputs": [],
      "name": "GROUP_ROLE",
      "outputs": [
        {
          "internalType": "bytes32",
          "name": "",
          "type": "bytes32"
        }
      ],
      "stateMutability": "view",
      "type": "function"
    },
    {
      "inputs": [],
      "name": "RAZOR",
      "outputs": [
        {
          "internalType": "uint256",
          "name": "",
          "type": "uint256"
        }
      ],
      "stateMutability": "view",
      "type": "function"
    },
    {
      "inputs": [],
      "name": "RZR",
      "outputs": [
        {
          "internalType": "uint256",
          "name": "",
          "type": "uint256"
        }
      ],
      "stateMutability": "view",
      "type": "function"
    },
    {
      "inputs": [],
      "name": "USER_ROLE",
      "outputs": [
        {
          "internalType": "bytes32",
          "name": "",
          "type": "bytes32"
        }
      ],
      "stateMutability": "view",
      "type": "function"
    },
    {
      "inputs": [
        {
          "internalType": "address",
          "name": "account",
          "type": "address"
        },
        {
          "internalType": "uint256",
          "name": "id",
          "type": "uint256"
        }
      ],
      "name": "balanceOf",
      "outputs": [
        {
          "internalType": "uint256",
          "name": "",
          "type": "uint256"
        }
      ],
      "stateMutability": "view",
      "type": "function"
    },
    {
      "inputs": [
        {
          "internalType": "address[]",
          "name": "accounts",
          "type": "address[]"
        },
        {
          "internalType": "uint256[]",
          "name": "ids",
          "type": "uint256[]"
        }
      ],
      "name": "balanceOfBatch",
      "outputs": [
        {
          "internalType": "uint256[]",
          "name": "",
          "type": "uint256[]"
        }
      ],
      "stateMutability": "view",
      "type": "function"
    },
    {
      "inputs": [],
      "name": "contractOwner",
      "outputs": [
        {
          "internalType": "address",
          "name": "",
          "type": "address"
        }
      ],
      "stateMutability": "view",
      "type": "function"
    },
    {
      "inputs": [
        {
          "internalType": "bytes32",
          "name": "role",
          "type": "bytes32"
        }
      ],
      "name": "getRoleAdmin",
      "outputs": [
        {
          "internalType": "bytes32",
          "name": "",
          "type": "bytes32"
        }
      ],
      "stateMutability": "view",
      "type": "function"
    },
    {
      "inputs": [
        {
          "internalType": "bytes32",
          "name": "role",
          "type": "bytes32"
        },
        {
          "internalType": "address",
          "name": "account",
          "type": "address"
        }
      ],
      "name": "grantRole",
      "outputs": [],
      "stateMutability": "nonpayable",
      "type": "function"
    },
    {
      "inputs": [
        {
          "internalType": "bytes32",
          "name": "role",
          "type": "bytes32"
        },
        {
          "internalType": "address",
          "name": "account",
          "type": "address"
        }
      ],
      "name": "hasRole",
      "outputs": [
        {
          "internalType": "bool",
          "name": "",
          "type": "bool"
        }
      ],
      "stateMutability": "view",
      "type": "function"
    },
    {
      "inputs": [
        {
          "internalType": "address",
          "name": "account",
          "type": "address"
        },
        {
          "internalType": "address",
          "name": "operator",
          "type": "address"
        }
      ],
      "name": "isApprovedForAll",
      "outputs": [
        {
          "internalType": "bool",
          "name": "",
          "type": "bool"
        }
      ],
      "stateMutability": "view",
      "type": "function"
    },
    {
      "inputs": [
        {
          "internalType": "bytes32",
          "name": "role",
          "type": "bytes32"
        },
        {
          "internalType": "address",
          "name": "account",
          "type": "address"
        }
      ],
      "name": "renounceRole",
      "outputs": [],
      "stateMutability": "nonpayable",
      "type": "function"
    },
    {
      "inputs": [
        {
          "internalType": "bytes32",
          "name": "role",
          "type": "bytes32"
        },
        {
          "internalType": "address",
          "name": "account",
          "type": "address"
        }
      ],
      "name": "revokeRole",
      "outputs": [],
      "stateMutability": "nonpayable",
      "type": "function"
    },
    {
      "inputs": [
        {
          "internalType": "address",
          "name": "from",
          "type": "address"
        },
        {
          "internalType": "address",
          "name": "to",
          "type": "address"
        },
        {
          "internalType": "uint256[]",
          "name": "ids",
          "type": "uint256[]"
        },
        {
          "internalType": "uint256[]",
          "name": "amounts",
          "type": "uint256[]"
        },
        {
          "internalType": "bytes",
          "name": "data",
          "type": "bytes"
        }
      ],
      "name": "safeBatchTransferFrom",
      "outputs": [],
      "stateMutability": "nonpayable",
      "type": "function"
    },
    {
      "inputs": [
        {
          "internalType": "address",
          "name": "from",
          "type": "address"
        },
        {
          "internalType": "address",
          "name": "to",
          "type": "address"
        },
        {
          "internalType": "uint256",
          "name": "id",
          "type": "uint256"
        },
        {
          "internalType": "uint256",
          "name": "amount",
          "type": "uint256"
        },
        {
          "internalType": "bytes",
          "name": "data",
          "type": "bytes"
        }
      ],
      "name": "safeTransferFrom",
      "outputs": [],
      "stateMutability": "nonpayable",
      "type": "function"
    },
    {
      "inputs": [
        {
          "internalType": "address",
          "name": "operator",
          "type": "address"
        },
        {
          "internalType": "bool",
          "name": "approved",
          "type": "bool"
        }
      ],
      "name": "setApprovalForAll",
      "outputs": [],
      "stateMutability": "nonpayable",
      "type": "function"
    },
    {
      "inputs": [
        {
          "internalType": "uint256",
          "name": "",
          "type": "uint256"
        }
      ],
      "name": "uri",
      "outputs": [
        {
          "internalType": "string",
          "name": "",
          "type": "string"
        }
      ],
      "stateMutability": "view",
      "type": "function"
    },
    {
      "inputs": [
        {
          "internalType": "bytes4",
          "name": "interfaceId",
          "type": "bytes4"
        }
      ],
      "name": "supportsInterface",
      "outputs": [
        {
          "internalType": "bool",
          "name": "",
          "type": "bool"
        }
      ],
      "stateMutability": "view",
      "type": "function"
    },
    {
      "inputs": [
        {
          "internalType": "address",
          "name": "account",
          "type": "address"
        }
      ],
      "name": "calcReward",
      "outputs": [
        {
          "internalType": "uint256",
          "name": "",
          "type": "uint256"
        }
      ],
      "stateMutability": "view",
      "type": "function"
    },
    {
      "inputs": [],
      "name": "faucetNFT",
      "outputs": [],
      "stateMutability": "nonpayable",
      "type": "function"
    },
    {
      "inputs": [],
      "name": "mintRZR",
      "outputs": [],
      "stateMutability": "nonpayable",
      "type": "function"
    }
  ],
  "bytecode": "0x608060405233600460006101000a81548173ffffffffffffffffffffffffffffffffffffffff021916908373ffffffffffffffffffffffffffffffffffffffff1602179055503480156200005257600080fd5b506040518060800160405280605981526020016200496f605991396200007e81620000ab60201b60201c565b50620000a53360006103e860405180602001604052806000815250620000c760201b60201c565b62000caf565b8060029080519060200190620000c39291906200052a565b5050565b600073ffffffffffffffffffffffffffffffffffffffff168473ffffffffffffffffffffffffffffffffffffffff1614156200013a576040517f08c379a0000000000000000000000000000000000000000000000000000000008152600401620001319062000661565b60405180910390fd5b60006200014c6200028c60201b60201c565b9050620001858160008762000167886200029460201b60201c565b62000178886200029460201b60201c565b876200031560201b60201c565b8260008086815260200190815260200160002060008773ffffffffffffffffffffffffffffffffffffffff1673ffffffffffffffffffffffffffffffffffffffff1681526020019081526020016000206000828254620001e69190620006bc565b925050819055508473ffffffffffffffffffffffffffffffffffffffff16600073ffffffffffffffffffffffffffffffffffffffff168273ffffffffffffffffffffffffffffffffffffffff167fc3d58168c5ae7397731d063d5bbf3d657854427343f4c083240f7aacaa2d0f628787604051620002669291906200072a565b60405180910390a462000285816000878787876200031d60201b60201c565b5050505050565b600033905090565b60606000600167ffffffffffffffff811115620002b657620002b562000757565b5b604051908082528060200260200182016040528015620002e55781602001602082028036833780820191505090505b50905082816000815181106200030057620002ff62000786565b5b60200260200101818152505080915050919050565b505050505050565b620003498473ffffffffffffffffffffffffffffffffffffffff166200051760201b62000ff91760201c565b156200050f578373ffffffffffffffffffffffffffffffffffffffff1663f23a6e6187878686866040518663ffffffff1660e01b8152600401620003929594939291906200089e565b6020604051808303816000875af1925050508015620003d157506040513d601f19601f82011682018060405250810190620003ce91906200096e565b60015b6200048357620003e0620009ad565b806308c379a01415620004445750620003f862000a08565b8062000405575062000446565b806040517f08c379a00000000000000000000000000000000000000000000000000000000081526004016200043b919062000af6565b60405180910390fd5b505b6040517f08c379a00000000000000000000000000000000000000000000000000000000081526004016200047a9062000b90565b60405180910390fd5b63f23a6e6160e01b7bffffffffffffffffffffffffffffffffffffffffffffffffffffffff1916817bffffffffffffffffffffffffffffffffffffffffffffffffffffffff1916146200050d576040517f08c379a0000000000000000000000000000000000000000000000000000000008152600401620005049062000c28565b60405180910390fd5b505b505050505050565b600080823b905060008111915050919050565b828054620005389062000c79565b90600052602060002090601f0160209004810192826200055c5760008555620005a8565b82601f106200057757805160ff1916838001178555620005a8565b82800160010185558215620005a8579182015b82811115620005a75782518255916020019190600101906200058a565b5b509050620005b79190620005bb565b5090565b5b80821115620005d6576000816000905550600101620005bc565b5090565b600082825260208201905092915050565b7f455243313135353a206d696e7420746f20746865207a65726f2061646472657360008201527f7300000000000000000000000000000000000000000000000000000000000000602082015250565b600062000649602183620005da565b91506200065682620005eb565b604082019050919050565b600060208201905081810360008301526200067c816200063a565b9050919050565b6000819050919050565b7f4e487b7100000000000000000000000000000000000000000000000000000000600052601160045260246000fd5b6000620006c98262000683565b9150620006d68362000683565b9250827fffffffffffffffffffffffffffffffffffffffffffffffffffffffffffffffff038211156200070e576200070d6200068d565b5b828201905092915050565b620007248162000683565b82525050565b600060408201905062000741600083018562000719565b62000750602083018462000719565b9392505050565b7f4e487b7100000000000000000000000000000000000000000000000000000000600052604160045260246000fd5b7f4e487b7100000000000000000000000000000000000000000000000000000000600052603260045260246000fd5b600073ffffffffffffffffffffffffffffffffffffffff82169050919050565b6000620007e282620007b5565b9050919050565b620007f481620007d5565b82525050565b600081519050919050565b600082825260208201905092915050565b60005b838110156200083657808201518184015260208101905062000819565b8381111562000846576000848401525b50505050565b6000601f19601f8301169050919050565b60006200086a82620007fa565b62000876818562000805565b93506200088881856020860162000816565b62000893816200084c565b840191505092915050565b600060a082019050620008b56000830188620007e9565b620008c46020830187620007e9565b620008d3604083018662000719565b620008e2606083018562000719565b8181036080830152620008f681846200085d565b90509695505050505050565b6000604051905090565b600080fd5b60007fffffffff0000000000000000000000000000000000000000000000000000000082169050919050565b620009488162000911565b81146200095457600080fd5b50565b60008151905062000968816200093d565b92915050565b6000602082840312156200098757620009866200090c565b5b6000620009978482850162000957565b91505092915050565b60008160e01c9050919050565b600060033d1115620009cf5760046000803e620009cc600051620009a0565b90505b90565b620009dd826200084c565b810181811067ffffffffffffffff82111715620009ff57620009fe62000757565b5b80604052505050565b600060443d101562000a1a5762000aa7565b62000a2462000902565b60043d036004823e80513d602482011167ffffffffffffffff8211171562000a4e57505062000aa7565b808201805167ffffffffffffffff81111562000a6e575050505062000aa7565b80602083010160043d03850181111562000a8d57505050505062000aa7565b62000a9e82602001850186620009d2565b82955050505050505b90565b600081519050919050565b600062000ac28262000aaa565b62000ace8185620005da565b935062000ae081856020860162000816565b62000aeb816200084c565b840191505092915050565b6000602082019050818103600083015262000b12818462000ab5565b905092915050565b7f455243313135353a207472616e7366657220746f206e6f6e204552433131353560008201527f526563656976657220696d706c656d656e746572000000000000000000000000602082015250565b600062000b78603483620005da565b915062000b858262000b1a565b604082019050919050565b6000602082019050818103600083015262000bab8162000b69565b9050919050565b7f455243313135353a204552433131353552656365697665722072656a6563746560008201527f6420746f6b656e73000000000000000000000000000000000000000000000000602082015250565b600062000c10602883620005da565b915062000c1d8262000bb2565b604082019050919050565b6000602082019050818103600083015262000c438162000c01565b9050919050565b7f4e487b7100000000000000000000000000000000000000000000000000000000600052602260045260246000fd5b6000600282049050600182168062000c9257607f821691505b6020821081141562000ca95762000ca862000c4a565b5b50919050565b613cb08062000cbf6000396000f3fe608060405234801561001057600080fd5b50600436106101415760003560e01c80639959c72b116100b8578063d547741f1161007c578063d547741f1461039c578063e2915711146103b8578063e985e9c5146103c2578063eaa79dce146103f2578063f242432a146103fc578063fa260da41461041857610141565b80639959c72b14610308578063a217fddf14610326578063a22cb46514610344578063c812a21514610360578063ce606ee01461037e57610141565b80632eb2c2d61161010a5780632eb2c2d6146102245780632f2ff15d1461024057806336568abe1461025c5780633a61738d146102785780634e1273f4146102a857806391d14854146102d857610141565b8062fdd58e1461014657806301ffc9a7146101765780630e89341c146101a657806313119161146101d6578063248a9ca3146101f4575b600080fd5b610160600480360381019061015b919061242b565b610436565b60405161016d919061247a565b60405180910390f35b610190600480360381019061018b91906124ed565b6104ff565b60405161019d9190612535565b60405180910390f35b6101c060048036038101906101bb9190612550565b610511565b6040516101cd9190612616565b60405180910390f35b6101de6105a5565b6040516101eb9190612651565b60405180910390f35b61020e60048036038101906102099190612698565b6105c9565b60405161021b9190612651565b60405180910390f35b61023e600480360381019061023991906128c2565b6105e9565b005b61025a60048036038101906102559190612991565b61068a565b005b61027660048036038101906102719190612991565b6106b3565b005b610292600480360381019061028d91906129d1565b610736565b60405161029f919061247a565b60405180910390f35b6102c260048036038101906102bd9190612ac1565b61086b565b6040516102cf9190612bf7565b60405180910390f35b6102f260048036038101906102ed9190612991565b610984565b6040516102ff9190612535565b60405180910390f35b6103106109ef565b60405161031d919061247a565b60405180910390f35b61032e6109f4565b60405161033b9190612651565b60405180910390f35b61035e60048036038101906103599190612c45565b6109fb565b005b610368610a11565b6040516103759190612651565b60405180910390f35b610386610a35565b6040516103939190612c94565b60405180910390f35b6103b660048036038101906103b19190612991565b610a5b565b005b6103c0610a84565b005b6103dc60048036038101906103d79190612caf565b610d41565b6040516103e99190612535565b60405180910390f35b6103fa610dd5565b005b61041660048036038101906104119190612cef565b610f53565b005b610420610ff4565b60405161042d919061247a565b60405180910390f35b60008073ffffffffffffffffffffffffffffffffffffffff168373ffffffffffffffffffffffffffffffffffffffff1614156104a7576040517f08c379a000000000000000000000000000000000000000000000000000000000815260040161049e90612df8565b60405180910390fd5b60008083815260200190815260200160002060008473ffffffffffffffffffffffffffffffffffffffff1673ffffffffffffffffffffffffffffffffffffffff16815260200190815260200160002054905092915050565b600061050a8261100c565b9050919050565b60606002805461052090612e47565b80601f016020809104026020016040519081016040528092919081815260200182805461054c90612e47565b80156105995780601f1061056e57610100808354040283529160200191610599565b820191906000526020600020905b81548152906001019060200180831161057c57829003601f168201915b50505050509050919050565b7f14823911f2da1b49f045a0929a60b8c1f2a7fc8c06c7284ca3e8ab4e193a08c881565b600060036000838152602001908152602001600020600101549050919050565b6105f1611086565b73ffffffffffffffffffffffffffffffffffffffff168573ffffffffffffffffffffffffffffffffffffffff161480610637575061063685610631611086565b610d41565b5b610676576040517f08c379a000000000000000000000000000000000000000000000000000000000815260040161066d90612eeb565b60405180910390fd5b610683858585858561108e565b5050505050565b610693826105c9565b6106a48161069f611086565b6113a2565b6106ae838361143f565b505050565b6106bb611086565b73ffffffffffffffffffffffffffffffffffffffff168173ffffffffffffffffffffffffffffffffffffffff1614610728576040517f08c379a000000000000000000000000000000000000000000000000000000000815260040161071f90612f7d565b60405180910390fd5b6107328282611520565b5050565b6000806107cf670de0b6b3a76400003073ffffffffffffffffffffffffffffffffffffffff1662fdd58e8660006040518363ffffffff1660e01b8152600401610780929190612f9d565b602060405180830381865afa15801561079d573d6000803e3d6000fd5b505050506040513d601f19601f820116820180604052508101906107c19190612fdb565b61160290919063ffffffff16565b905060018110156107e4576000915050610866565b6000610838600560008673ffffffffffffffffffffffffffffffffffffffff1673ffffffffffffffffffffffffffffffffffffffff168152602001908152602001600020544361161890919063ffffffff16565b9050610861816108536103e88561162e90919063ffffffff16565b61160290919063ffffffff16565b925050505b919050565b606081518351146108b1576040517f08c379a00000000000000000000000000000000000000000000000000000000081526004016108a89061307a565b60405180910390fd5b6000835167ffffffffffffffff8111156108ce576108cd6126ca565b5b6040519080825280602002602001820160405280156108fc5781602001602082028036833780820191505090505b50905060005b8451811015610979576109498582815181106109215761092061309a565b5b602002602001015185838151811061093c5761093b61309a565b5b6020026020010151610436565b82828151811061095c5761095b61309a565b5b60200260200101818152505080610972906130f8565b9050610902565b508091505092915050565b60006003600084815260200190815260200160002060000160008373ffffffffffffffffffffffffffffffffffffffff1673ffffffffffffffffffffffffffffffffffffffff16815260200190815260200160002060009054906101000a900460ff16905092915050565b600181565b6000801b81565b610a0d610a06611086565b8383611644565b5050565b7f8d6b526d6b13eab5a67762424267752264b236dd46b48a705b5b5249049123f781565b600460009054906101000a900473ffffffffffffffffffffffffffffffffffffffff1681565b610a64826105c9565b610a7581610a70611086565b6113a2565b610a7f8383611520565b505050565b60003073ffffffffffffffffffffffffffffffffffffffff1662fdd58e600460009054906101000a900473ffffffffffffffffffffffffffffffffffffffff1660006040518363ffffffff1660e01b8152600401610ae3929190612f9d565b602060405180830381865afa158015610b00573d6000803e3d6000fd5b505050506040513d601f19601f82011682018060405250810190610b249190612fdb565b1015610b65576040517f08c379a0000000000000000000000000000000000000000000000000000000008152600401610b5c9061318d565b60405180910390fd5b60003073ffffffffffffffffffffffffffffffffffffffff1662fdd58e3360006040518363ffffffff1660e01b8152600401610ba2929190612f9d565b602060405180830381865afa158015610bbf573d6000803e3d6000fd5b505050506040513d601f19601f82011682018060405250810190610be39190612fdb565b9050610c25600460009054906101000a900473ffffffffffffffffffffffffffffffffffffffff163360006001604051806020016040528060008152506117b1565b6000811415610c735743600560003373ffffffffffffffffffffffffffffffffffffffff1673ffffffffffffffffffffffffffffffffffffffff168152602001908152602001600020819055505b3073ffffffffffffffffffffffffffffffffffffffff166391d148547f14823911f2da1b49f045a0929a60b8c1f2a7fc8c06c7284ca3e8ab4e193a08c8336040518363ffffffff1660e01b8152600401610cce9291906131ad565b602060405180830381865afa158015610ceb573d6000803e3d6000fd5b505050506040513d601f19601f82011682018060405250810190610d0f91906131eb565b610d3e57610d3d7f14823911f2da1b49f045a0929a60b8c1f2a7fc8c06c7284ca3e8ab4e193a08c83361143f565b5b50565b6000600160008473ffffffffffffffffffffffffffffffffffffffff1673ffffffffffffffffffffffffffffffffffffffff16815260200190815260200160002060008373ffffffffffffffffffffffffffffffffffffffff1673ffffffffffffffffffffffffffffffffffffffff16815260200190815260200160002060009054906101000a900460ff16905092915050565b6000610de033610736565b905060008111610e25576040517f08c379a0000000000000000000000000000000000000000000000000000000008152600401610e1c90613264565b60405180910390fd5b610e413360018360405180602001604052806000815250611a33565b43600560003373ffffffffffffffffffffffffffffffffffffffff1673ffffffffffffffffffffffffffffffffffffffff168152602001908152602001600020819055503073ffffffffffffffffffffffffffffffffffffffff166391d148547f8d6b526d6b13eab5a67762424267752264b236dd46b48a705b5b5249049123f7336040518363ffffffff1660e01b8152600401610ee09291906131ad565b602060405180830381865afa158015610efd573d6000803e3d6000fd5b505050506040513d601f19601f82011682018060405250810190610f2191906131eb565b610f5057610f4f7f8d6b526d6b13eab5a67762424267752264b236dd46b48a705b5b5249049123f73361143f565b5b50565b610f5b611086565b73ffffffffffffffffffffffffffffffffffffffff168573ffffffffffffffffffffffffffffffffffffffff161480610fa15750610fa085610f9b611086565b610d41565b5b610fe0576040517f08c379a0000000000000000000000000000000000000000000000000000000008152600401610fd7906132f6565b60405180910390fd5b610fed85858585856117b1565b5050505050565b600081565b600080823b905060008111915050919050565b60007f7965db0b000000000000000000000000000000000000000000000000000000007bffffffffffffffffffffffffffffffffffffffffffffffffffffffff1916827bffffffffffffffffffffffffffffffffffffffffffffffffffffffff1916148061107f575061107e82611bc9565b5b9050919050565b600033905090565b81518351146110d2576040517f08c379a00000000000000000000000000000000000000000000000000000000081526004016110c990613388565b60405180910390fd5b600073ffffffffffffffffffffffffffffffffffffffff168473ffffffffffffffffffffffffffffffffffffffff161415611142576040517f08c379a00000000000000000000000000000000000000000000000000000000081526004016111399061341a565b60405180910390fd5b600061114c611086565b905061115c818787878787611cab565b60005b845181101561130d57600085828151811061117d5761117c61309a565b5b60200260200101519050600085838151811061119c5761119b61309a565b5b60200260200101519050600080600084815260200190815260200160002060008b73ffffffffffffffffffffffffffffffffffffffff1673ffffffffffffffffffffffffffffffffffffffff1681526020019081526020016000205490508181101561123d576040517f08c379a0000000000000000000000000000000000000000000000000000000008152600401611234906134ac565b60405180910390fd5b81810360008085815260200190815260200160002060008c73ffffffffffffffffffffffffffffffffffffffff1673ffffffffffffffffffffffffffffffffffffffff168152602001908152602001600020819055508160008085815260200190815260200160002060008b73ffffffffffffffffffffffffffffffffffffffff1673ffffffffffffffffffffffffffffffffffffffff16815260200190815260200160002060008282546112f291906134cc565b9250508190555050505080611306906130f8565b905061115f565b508473ffffffffffffffffffffffffffffffffffffffff168673ffffffffffffffffffffffffffffffffffffffff168273ffffffffffffffffffffffffffffffffffffffff167f4a39dc06d4c0dbc64b70af90fd698a233a518aa5d07e595d983b8c0526c8f7fb8787604051611384929190613522565b60405180910390a461139a818787878787611cb3565b505050505050565b6113ac8282610984565b61143b576113d18173ffffffffffffffffffffffffffffffffffffffff166014611e8b565b6113df8360001c6020611e8b565b6040516020016113f092919061362d565b6040516020818303038152906040526040517f08c379a00000000000000000000000000000000000000000000000000000000081526004016114329190612616565b60405180910390fd5b5050565b6114498282610984565b61151c5760016003600084815260200190815260200160002060000160008373ffffffffffffffffffffffffffffffffffffffff1673ffffffffffffffffffffffffffffffffffffffff16815260200190815260200160002060006101000a81548160ff0219169083151502179055506114c1611086565b73ffffffffffffffffffffffffffffffffffffffff168173ffffffffffffffffffffffffffffffffffffffff16837f2f8788117e7eff1d82e926ec794901d17c78024a50270940304540a733656f0d60405160405180910390a45b5050565b61152a8282610984565b156115fe5760006003600084815260200190815260200160002060000160008373ffffffffffffffffffffffffffffffffffffffff1673ffffffffffffffffffffffffffffffffffffffff16815260200190815260200160002060006101000a81548160ff0219169083151502179055506115a3611086565b73ffffffffffffffffffffffffffffffffffffffff168173ffffffffffffffffffffffffffffffffffffffff16837ff6391f5c32d9c69d2a47ea670b442974b53935d1edc7fd64eb21e047a839171b60405160405180910390a45b5050565b600081836116109190613667565b905092915050565b6000818361162691906136c1565b905092915050565b6000818361163c9190613724565b905092915050565b8173ffffffffffffffffffffffffffffffffffffffff168373ffffffffffffffffffffffffffffffffffffffff1614156116b3576040517f08c379a00000000000000000000000000000000000000000000000000000000081526004016116aa906137c7565b60405180910390fd5b80600160008573ffffffffffffffffffffffffffffffffffffffff1673ffffffffffffffffffffffffffffffffffffffff16815260200190815260200160002060008473ffffffffffffffffffffffffffffffffffffffff1673ffffffffffffffffffffffffffffffffffffffff16815260200190815260200160002060006101000a81548160ff0219169083151502179055508173ffffffffffffffffffffffffffffffffffffffff168373ffffffffffffffffffffffffffffffffffffffff167f17307eab39ab6107e8899845ad3d59bd9653f200f220920489ca2b5937696c31836040516117a49190612535565b60405180910390a3505050565b600073ffffffffffffffffffffffffffffffffffffffff168473ffffffffffffffffffffffffffffffffffffffff161415611821576040517f08c379a00000000000000000000000000000000000000000000000000000000081526004016118189061341a565b60405180910390fd5b600061182b611086565b905061184b81878761183c886120c7565b611845886120c7565b87611cab565b600080600086815260200190815260200160002060008873ffffffffffffffffffffffffffffffffffffffff1673ffffffffffffffffffffffffffffffffffffffff168152602001908152602001600020549050838110156118e2576040517f08c379a00000000000000000000000000000000000000000000000000000000081526004016118d9906134ac565b60405180910390fd5b83810360008087815260200190815260200160002060008973ffffffffffffffffffffffffffffffffffffffff1673ffffffffffffffffffffffffffffffffffffffff168152602001908152602001600020819055508360008087815260200190815260200160002060008873ffffffffffffffffffffffffffffffffffffffff1673ffffffffffffffffffffffffffffffffffffffff168152602001908152602001600020600082825461199791906134cc565b925050819055508573ffffffffffffffffffffffffffffffffffffffff168773ffffffffffffffffffffffffffffffffffffffff168373ffffffffffffffffffffffffffffffffffffffff167fc3d58168c5ae7397731d063d5bbf3d657854427343f4c083240f7aacaa2d0f628888604051611a149291906137e7565b60405180910390a4611a2a828888888888612141565b50505050505050565b600073ffffffffffffffffffffffffffffffffffffffff168473ffffffffffffffffffffffffffffffffffffffff161415611aa3576040517f08c379a0000000000000000000000000000000000000000000000000000000008152600401611a9a90613882565b60405180910390fd5b6000611aad611086565b9050611ace81600087611abf886120c7565b611ac8886120c7565b87611cab565b8260008086815260200190815260200160002060008773ffffffffffffffffffffffffffffffffffffffff1673ffffffffffffffffffffffffffffffffffffffff1681526020019081526020016000206000828254611b2d91906134cc565b925050819055508473ffffffffffffffffffffffffffffffffffffffff16600073ffffffffffffffffffffffffffffffffffffffff168273ffffffffffffffffffffffffffffffffffffffff167fc3d58168c5ae7397731d063d5bbf3d657854427343f4c083240f7aacaa2d0f628787604051611bab9291906137e7565b60405180910390a4611bc281600087878787612141565b5050505050565b60007fd9b67a26000000000000000000000000000000000000000000000000000000007bffffffffffffffffffffffffffffffffffffffffffffffffffffffff1916827bffffffffffffffffffffffffffffffffffffffffffffffffffffffff19161480611c9457507f0e89341c000000000000000000000000000000000000000000000000000000007bffffffffffffffffffffffffffffffffffffffffffffffffffffffff1916827bffffffffffffffffffffffffffffffffffffffffffffffffffffffff1916145b80611ca45750611ca382612319565b5b9050919050565b505050505050565b611cd28473ffffffffffffffffffffffffffffffffffffffff16610ff9565b15611e83578373ffffffffffffffffffffffffffffffffffffffff1663bc197c8187878686866040518663ffffffff1660e01b8152600401611d189594939291906138f7565b6020604051808303816000875af1925050508015611d5457506040513d601f19601f82011682018060405250810190611d519190613974565b60015b611dfa57611d606139ae565b806308c379a01415611dbd5750611d756139d0565b80611d805750611dbf565b806040517f08c379a0000000000000000000000000000000000000000000000000000000008152600401611db49190612616565b60405180910390fd5b505b6040517f08c379a0000000000000000000000000000000000000000000000000000000008152600401611df190613ad8565b60405180910390fd5b63bc197c8160e01b7bffffffffffffffffffffffffffffffffffffffffffffffffffffffff1916817bffffffffffffffffffffffffffffffffffffffffffffffffffffffff191614611e81576040517f08c379a0000000000000000000000000000000000000000000000000000000008152600401611e7890613b6a565b60405180910390fd5b505b505050505050565b606060006002836002611e9e9190613667565b611ea891906134cc565b67ffffffffffffffff811115611ec157611ec06126ca565b5b6040519080825280601f01601f191660200182016040528015611ef35781602001600182028036833780820191505090505b5090507f300000000000000000000000000000000000000000000000000000000000000081600081518110611f2b57611f2a61309a565b5b60200101907effffffffffffffffffffffffffffffffffffffffffffffffffffffffffffff1916908160001a9053507f780000000000000000000000000000000000000000000000000000000000000081600181518110611f8f57611f8e61309a565b5b60200101907effffffffffffffffffffffffffffffffffffffffffffffffffffffffffffff1916908160001a90535060006001846002611fcf9190613667565b611fd991906134cc565b90505b6001811115612079577f3031323334353637383961626364656600000000000000000000000000000000600f86166010811061201b5761201a61309a565b5b1a60f81b8282815181106120325761203161309a565b5b60200101907effffffffffffffffffffffffffffffffffffffffffffffffffffffffffffff1916908160001a905350600485901c94508061207290613b8a565b9050611fdc565b50600084146120bd576040517f08c379a00000000000000000000000000000000000000000000000000000000081526004016120b490613c00565b60405180910390fd5b8091505092915050565b60606000600167ffffffffffffffff8111156120e6576120e56126ca565b5b6040519080825280602002602001820160405280156121145781602001602082028036833780820191505090505b509050828160008151811061212c5761212b61309a565b5b60200260200101818152505080915050919050565b6121608473ffffffffffffffffffffffffffffffffffffffff16610ff9565b15612311578373ffffffffffffffffffffffffffffffffffffffff1663f23a6e6187878686866040518663ffffffff1660e01b81526004016121a6959493929190613c20565b6020604051808303816000875af19250505080156121e257506040513d601f19601f820116820180604052508101906121df9190613974565b60015b612288576121ee6139ae565b806308c379a0141561224b57506122036139d0565b8061220e575061224d565b806040517f08c379a00000000000000000000000000000000000000000000000000000000081526004016122429190612616565b60405180910390fd5b505b6040517f08c379a000000000000000000000000000000000000000000000000000000000815260040161227f90613ad8565b60405180910390fd5b63f23a6e6160e01b7bffffffffffffffffffffffffffffffffffffffffffffffffffffffff1916817bffffffffffffffffffffffffffffffffffffffffffffffffffffffff19161461230f576040517f08c379a000000000000000000000000000000000000000000000000000000000815260040161230690613b6a565b60405180910390fd5b505b505050505050565b60007f01ffc9a7000000000000000000000000000000000000000000000000000000007bffffffffffffffffffffffffffffffffffffffffffffffffffffffff1916827bffffffffffffffffffffffffffffffffffffffffffffffffffffffff1916149050919050565b6000604051905090565b600080fd5b600080fd5b600073ffffffffffffffffffffffffffffffffffffffff82169050919050565b60006123c282612397565b9050919050565b6123d2816123b7565b81146123dd57600080fd5b50565b6000813590506123ef816123c9565b92915050565b6000819050919050565b612408816123f5565b811461241357600080fd5b50565b600081359050612425816123ff565b92915050565b600080604083850312156124425761244161238d565b5b6000612450858286016123e0565b925050602061246185828601612416565b9150509250929050565b612474816123f5565b82525050565b600060208201905061248f600083018461246b565b92915050565b60007fffffffff0000000000000000000000000000000000000000000000000000000082169050919050565b6124ca81612495565b81146124d557600080fd5b50565b6000813590506124e7816124c1565b92915050565b6000602082840312156125035761250261238d565b5b6000612511848285016124d8565b91505092915050565b60008115159050919050565b61252f8161251a565b82525050565b600060208201905061254a6000830184612526565b92915050565b6000602082840312156125665761256561238d565b5b600061257484828501612416565b91505092915050565b600081519050919050565b600082825260208201905092915050565b60005b838110156125b757808201518184015260208101905061259c565b838111156125c6576000848401525b50505050565b6000601f19601f8301169050919050565b60006125e88261257d565b6125f28185612588565b9350612602818560208601612599565b61260b816125cc565b840191505092915050565b6000602082019050818103600083015261263081846125dd565b905092915050565b6000819050919050565b61264b81612638565b82525050565b60006020820190506126666000830184612642565b92915050565b61267581612638565b811461268057600080fd5b50565b6000813590506126928161266c565b92915050565b6000602082840312156126ae576126ad61238d565b5b60006126bc84828501612683565b91505092915050565b600080fd5b7f4e487b7100000000000000000000000000000000000000000000000000000000600052604160045260246000fd5b612702826125cc565b810181811067ffffffffffffffff82111715612721576127206126ca565b5b80604052505050565b6000612734612383565b905061274082826126f9565b919050565b600067ffffffffffffffff8211156127605761275f6126ca565b5b602082029050602081019050919050565b600080fd5b600061278961278484612745565b61272a565b905080838252602082019050602084028301858111156127ac576127ab612771565b5b835b818110156127d557806127c18882612416565b8452602084019350506020810190506127ae565b5050509392505050565b600082601f8301126127f4576127f36126c5565b5b8135612804848260208601612776565b91505092915050565b600080fd5b600067ffffffffffffffff82111561282d5761282c6126ca565b5b612836826125cc565b9050602081019050919050565b82818337600083830152505050565b600061286561286084612812565b61272a565b9050828152602081018484840111156128815761288061280d565b5b61288c848285612843565b509392505050565b600082601f8301126128a9576128a86126c5565b5b81356128b9848260208601612852565b91505092915050565b600080600080600060a086880312156128de576128dd61238d565b5b60006128ec888289016123e0565b95505060206128fd888289016123e0565b945050604086013567ffffffffffffffff81111561291e5761291d612392565b5b61292a888289016127df565b935050606086013567ffffffffffffffff81111561294b5761294a612392565b5b612957888289016127df565b925050608086013567ffffffffffffffff81111561297857612977612392565b5b61298488828901612894565b9150509295509295909350565b600080604083850312156129a8576129a761238d565b5b60006129b685828601612683565b92505060206129c7858286016123e0565b9150509250929050565b6000602082840312156129e7576129e661238d565b5b60006129f5848285016123e0565b91505092915050565b600067ffffffffffffffff821115612a1957612a186126ca565b5b602082029050602081019050919050565b6000612a3d612a38846129fe565b61272a565b90508083825260208201905060208402830185811115612a6057612a5f612771565b5b835b81811015612a895780612a7588826123e0565b845260208401935050602081019050612a62565b5050509392505050565b600082601f830112612aa857612aa76126c5565b5b8135612ab8848260208601612a2a565b91505092915050565b60008060408385031215612ad857612ad761238d565b5b600083013567ffffffffffffffff811115612af657612af5612392565b5b612b0285828601612a93565b925050602083013567ffffffffffffffff811115612b2357612b22612392565b5b612b2f858286016127df565b9150509250929050565b600081519050919050565b600082825260208201905092915050565b6000819050602082019050919050565b612b6e816123f5565b82525050565b6000612b808383612b65565b60208301905092915050565b6000602082019050919050565b6000612ba482612b39565b612bae8185612b44565b9350612bb983612b55565b8060005b83811015612bea578151612bd18882612b74565b9750612bdc83612b8c565b925050600181019050612bbd565b5085935050505092915050565b60006020820190508181036000830152612c118184612b99565b905092915050565b612c228161251a565b8114612c2d57600080fd5b50565b600081359050612c3f81612c19565b92915050565b60008060408385031215612c5c57612c5b61238d565b5b6000612c6a858286016123e0565b9250506020612c7b85828601612c30565b9150509250929050565b612c8e816123b7565b82525050565b6000602082019050612ca96000830184612c85565b92915050565b60008060408385031215612cc657612cc561238d565b5b6000612cd4858286016123e0565b9250506020612ce5858286016123e0565b9150509250929050565b600080600080600060a08688031215612d0b57612d0a61238d565b5b6000612d19888289016123e0565b9550506020612d2a888289016123e0565b9450506040612d3b88828901612416565b9350506060612d4c88828901612416565b925050608086013567ffffffffffffffff811115612d6d57612d6c612392565b5b612d7988828901612894565b9150509295509295909350565b7f455243313135353a2062616c616e636520717565727920666f7220746865207a60008201527f65726f2061646472657373000000000000000000000000000000000000000000602082015250565b6000612de2602b83612588565b9150612ded82612d86565b604082019050919050565b60006020820190508181036000830152612e1181612dd5565b9050919050565b7f4e487b7100000000000000000000000000000000000000000000000000000000600052602260045260246000fd5b60006002820490506001821680612e5f57607f821691505b60208210811415612e7357612e72612e18565b5b50919050565b7f455243313135353a207472616e736665722063616c6c6572206973206e6f742060008201527f6f776e6572206e6f7220617070726f7665640000000000000000000000000000602082015250565b6000612ed5603283612588565b9150612ee082612e79565b604082019050919050565b60006020820190508181036000830152612f0481612ec8565b9050919050565b7f416363657373436f6e74726f6c3a2063616e206f6e6c792072656e6f756e636560008201527f20726f6c657320666f722073656c660000000000000000000000000000000000602082015250565b6000612f67602f83612588565b9150612f7282612f0b565b604082019050919050565b60006020820190508181036000830152612f9681612f5a565b9050919050565b6000604082019050612fb26000830185612c85565b612fbf602083018461246b565b9392505050565b600081519050612fd5816123ff565b92915050565b600060208284031215612ff157612ff061238d565b5b6000612fff84828501612fc6565b91505092915050565b7f455243313135353a206163636f756e747320616e6420696473206c656e67746860008201527f206d69736d617463680000000000000000000000000000000000000000000000602082015250565b6000613064602983612588565b915061306f82613008565b604082019050919050565b6000602082019050818103600083015261309381613057565b9050919050565b7f4e487b7100000000000000000000000000000000000000000000000000000000600052603260045260246000fd5b7f4e487b7100000000000000000000000000000000000000000000000000000000600052601160045260246000fd5b6000613103826123f5565b91507fffffffffffffffffffffffffffffffffffffffffffffffffffffffffffffffff821415613136576131356130c9565b5b600182019050919050565b7f4e6f204e4654206c656674000000000000000000000000000000000000000000600082015250565b6000613177600b83612588565b915061318282613141565b602082019050919050565b600060208201905081810360008301526131a68161316a565b9050919050565b60006040820190506131c26000830185612642565b6131cf6020830184612c85565b9392505050565b6000815190506131e581612c19565b92915050565b6000602082840312156132015761320061238d565b5b600061320f848285016131d6565b91505092915050565b7f4e6f7468696e6720746f20636c61696d00000000000000000000000000000000600082015250565b600061324e601083612588565b915061325982613218565b602082019050919050565b6000602082019050818103600083015261327d81613241565b9050919050565b7f455243313135353a2063616c6c6572206973206e6f74206f776e6572206e6f7260008201527f20617070726f7665640000000000000000000000000000000000000000000000602082015250565b60006132e0602983612588565b91506132eb82613284565b604082019050919050565b6000602082019050818103600083015261330f816132d3565b9050919050565b7f455243313135353a2069647320616e6420616d6f756e7473206c656e6774682060008201527f6d69736d61746368000000000000000000000000000000000000000000000000602082015250565b6000613372602883612588565b915061337d82613316565b604082019050919050565b600060208201905081810360008301526133a181613365565b9050919050565b7f455243313135353a207472616e7366657220746f20746865207a65726f20616460008201527f6472657373000000000000000000000000000000000000000000000000000000602082015250565b6000613404602583612588565b915061340f826133a8565b604082019050919050565b60006020820190508181036000830152613433816133f7565b9050919050565b7f455243313135353a20696e73756666696369656e742062616c616e636520666f60008201527f72207472616e7366657200000000000000000000000000000000000000000000602082015250565b6000613496602a83612588565b91506134a18261343a565b604082019050919050565b600060208201905081810360008301526134c581613489565b9050919050565b60006134d7826123f5565b91506134e2836123f5565b9250827fffffffffffffffffffffffffffffffffffffffffffffffffffffffffffffffff03821115613517576135166130c9565b5b828201905092915050565b6000604082019050818103600083015261353c8185612b99565b905081810360208301526135508184612b99565b90509392505050565b600081905092915050565b7f416363657373436f6e74726f6c3a206163636f756e7420000000000000000000600082015250565b600061359a601783613559565b91506135a582613564565b601782019050919050565b60006135bb8261257d565b6135c58185613559565b93506135d5818560208601612599565b80840191505092915050565b7f206973206d697373696e6720726f6c6520000000000000000000000000000000600082015250565b6000613617601183613559565b9150613622826135e1565b601182019050919050565b60006136388261358d565b915061364482856135b0565b915061364f8261360a565b915061365b82846135b0565b91508190509392505050565b6000613672826123f5565b915061367d836123f5565b9250817fffffffffffffffffffffffffffffffffffffffffffffffffffffffffffffffff04831182151516156136b6576136b56130c9565b5b828202905092915050565b60006136cc826123f5565b91506136d7836123f5565b9250828210156136ea576136e96130c9565b5b828203905092915050565b7f4e487b7100000000000000000000000000000000000000000000000000000000600052601260045260246000fd5b600061372f826123f5565b915061373a836123f5565b92508261374a576137496136f5565b5b828204905092915050565b7f455243313135353a2073657474696e6720617070726f76616c2073746174757360008201527f20666f722073656c660000000000000000000000000000000000000000000000602082015250565b60006137b1602983612588565b91506137bc82613755565b604082019050919050565b600060208201905081810360008301526137e0816137a4565b9050919050565b60006040820190506137fc600083018561246b565b613809602083018461246b565b9392505050565b7f455243313135353a206d696e7420746f20746865207a65726f2061646472657360008201527f7300000000000000000000000000000000000000000000000000000000000000602082015250565b600061386c602183612588565b915061387782613810565b604082019050919050565b6000602082019050818103600083015261389b8161385f565b9050919050565b600081519050919050565b600082825260208201905092915050565b60006138c9826138a2565b6138d381856138ad565b93506138e3818560208601612599565b6138ec816125cc565b840191505092915050565b600060a08201905061390c6000830188612c85565b6139196020830187612c85565b818103604083015261392b8186612b99565b9050818103606083015261393f8185612b99565b9050818103608083015261395381846138be565b90509695505050505050565b60008151905061396e816124c1565b92915050565b60006020828403121561398a5761398961238d565b5b60006139988482850161395f565b91505092915050565b60008160e01c9050919050565b600060033d11156139cd5760046000803e6139ca6000516139a1565b90505b90565b600060443d10156139e057613a63565b6139e8612383565b60043d036004823e80513d602482011167ffffffffffffffff82111715613a10575050613a63565b808201805167ffffffffffffffff811115613a2e5750505050613a63565b80602083010160043d038501811115613a4b575050505050613a63565b613a5a826020018501866126f9565b82955050505050505b90565b7f455243313135353a207472616e7366657220746f206e6f6e204552433131353560008201527f526563656976657220696d706c656d656e746572000000000000000000000000602082015250565b6000613ac2603483612588565b9150613acd82613a66565b604082019050919050565b60006020820190508181036000830152613af181613ab5565b9050919050565b7f455243313135353a204552433131353552656365697665722072656a6563746560008201527f6420746f6b656e73000000000000000000000000000000000000000000000000602082015250565b6000613b54602883612588565b9150613b5f82613af8565b604082019050919050565b60006020820190508181036000830152613b8381613b47565b9050919050565b6000613b95826123f5565b91506000821415613ba957613ba86130c9565b5b600182039050919050565b7f537472696e67733a20686578206c656e67746820696e73756666696369656e74600082015250565b6000613bea602083612588565b9150613bf582613bb4565b602082019050919050565b60006020820190508181036000830152613c1981613bdd565b9050919050565b600060a082019050613c356000830188612c85565b613c426020830187612c85565b613c4f604083018661246b565b613c5c606083018561246b565b8181036080830152613c6e81846138be565b9050969550505050505056fea26469706673582212209f930651f5511e9b3743df62c25778ccebcd7f4404e40eedb29e383525f4ceea64736f6c634300080a003368747470733a2f2f6261667962656961617a77703465346667756b646c6b666b6d786c3333666a3333706f716f6f66797677777a616b61336573727a647073327972342e697066732e647765622e6c696e6b2f302e6a736f6e",
  "immutableReferences": {},
  "source": "// SPDX-License-Identifier: MIT\npragma solidity ^0.8.10;\n\nimport \"@openzeppelin/contracts/token/ERC1155/ERC1155.sol\";\nimport \"@openzeppelin/contracts/utils/Strings.sol\";\nimport \"@openzeppelin/contracts/utils/math/SafeMath.sol\";\nimport \"@openzeppelin/contracts/access/AccessControl.sol\";\n\ncontract Razor is ERC1155, AccessControl {\n    using SafeMath for uint256;\n    address public contractOwner = msg.sender;\n    uint256 public constant RAZOR = 0;\n    uint256 public constant RZR = 1;\n    bytes32 public constant USER_ROLE = keccak256(\"USER_ROLE\");\n    bytes32 public constant GROUP_ROLE = keccak256(\"GROUP_ROLE\");\n    mapping (address => uint256) private previusBlock;\n\n    mapping (uint256 => string) private _uris;\n\n    constructor() ERC1155(\"https://bafybeiaazwp4e4fgukdlkfkmxl33fj33poqoofyvwwzaka3esrzdps2yr4.ipfs.dweb.link/0.json\") {\n        _mint(msg.sender, RAZOR, 1000, \"\");\n    }\n\n    function supportsInterface(bytes4 interfaceId) public view virtual override(ERC1155, AccessControl) returns (bool) {\n        return super.supportsInterface(interfaceId);\n    }\n\n    function calcReward(address account) public view returns(uint256) {\n        uint256 balance = this.balanceOf(account, RAZOR).mul(10 ** 18);\n\n        if(balance < 1) {\n            return 0;\n        }\n\n        uint256 blockDiff = block.number.sub(previusBlock[account]);\n\n        return (balance.div(1000)).mul(blockDiff);\n    }\n\n    function faucetNFT() public {\n        require(this.balanceOf(contractOwner, RAZOR) >= 0, \"No NFT left\");\n\n        uint256 balanceSender = this.balanceOf(msg.sender, RAZOR);\n\n        _safeTransferFrom(contractOwner, msg.sender, RAZOR, 1, \"\");\n        if(balanceSender == 0) {\n            previusBlock[msg.sender] = block.number;\n        }\n\n        if(!this.hasRole(USER_ROLE, msg.sender)) {\n            _grantRole(USER_ROLE, msg.sender);\n        }\n    }\n\n    function mintRZR() public {\n        uint256 rewards = calcReward(msg.sender);\n\n        require(rewards > 0, \"Nothing to claim\");\n\n        _mint(msg.sender, RZR, rewards, \"\");\n        previusBlock[msg.sender] = block.number;\n\n        if(!this.hasRole(GROUP_ROLE, msg.sender)) {\n            _grantRole(GROUP_ROLE, msg.sender);\n        }\n    }\n}",
  "sourcePath": "/home/spielrs/Proyectos/razornft/contracts/Razor.sol",
  "compiler": {
    "name": "solc",
    "version": "0.8.10+commit.fc410830.Emscripten.clang"
  },
  "schemaVersion": "3.4.3",
  "updatedAt": "2021-12-22T01:18:22.787Z",
  "devdoc": {
    "kind": "dev",
    "methods": {
      "balanceOf(address,uint256)": {
        "details": "See {IERC1155-balanceOf}. Requirements: - `account` cannot be the zero address."
      },
      "balanceOfBatch(address[],uint256[])": {
        "details": "See {IERC1155-balanceOfBatch}. Requirements: - `accounts` and `ids` must have the same length."
      },
      "getRoleAdmin(bytes32)": {
        "details": "Returns the admin role that controls `role`. See {grantRole} and {revokeRole}. To change a role's admin, use {_setRoleAdmin}."
      },
      "grantRole(bytes32,address)": {
        "details": "Grants `role` to `account`. If `account` had not been already granted `role`, emits a {RoleGranted} event. Requirements: - the caller must have ``role``'s admin role."
      },
      "hasRole(bytes32,address)": {
        "details": "Returns `true` if `account` has been granted `role`."
      },
      "isApprovedForAll(address,address)": {
        "details": "See {IERC1155-isApprovedForAll}."
      },
      "renounceRole(bytes32,address)": {
        "details": "Revokes `role` from the calling account. Roles are often managed via {grantRole} and {revokeRole}: this function's purpose is to provide a mechanism for accounts to lose their privileges if they are compromised (such as when a trusted device is misplaced). If the calling account had been revoked `role`, emits a {RoleRevoked} event. Requirements: - the caller must be `account`."
      },
      "revokeRole(bytes32,address)": {
        "details": "Revokes `role` from `account`. If `account` had been granted `role`, emits a {RoleRevoked} event. Requirements: - the caller must have ``role``'s admin role."
      },
      "safeBatchTransferFrom(address,address,uint256[],uint256[],bytes)": {
        "details": "See {IERC1155-safeBatchTransferFrom}."
      },
      "safeTransferFrom(address,address,uint256,uint256,bytes)": {
        "details": "See {IERC1155-safeTransferFrom}."
      },
      "setApprovalForAll(address,bool)": {
        "details": "See {IERC1155-setApprovalForAll}."
      },
      "uri(uint256)": {
        "details": "See {IERC1155MetadataURI-uri}. This implementation returns the same URI for *all* token types. It relies on the token type ID substitution mechanism https://eips.ethereum.org/EIPS/eip-1155#metadata[defined in the EIP]. Clients calling this function must replace the `\\{id\\}` substring with the actual token type ID."
      }
    },
    "version": 1
  },
  "userdoc": {
    "kind": "user",
    "methods": {},
    "version": 1
  }
}