{
  "contractName": "Razor",
  "abi": [
    {
      "inputs": [],
      "stateMutability": "nonpayable",
      "type": "constructor"
    },
    {
      "anonymous": false,
      "inputs": [
        {
          "indexed": true,
          "internalType": "address",
          "name": "account",
          "type": "address"
        },
        {
          "indexed": true,
          "internalType": "address",
          "name": "operator",
          "type": "address"
        },
        {
          "indexed": false,
          "internalType": "bool",
          "name": "approved",
          "type": "bool"
        }
      ],
      "name": "ApprovalForAll",
      "type": "event"
    },
    {
      "anonymous": false,
      "inputs": [
        {
          "indexed": true,
          "internalType": "bytes32",
          "name": "role",
          "type": "bytes32"
        },
        {
          "indexed": true,
          "internalType": "bytes32",
          "name": "previousAdminRole",
          "type": "bytes32"
        },
        {
          "indexed": true,
          "internalType": "bytes32",
          "name": "newAdminRole",
          "type": "bytes32"
        }
      ],
      "name": "RoleAdminChanged",
      "type": "event"
    },
    {
      "anonymous": false,
      "inputs": [
        {
          "indexed": true,
          "internalType": "bytes32",
          "name": "role",
          "type": "bytes32"
        },
        {
          "indexed": true,
          "internalType": "address",
          "name": "account",
          "type": "address"
        },
        {
          "indexed": true,
          "internalType": "address",
          "name": "sender",
          "type": "address"
        }
      ],
      "name": "RoleGranted",
      "type": "event"
    },
    {
      "anonymous": false,
      "inputs": [
        {
          "indexed": true,
          "internalType": "bytes32",
          "name": "role",
          "type": "bytes32"
        },
        {
          "indexed": true,
          "internalType": "address",
          "name": "account",
          "type": "address"
        },
        {
          "indexed": true,
          "internalType": "address",
          "name": "sender",
          "type": "address"
        }
      ],
      "name": "RoleRevoked",
      "type": "event"
    },
    {
      "anonymous": false,
      "inputs": [
        {
          "indexed": true,
          "internalType": "address",
          "name": "operator",
          "type": "address"
        },
        {
          "indexed": true,
          "internalType": "address",
          "name": "from",
          "type": "address"
        },
        {
          "indexed": true,
          "internalType": "address",
          "name": "to",
          "type": "address"
        },
        {
          "indexed": false,
          "internalType": "uint256[]",
          "name": "ids",
          "type": "uint256[]"
        },
        {
          "indexed": false,
          "internalType": "uint256[]",
          "name": "values",
          "type": "uint256[]"
        }
      ],
      "name": "TransferBatch",
      "type": "event"
    },
    {
      "anonymous": false,
      "inputs": [
        {
          "indexed": true,
          "internalType": "address",
          "name": "operator",
          "type": "address"
        },
        {
          "indexed": true,
          "internalType": "address",
          "name": "from",
          "type": "address"
        },
        {
          "indexed": true,
          "internalType": "address",
          "name": "to",
          "type": "address"
        },
        {
          "indexed": false,
          "internalType": "uint256",
          "name": "id",
          "type": "uint256"
        },
        {
          "indexed": false,
          "internalType": "uint256",
          "name": "value",
          "type": "uint256"
        }
      ],
      "name": "TransferSingle",
      "type": "event"
    },
    {
      "anonymous": false,
      "inputs": [
        {
          "indexed": false,
          "internalType": "string",
          "name": "value",
          "type": "string"
        },
        {
          "indexed": true,
          "internalType": "uint256",
          "name": "id",
          "type": "uint256"
        }
      ],
      "name": "URI",
      "type": "event"
    },
    {
      "inputs": [],
      "name": "DEFAULT_ADMIN_ROLE",
      "outputs": [
        {
          "internalType": "bytes32",
          "name": "",
          "type": "bytes32"
        }
      ],
      "stateMutability": "view",
      "type": "function",
      "constant": true
    },
    {
      "inputs": [],
      "name": "GROUP_ROLE",
      "outputs": [
        {
          "internalType": "bytes32",
          "name": "",
          "type": "bytes32"
        }
      ],
      "stateMutability": "view",
      "type": "function",
      "constant": true
    },
    {
      "inputs": [],
      "name": "RAZOR",
      "outputs": [
        {
          "internalType": "uint256",
          "name": "",
          "type": "uint256"
        }
      ],
      "stateMutability": "view",
      "type": "function",
      "constant": true
    },
    {
      "inputs": [],
      "name": "RZR",
      "outputs": [
        {
          "internalType": "uint256",
          "name": "",
          "type": "uint256"
        }
      ],
      "stateMutability": "view",
      "type": "function",
      "constant": true
    },
    {
      "inputs": [],
      "name": "USER_ROLE",
      "outputs": [
        {
          "internalType": "bytes32",
          "name": "",
          "type": "bytes32"
        }
      ],
      "stateMutability": "view",
      "type": "function",
      "constant": true
    },
    {
      "inputs": [
        {
          "internalType": "address",
          "name": "account",
          "type": "address"
        },
        {
          "internalType": "uint256",
          "name": "id",
          "type": "uint256"
        }
      ],
      "name": "balanceOf",
      "outputs": [
        {
          "internalType": "uint256",
          "name": "",
          "type": "uint256"
        }
      ],
      "stateMutability": "view",
      "type": "function",
      "constant": true
    },
    {
      "inputs": [
        {
          "internalType": "address[]",
          "name": "accounts",
          "type": "address[]"
        },
        {
          "internalType": "uint256[]",
          "name": "ids",
          "type": "uint256[]"
        }
      ],
      "name": "balanceOfBatch",
      "outputs": [
        {
          "internalType": "uint256[]",
          "name": "",
          "type": "uint256[]"
        }
      ],
      "stateMutability": "view",
      "type": "function",
      "constant": true
    },
    {
      "inputs": [],
      "name": "contractOwner",
      "outputs": [
        {
          "internalType": "address",
          "name": "",
          "type": "address"
        }
      ],
      "stateMutability": "view",
      "type": "function",
      "constant": true
    },
    {
      "inputs": [
        {
          "internalType": "bytes32",
          "name": "role",
          "type": "bytes32"
        }
      ],
      "name": "getRoleAdmin",
      "outputs": [
        {
          "internalType": "bytes32",
          "name": "",
          "type": "bytes32"
        }
      ],
      "stateMutability": "view",
      "type": "function",
      "constant": true
    },
    {
      "inputs": [
        {
          "internalType": "bytes32",
          "name": "role",
          "type": "bytes32"
        },
        {
          "internalType": "address",
          "name": "account",
          "type": "address"
        }
      ],
      "name": "grantRole",
      "outputs": [],
      "stateMutability": "nonpayable",
      "type": "function"
    },
    {
      "inputs": [
        {
          "internalType": "bytes32",
          "name": "role",
          "type": "bytes32"
        },
        {
          "internalType": "address",
          "name": "account",
          "type": "address"
        }
      ],
      "name": "hasRole",
      "outputs": [
        {
          "internalType": "bool",
          "name": "",
          "type": "bool"
        }
      ],
      "stateMutability": "view",
      "type": "function",
      "constant": true
    },
    {
      "inputs": [
        {
          "internalType": "address",
          "name": "account",
          "type": "address"
        },
        {
          "internalType": "address",
          "name": "operator",
          "type": "address"
        }
      ],
      "name": "isApprovedForAll",
      "outputs": [
        {
          "internalType": "bool",
          "name": "",
          "type": "bool"
        }
      ],
      "stateMutability": "view",
      "type": "function",
      "constant": true
    },
    {
      "inputs": [
        {
          "internalType": "bytes32",
          "name": "role",
          "type": "bytes32"
        },
        {
          "internalType": "address",
          "name": "account",
          "type": "address"
        }
      ],
      "name": "renounceRole",
      "outputs": [],
      "stateMutability": "nonpayable",
      "type": "function"
    },
    {
      "inputs": [
        {
          "internalType": "bytes32",
          "name": "role",
          "type": "bytes32"
        },
        {
          "internalType": "address",
          "name": "account",
          "type": "address"
        }
      ],
      "name": "revokeRole",
      "outputs": [],
      "stateMutability": "nonpayable",
      "type": "function"
    },
    {
      "inputs": [
        {
          "internalType": "address",
          "name": "from",
          "type": "address"
        },
        {
          "internalType": "address",
          "name": "to",
          "type": "address"
        },
        {
          "internalType": "uint256[]",
          "name": "ids",
          "type": "uint256[]"
        },
        {
          "internalType": "uint256[]",
          "name": "amounts",
          "type": "uint256[]"
        },
        {
          "internalType": "bytes",
          "name": "data",
          "type": "bytes"
        }
      ],
      "name": "safeBatchTransferFrom",
      "outputs": [],
      "stateMutability": "nonpayable",
      "type": "function"
    },
    {
      "inputs": [
        {
          "internalType": "address",
          "name": "from",
          "type": "address"
        },
        {
          "internalType": "address",
          "name": "to",
          "type": "address"
        },
        {
          "internalType": "uint256",
          "name": "id",
          "type": "uint256"
        },
        {
          "internalType": "uint256",
          "name": "amount",
          "type": "uint256"
        },
        {
          "internalType": "bytes",
          "name": "data",
          "type": "bytes"
        }
      ],
      "name": "safeTransferFrom",
      "outputs": [],
      "stateMutability": "nonpayable",
      "type": "function"
    },
    {
      "inputs": [
        {
          "internalType": "address",
          "name": "operator",
          "type": "address"
        },
        {
          "internalType": "bool",
          "name": "approved",
          "type": "bool"
        }
      ],
      "name": "setApprovalForAll",
      "outputs": [],
      "stateMutability": "nonpayable",
      "type": "function"
    },
    {
      "inputs": [
        {
          "internalType": "uint256",
          "name": "",
          "type": "uint256"
        }
      ],
      "name": "uri",
      "outputs": [
        {
          "internalType": "string",
          "name": "",
          "type": "string"
        }
      ],
      "stateMutability": "view",
      "type": "function",
      "constant": true
    },
    {
      "inputs": [
        {
          "internalType": "bytes4",
          "name": "interfaceId",
          "type": "bytes4"
        }
      ],
      "name": "supportsInterface",
      "outputs": [
        {
          "internalType": "bool",
          "name": "",
          "type": "bool"
        }
      ],
      "stateMutability": "view",
      "type": "function",
      "constant": true
    },
    {
      "inputs": [
        {
          "internalType": "address",
          "name": "user",
          "type": "address"
        }
      ],
      "name": "faucetNFT",
      "outputs": [],
      "stateMutability": "nonpayable",
      "type": "function"
    },
    {
      "inputs": [],
      "name": "calcReward",
      "outputs": [
        {
          "internalType": "uint256",
          "name": "",
          "type": "uint256"
        }
      ],
      "stateMutability": "view",
      "type": "function",
      "constant": true
    },
    {
      "inputs": [],
      "name": "mintRZR",
      "outputs": [],
      "stateMutability": "nonpayable",
      "type": "function"
    }
  ],
  "bytecode": "0x608060405233600460006101000a81548173ffffffffffffffffffffffffffffffffffffffff021916908373ffffffffffffffffffffffffffffffffffffffff1602179055503480156200005257600080fd5b5060405180608001604052806059815260200162004801605991396200007e81620000ab60201b60201c565b50620000a53360006103e860405180602001604052806000815250620000c760201b60201c565b62000caf565b8060029080519060200190620000c39291906200052a565b5050565b600073ffffffffffffffffffffffffffffffffffffffff168473ffffffffffffffffffffffffffffffffffffffff1614156200013a576040517f08c379a0000000000000000000000000000000000000000000000000000000008152600401620001319062000661565b60405180910390fd5b60006200014c6200028c60201b60201c565b9050620001858160008762000167886200029460201b60201c565b62000178886200029460201b60201c565b876200031560201b60201c565b8260008086815260200190815260200160002060008773ffffffffffffffffffffffffffffffffffffffff1673ffffffffffffffffffffffffffffffffffffffff1681526020019081526020016000206000828254620001e69190620006bc565b925050819055508473ffffffffffffffffffffffffffffffffffffffff16600073ffffffffffffffffffffffffffffffffffffffff168273ffffffffffffffffffffffffffffffffffffffff167fc3d58168c5ae7397731d063d5bbf3d657854427343f4c083240f7aacaa2d0f628787604051620002669291906200072a565b60405180910390a462000285816000878787876200031d60201b60201c565b5050505050565b600033905090565b60606000600167ffffffffffffffff811115620002b657620002b562000757565b5b604051908082528060200260200182016040528015620002e55781602001602082028036833780820191505090505b50905082816000815181106200030057620002ff62000786565b5b60200260200101818152505080915050919050565b505050505050565b620003498473ffffffffffffffffffffffffffffffffffffffff166200051760201b62000e921760201c565b156200050f578373ffffffffffffffffffffffffffffffffffffffff1663f23a6e6187878686866040518663ffffffff1660e01b8152600401620003929594939291906200089e565b6020604051808303816000875af1925050508015620003d157506040513d601f19601f82011682018060405250810190620003ce91906200096e565b60015b6200048357620003e0620009ad565b806308c379a01415620004445750620003f862000a08565b8062000405575062000446565b806040517f08c379a00000000000000000000000000000000000000000000000000000000081526004016200043b919062000af6565b60405180910390fd5b505b6040517f08c379a00000000000000000000000000000000000000000000000000000000081526004016200047a9062000b90565b60405180910390fd5b63f23a6e6160e01b7bffffffffffffffffffffffffffffffffffffffffffffffffffffffff1916817bffffffffffffffffffffffffffffffffffffffffffffffffffffffff1916146200050d576040517f08c379a0000000000000000000000000000000000000000000000000000000008152600401620005049062000c28565b60405180910390fd5b505b505050505050565b600080823b905060008111915050919050565b828054620005389062000c79565b90600052602060002090601f0160209004810192826200055c5760008555620005a8565b82601f106200057757805160ff1916838001178555620005a8565b82800160010185558215620005a8579182015b82811115620005a75782518255916020019190600101906200058a565b5b509050620005b79190620005bb565b5090565b5b80821115620005d6576000816000905550600101620005bc565b5090565b600082825260208201905092915050565b7f455243313135353a206d696e7420746f20746865207a65726f2061646472657360008201527f7300000000000000000000000000000000000000000000000000000000000000602082015250565b600062000649602183620005da565b91506200065682620005eb565b604082019050919050565b600060208201905081810360008301526200067c816200063a565b9050919050565b6000819050919050565b7f4e487b7100000000000000000000000000000000000000000000000000000000600052601160045260246000fd5b6000620006c98262000683565b9150620006d68362000683565b9250827fffffffffffffffffffffffffffffffffffffffffffffffffffffffffffffffff038211156200070e576200070d6200068d565b5b828201905092915050565b620007248162000683565b82525050565b600060408201905062000741600083018562000719565b62000750602083018462000719565b9392505050565b7f4e487b7100000000000000000000000000000000000000000000000000000000600052604160045260246000fd5b7f4e487b7100000000000000000000000000000000000000000000000000000000600052603260045260246000fd5b600073ffffffffffffffffffffffffffffffffffffffff82169050919050565b6000620007e282620007b5565b9050919050565b620007f481620007d5565b82525050565b600081519050919050565b600082825260208201905092915050565b60005b838110156200083657808201518184015260208101905062000819565b8381111562000846576000848401525b50505050565b6000601f19601f8301169050919050565b60006200086a82620007fa565b62000876818562000805565b93506200088881856020860162000816565b62000893816200084c565b840191505092915050565b600060a082019050620008b56000830188620007e9565b620008c46020830187620007e9565b620008d3604083018662000719565b620008e2606083018562000719565b8181036080830152620008f681846200085d565b90509695505050505050565b6000604051905090565b600080fd5b60007fffffffff0000000000000000000000000000000000000000000000000000000082169050919050565b620009488162000911565b81146200095457600080fd5b50565b60008151905062000968816200093d565b92915050565b6000602082840312156200098757620009866200090c565b5b6000620009978482850162000957565b91505092915050565b60008160e01c9050919050565b600060033d1115620009cf5760046000803e620009cc600051620009a0565b90505b90565b620009dd826200084c565b810181811067ffffffffffffffff82111715620009ff57620009fe62000757565b5b80604052505050565b600060443d101562000a1a5762000aa7565b62000a2462000902565b60043d036004823e80513d602482011167ffffffffffffffff8211171562000a4e57505062000aa7565b808201805167ffffffffffffffff81111562000a6e575050505062000aa7565b80602083010160043d03850181111562000a8d57505050505062000aa7565b62000a9e82602001850186620009d2565b82955050505050505b90565b600081519050919050565b600062000ac28262000aaa565b62000ace8185620005da565b935062000ae081856020860162000816565b62000aeb816200084c565b840191505092915050565b6000602082019050818103600083015262000b12818462000ab5565b905092915050565b7f455243313135353a207472616e7366657220746f206e6f6e204552433131353560008201527f526563656976657220696d706c656d656e746572000000000000000000000000602082015250565b600062000b78603483620005da565b915062000b858262000b1a565b604082019050919050565b6000602082019050818103600083015262000bab8162000b69565b9050919050565b7f455243313135353a204552433131353552656365697665722072656a6563746560008201527f6420746f6b656e73000000000000000000000000000000000000000000000000602082015250565b600062000c10602883620005da565b915062000c1d8262000bb2565b604082019050919050565b6000602082019050818103600083015262000c438162000c01565b9050919050565b7f4e487b7100000000000000000000000000000000000000000000000000000000600052602260045260246000fd5b6000600282049050600182168062000c9257607f821691505b6020821081141562000ca95762000ca862000c4a565b5b50919050565b613b428062000cbf6000396000f3fe608060405234801561001057600080fd5b50600436106101415760003560e01c8063a217fddf116100b8578063ce606ee01161007c578063ce606ee014610388578063d547741f146103a6578063e985e9c5146103c2578063eaa79dce146103f2578063f242432a146103fc578063fa260da41461041857610141565b8063a217fddf146102f6578063a22cb46514610314578063c812a21514610330578063cb40bb5f1461034e578063cd9864101461036c57610141565b80632eb2c2d61161010a5780632eb2c2d6146102245780632f2ff15d1461024057806336568abe1461025c5780634e1273f41461027857806391d14854146102a85780639959c72b146102d857610141565b8062fdd58e1461014657806301ffc9a7146101765780630e89341c146101a657806313119161146101d6578063248a9ca3146101f4575b600080fd5b610160600480360381019061015b91906122d2565b610436565b60405161016d9190612321565b60405180910390f35b610190600480360381019061018b9190612394565b6104ff565b60405161019d91906123dc565b60405180910390f35b6101c060048036038101906101bb91906123f7565b610511565b6040516101cd91906124bd565b60405180910390f35b6101de6105a5565b6040516101eb91906124f8565b60405180910390f35b61020e6004803603810190610209919061253f565b6105c9565b60405161021b91906124f8565b60405180910390f35b61023e60048036038101906102399190612769565b6105e9565b005b61025a60048036038101906102559190612838565b61068a565b005b61027660048036038101906102719190612838565b6106b3565b005b610292600480360381019061028d919061293b565b610736565b60405161029f9190612a71565b60405180910390f35b6102c260048036038101906102bd9190612838565b61084f565b6040516102cf91906123dc565b60405180910390f35b6102e06108ba565b6040516102ed9190612321565b60405180910390f35b6102fe6108bf565b60405161030b91906124f8565b60405180910390f35b61032e60048036038101906103299190612abf565b6108c6565b005b6103386108dc565b60405161034591906124f8565b60405180910390f35b610356610900565b6040516103639190612321565b60405180910390f35b61038660048036038101906103819190612aff565b610a27565b005b610390610bcf565b60405161039d9190612b3b565b60405180910390f35b6103c060048036038101906103bb9190612838565b610bf5565b005b6103dc60048036038101906103d79190612b56565b610c1e565b6040516103e991906123dc565b60405180910390f35b6103fa610cb2565b005b61041660048036038101906104119190612b96565b610dec565b005b610420610e8d565b60405161042d9190612321565b60405180910390f35b60008073ffffffffffffffffffffffffffffffffffffffff168373ffffffffffffffffffffffffffffffffffffffff1614156104a7576040517f08c379a000000000000000000000000000000000000000000000000000000000815260040161049e90612c9f565b60405180910390fd5b60008083815260200190815260200160002060008473ffffffffffffffffffffffffffffffffffffffff1673ffffffffffffffffffffffffffffffffffffffff16815260200190815260200160002054905092915050565b600061050a82610ea5565b9050919050565b60606002805461052090612cee565b80601f016020809104026020016040519081016040528092919081815260200182805461054c90612cee565b80156105995780601f1061056e57610100808354040283529160200191610599565b820191906000526020600020905b81548152906001019060200180831161057c57829003601f168201915b50505050509050919050565b7f14823911f2da1b49f045a0929a60b8c1f2a7fc8c06c7284ca3e8ab4e193a08c881565b600060036000838152602001908152602001600020600101549050919050565b6105f1610f1f565b73ffffffffffffffffffffffffffffffffffffffff168573ffffffffffffffffffffffffffffffffffffffff161480610637575061063685610631610f1f565b610c1e565b5b610676576040517f08c379a000000000000000000000000000000000000000000000000000000000815260040161066d90612d92565b60405180910390fd5b6106838585858585610f27565b5050505050565b610693826105c9565b6106a48161069f610f1f565b61123b565b6106ae83836112d8565b505050565b6106bb610f1f565b73ffffffffffffffffffffffffffffffffffffffff168173ffffffffffffffffffffffffffffffffffffffff1614610728576040517f08c379a000000000000000000000000000000000000000000000000000000000815260040161071f90612e24565b60405180910390fd5b61073282826113b9565b5050565b6060815183511461077c576040517f08c379a000000000000000000000000000000000000000000000000000000000815260040161077390612eb6565b60405180910390fd5b6000835167ffffffffffffffff81111561079957610798612571565b5b6040519080825280602002602001820160405280156107c75781602001602082028036833780820191505090505b50905060005b8451811015610844576108148582815181106107ec576107eb612ed6565b5b602002602001015185838151811061080757610806612ed6565b5b6020026020010151610436565b82828151811061082757610826612ed6565b5b6020026020010181815250508061083d90612f34565b90506107cd565b508091505092915050565b60006003600084815260200190815260200160002060000160008373ffffffffffffffffffffffffffffffffffffffff1673ffffffffffffffffffffffffffffffffffffffff16815260200190815260200160002060009054906101000a900460ff16905092915050565b600181565b6000801b81565b6108d86108d1610f1f565b838361149b565b5050565b7f8d6b526d6b13eab5a67762424267752264b236dd46b48a705b5b5249049123f781565b6000803073ffffffffffffffffffffffffffffffffffffffff1662fdd58e3360006040518363ffffffff1660e01b815260040161093e929190612f7d565b602060405180830381865afa15801561095b573d6000803e3d6000fd5b505050506040513d601f19601f8201168201806040525081019061097f9190612fbb565b905060006109d5600560003373ffffffffffffffffffffffffffffffffffffffff1673ffffffffffffffffffffffffffffffffffffffff168152602001908152602001600020544361160890919063ffffffff16565b90506000821115806109e8575060008111155b156109f857600092505050610a24565b610a1f81610a116103e88561161e90919063ffffffff16565b61163490919063ffffffff16565b925050505b90565b3073ffffffffffffffffffffffffffffffffffffffff1663f242432a600460009054906101000a900473ffffffffffffffffffffffffffffffffffffffff1683600060016040518563ffffffff1660e01b8152600401610a8a9493929190613064565b600060405180830381600087803b158015610aa457600080fd5b505af1158015610ab8573d6000803e3d6000fd5b505050506000600560003373ffffffffffffffffffffffffffffffffffffffff1673ffffffffffffffffffffffffffffffffffffffff168152602001908152602001600020819055503073ffffffffffffffffffffffffffffffffffffffff166391d148547f14823911f2da1b49f045a0929a60b8c1f2a7fc8c06c7284ca3e8ab4e193a08c8836040518363ffffffff1660e01b8152600401610b5c9291906130bc565b602060405180830381865afa158015610b79573d6000803e3d6000fd5b505050506040513d601f19601f82011682018060405250810190610b9d91906130fa565b610bcc57610bcb7f14823911f2da1b49f045a0929a60b8c1f2a7fc8c06c7284ca3e8ab4e193a08c88261164a565b5b50565b600460009054906101000a900473ffffffffffffffffffffffffffffffffffffffff1681565b610bfe826105c9565b610c0f81610c0a610f1f565b61123b565b610c1983836113b9565b505050565b6000600160008473ffffffffffffffffffffffffffffffffffffffff1673ffffffffffffffffffffffffffffffffffffffff16815260200190815260200160002060008373ffffffffffffffffffffffffffffffffffffffff1673ffffffffffffffffffffffffffffffffffffffff16815260200190815260200160002060009054906101000a900460ff16905092915050565b6000610cbc610900565b9050610cda3360018360405180602001604052806000815250611658565b43600560003373ffffffffffffffffffffffffffffffffffffffff1673ffffffffffffffffffffffffffffffffffffffff168152602001908152602001600020819055503073ffffffffffffffffffffffffffffffffffffffff166391d148547f8d6b526d6b13eab5a67762424267752264b236dd46b48a705b5b5249049123f7336040518363ffffffff1660e01b8152600401610d799291906130bc565b602060405180830381865afa158015610d96573d6000803e3d6000fd5b505050506040513d601f19601f82011682018060405250810190610dba91906130fa565b610de957610de87f8d6b526d6b13eab5a67762424267752264b236dd46b48a705b5b5249049123f73361164a565b5b50565b610df4610f1f565b73ffffffffffffffffffffffffffffffffffffffff168573ffffffffffffffffffffffffffffffffffffffff161480610e3a5750610e3985610e34610f1f565b610c1e565b5b610e79576040517f08c379a0000000000000000000000000000000000000000000000000000000008152600401610e7090613199565b60405180910390fd5b610e8685858585856117ee565b5050505050565b600081565b600080823b905060008111915050919050565b60007f7965db0b000000000000000000000000000000000000000000000000000000007bffffffffffffffffffffffffffffffffffffffffffffffffffffffff1916827bffffffffffffffffffffffffffffffffffffffffffffffffffffffff19161480610f185750610f1782611a70565b5b9050919050565b600033905090565b8151835114610f6b576040517f08c379a0000000000000000000000000000000000000000000000000000000008152600401610f629061322b565b60405180910390fd5b600073ffffffffffffffffffffffffffffffffffffffff168473ffffffffffffffffffffffffffffffffffffffff161415610fdb576040517f08c379a0000000000000000000000000000000000000000000000000000000008152600401610fd2906132bd565b60405180910390fd5b6000610fe5610f1f565b9050610ff5818787878787611b52565b60005b84518110156111a657600085828151811061101657611015612ed6565b5b60200260200101519050600085838151811061103557611034612ed6565b5b60200260200101519050600080600084815260200190815260200160002060008b73ffffffffffffffffffffffffffffffffffffffff1673ffffffffffffffffffffffffffffffffffffffff168152602001908152602001600020549050818110156110d6576040517f08c379a00000000000000000000000000000000000000000000000000000000081526004016110cd9061334f565b60405180910390fd5b81810360008085815260200190815260200160002060008c73ffffffffffffffffffffffffffffffffffffffff1673ffffffffffffffffffffffffffffffffffffffff168152602001908152602001600020819055508160008085815260200190815260200160002060008b73ffffffffffffffffffffffffffffffffffffffff1673ffffffffffffffffffffffffffffffffffffffff168152602001908152602001600020600082825461118b919061336f565b925050819055505050508061119f90612f34565b9050610ff8565b508473ffffffffffffffffffffffffffffffffffffffff168673ffffffffffffffffffffffffffffffffffffffff168273ffffffffffffffffffffffffffffffffffffffff167f4a39dc06d4c0dbc64b70af90fd698a233a518aa5d07e595d983b8c0526c8f7fb878760405161121d9291906133c5565b60405180910390a4611233818787878787611b5a565b505050505050565b611245828261084f565b6112d45761126a8173ffffffffffffffffffffffffffffffffffffffff166014611d32565b6112788360001c6020611d32565b6040516020016112899291906134d0565b6040516020818303038152906040526040517f08c379a00000000000000000000000000000000000000000000000000000000081526004016112cb91906124bd565b60405180910390fd5b5050565b6112e2828261084f565b6113b55760016003600084815260200190815260200160002060000160008373ffffffffffffffffffffffffffffffffffffffff1673ffffffffffffffffffffffffffffffffffffffff16815260200190815260200160002060006101000a81548160ff02191690831515021790555061135a610f1f565b73ffffffffffffffffffffffffffffffffffffffff168173ffffffffffffffffffffffffffffffffffffffff16837f2f8788117e7eff1d82e926ec794901d17c78024a50270940304540a733656f0d60405160405180910390a45b5050565b6113c3828261084f565b156114975760006003600084815260200190815260200160002060000160008373ffffffffffffffffffffffffffffffffffffffff1673ffffffffffffffffffffffffffffffffffffffff16815260200190815260200160002060006101000a81548160ff02191690831515021790555061143c610f1f565b73ffffffffffffffffffffffffffffffffffffffff168173ffffffffffffffffffffffffffffffffffffffff16837ff6391f5c32d9c69d2a47ea670b442974b53935d1edc7fd64eb21e047a839171b60405160405180910390a45b5050565b8173ffffffffffffffffffffffffffffffffffffffff168373ffffffffffffffffffffffffffffffffffffffff16141561150a576040517f08c379a00000000000000000000000000000000000000000000000000000000081526004016115019061357c565b60405180910390fd5b80600160008573ffffffffffffffffffffffffffffffffffffffff1673ffffffffffffffffffffffffffffffffffffffff16815260200190815260200160002060008473ffffffffffffffffffffffffffffffffffffffff1673ffffffffffffffffffffffffffffffffffffffff16815260200190815260200160002060006101000a81548160ff0219169083151502179055508173ffffffffffffffffffffffffffffffffffffffff168373ffffffffffffffffffffffffffffffffffffffff167f17307eab39ab6107e8899845ad3d59bd9653f200f220920489ca2b5937696c31836040516115fb91906123dc565b60405180910390a3505050565b60008183611616919061359c565b905092915050565b6000818361162c91906135ff565b905092915050565b60008183611642919061336f565b905092915050565b61165482826112d8565b5050565b600073ffffffffffffffffffffffffffffffffffffffff168473ffffffffffffffffffffffffffffffffffffffff1614156116c8576040517f08c379a00000000000000000000000000000000000000000000000000000000081526004016116bf906136a2565b60405180910390fd5b60006116d2610f1f565b90506116f3816000876116e488611f6e565b6116ed88611f6e565b87611b52565b8260008086815260200190815260200160002060008773ffffffffffffffffffffffffffffffffffffffff1673ffffffffffffffffffffffffffffffffffffffff1681526020019081526020016000206000828254611752919061336f565b925050819055508473ffffffffffffffffffffffffffffffffffffffff16600073ffffffffffffffffffffffffffffffffffffffff168273ffffffffffffffffffffffffffffffffffffffff167fc3d58168c5ae7397731d063d5bbf3d657854427343f4c083240f7aacaa2d0f6287876040516117d09291906136c2565b60405180910390a46117e781600087878787611fe8565b5050505050565b600073ffffffffffffffffffffffffffffffffffffffff168473ffffffffffffffffffffffffffffffffffffffff16141561185e576040517f08c379a0000000000000000000000000000000000000000000000000000000008152600401611855906132bd565b60405180910390fd5b6000611868610f1f565b905061188881878761187988611f6e565b61188288611f6e565b87611b52565b600080600086815260200190815260200160002060008873ffffffffffffffffffffffffffffffffffffffff1673ffffffffffffffffffffffffffffffffffffffff1681526020019081526020016000205490508381101561191f576040517f08c379a00000000000000000000000000000000000000000000000000000000081526004016119169061334f565b60405180910390fd5b83810360008087815260200190815260200160002060008973ffffffffffffffffffffffffffffffffffffffff1673ffffffffffffffffffffffffffffffffffffffff168152602001908152602001600020819055508360008087815260200190815260200160002060008873ffffffffffffffffffffffffffffffffffffffff1673ffffffffffffffffffffffffffffffffffffffff16815260200190815260200160002060008282546119d4919061336f565b925050819055508573ffffffffffffffffffffffffffffffffffffffff168773ffffffffffffffffffffffffffffffffffffffff168373ffffffffffffffffffffffffffffffffffffffff167fc3d58168c5ae7397731d063d5bbf3d657854427343f4c083240f7aacaa2d0f628888604051611a519291906136c2565b60405180910390a4611a67828888888888611fe8565b50505050505050565b60007fd9b67a26000000000000000000000000000000000000000000000000000000007bffffffffffffffffffffffffffffffffffffffffffffffffffffffff1916827bffffffffffffffffffffffffffffffffffffffffffffffffffffffff19161480611b3b57507f0e89341c000000000000000000000000000000000000000000000000000000007bffffffffffffffffffffffffffffffffffffffffffffffffffffffff1916827bffffffffffffffffffffffffffffffffffffffffffffffffffffffff1916145b80611b4b5750611b4a826121c0565b5b9050919050565b505050505050565b611b798473ffffffffffffffffffffffffffffffffffffffff16610e92565b15611d2a578373ffffffffffffffffffffffffffffffffffffffff1663bc197c8187878686866040518663ffffffff1660e01b8152600401611bbf95949392919061372f565b6020604051808303816000875af1925050508015611bfb57506040513d601f19601f82011682018060405250810190611bf891906137ac565b60015b611ca157611c076137e6565b806308c379a01415611c645750611c1c613808565b80611c275750611c66565b806040517f08c379a0000000000000000000000000000000000000000000000000000000008152600401611c5b91906124bd565b60405180910390fd5b505b6040517f08c379a0000000000000000000000000000000000000000000000000000000008152600401611c9890613910565b60405180910390fd5b63bc197c8160e01b7bffffffffffffffffffffffffffffffffffffffffffffffffffffffff1916817bffffffffffffffffffffffffffffffffffffffffffffffffffffffff191614611d28576040517f08c379a0000000000000000000000000000000000000000000000000000000008152600401611d1f906139a2565b60405180910390fd5b505b505050505050565b606060006002836002611d4591906139c2565b611d4f919061336f565b67ffffffffffffffff811115611d6857611d67612571565b5b6040519080825280601f01601f191660200182016040528015611d9a5781602001600182028036833780820191505090505b5090507f300000000000000000000000000000000000000000000000000000000000000081600081518110611dd257611dd1612ed6565b5b60200101907effffffffffffffffffffffffffffffffffffffffffffffffffffffffffffff1916908160001a9053507f780000000000000000000000000000000000000000000000000000000000000081600181518110611e3657611e35612ed6565b5b60200101907effffffffffffffffffffffffffffffffffffffffffffffffffffffffffffff1916908160001a90535060006001846002611e7691906139c2565b611e80919061336f565b90505b6001811115611f20577f3031323334353637383961626364656600000000000000000000000000000000600f861660108110611ec257611ec1612ed6565b5b1a60f81b828281518110611ed957611ed8612ed6565b5b60200101907effffffffffffffffffffffffffffffffffffffffffffffffffffffffffffff1916908160001a905350600485901c945080611f1990613a1c565b9050611e83565b5060008414611f64576040517f08c379a0000000000000000000000000000000000000000000000000000000008152600401611f5b90613a92565b60405180910390fd5b8091505092915050565b60606000600167ffffffffffffffff811115611f8d57611f8c612571565b5b604051908082528060200260200182016040528015611fbb5781602001602082028036833780820191505090505b5090508281600081518110611fd357611fd2612ed6565b5b60200260200101818152505080915050919050565b6120078473ffffffffffffffffffffffffffffffffffffffff16610e92565b156121b8578373ffffffffffffffffffffffffffffffffffffffff1663f23a6e6187878686866040518663ffffffff1660e01b815260040161204d959493929190613ab2565b6020604051808303816000875af192505050801561208957506040513d601f19601f8201168201806040525081019061208691906137ac565b60015b61212f576120956137e6565b806308c379a014156120f257506120aa613808565b806120b557506120f4565b806040517f08c379a00000000000000000000000000000000000000000000000000000000081526004016120e991906124bd565b60405180910390fd5b505b6040517f08c379a000000000000000000000000000000000000000000000000000000000815260040161212690613910565b60405180910390fd5b63f23a6e6160e01b7bffffffffffffffffffffffffffffffffffffffffffffffffffffffff1916817bffffffffffffffffffffffffffffffffffffffffffffffffffffffff1916146121b6576040517f08c379a00000000000000000000000000000000000000000000000000000000081526004016121ad906139a2565b60405180910390fd5b505b505050505050565b60007f01ffc9a7000000000000000000000000000000000000000000000000000000007bffffffffffffffffffffffffffffffffffffffffffffffffffffffff1916827bffffffffffffffffffffffffffffffffffffffffffffffffffffffff1916149050919050565b6000604051905090565b600080fd5b600080fd5b600073ffffffffffffffffffffffffffffffffffffffff82169050919050565b60006122698261223e565b9050919050565b6122798161225e565b811461228457600080fd5b50565b60008135905061229681612270565b92915050565b6000819050919050565b6122af8161229c565b81146122ba57600080fd5b50565b6000813590506122cc816122a6565b92915050565b600080604083850312156122e9576122e8612234565b5b60006122f785828601612287565b9250506020612308858286016122bd565b9150509250929050565b61231b8161229c565b82525050565b60006020820190506123366000830184612312565b92915050565b60007fffffffff0000000000000000000000000000000000000000000000000000000082169050919050565b6123718161233c565b811461237c57600080fd5b50565b60008135905061238e81612368565b92915050565b6000602082840312156123aa576123a9612234565b5b60006123b88482850161237f565b91505092915050565b60008115159050919050565b6123d6816123c1565b82525050565b60006020820190506123f160008301846123cd565b92915050565b60006020828403121561240d5761240c612234565b5b600061241b848285016122bd565b91505092915050565b600081519050919050565b600082825260208201905092915050565b60005b8381101561245e578082015181840152602081019050612443565b8381111561246d576000848401525b50505050565b6000601f19601f8301169050919050565b600061248f82612424565b612499818561242f565b93506124a9818560208601612440565b6124b281612473565b840191505092915050565b600060208201905081810360008301526124d78184612484565b905092915050565b6000819050919050565b6124f2816124df565b82525050565b600060208201905061250d60008301846124e9565b92915050565b61251c816124df565b811461252757600080fd5b50565b60008135905061253981612513565b92915050565b60006020828403121561255557612554612234565b5b60006125638482850161252a565b91505092915050565b600080fd5b7f4e487b7100000000000000000000000000000000000000000000000000000000600052604160045260246000fd5b6125a982612473565b810181811067ffffffffffffffff821117156125c8576125c7612571565b5b80604052505050565b60006125db61222a565b90506125e782826125a0565b919050565b600067ffffffffffffffff82111561260757612606612571565b5b602082029050602081019050919050565b600080fd5b600061263061262b846125ec565b6125d1565b9050808382526020820190506020840283018581111561265357612652612618565b5b835b8181101561267c578061266888826122bd565b845260208401935050602081019050612655565b5050509392505050565b600082601f83011261269b5761269a61256c565b5b81356126ab84826020860161261d565b91505092915050565b600080fd5b600067ffffffffffffffff8211156126d4576126d3612571565b5b6126dd82612473565b9050602081019050919050565b82818337600083830152505050565b600061270c612707846126b9565b6125d1565b905082815260208101848484011115612728576127276126b4565b5b6127338482856126ea565b509392505050565b600082601f8301126127505761274f61256c565b5b81356127608482602086016126f9565b91505092915050565b600080600080600060a0868803121561278557612784612234565b5b600061279388828901612287565b95505060206127a488828901612287565b945050604086013567ffffffffffffffff8111156127c5576127c4612239565b5b6127d188828901612686565b935050606086013567ffffffffffffffff8111156127f2576127f1612239565b5b6127fe88828901612686565b925050608086013567ffffffffffffffff81111561281f5761281e612239565b5b61282b8882890161273b565b9150509295509295909350565b6000806040838503121561284f5761284e612234565b5b600061285d8582860161252a565b925050602061286e85828601612287565b9150509250929050565b600067ffffffffffffffff82111561289357612892612571565b5b602082029050602081019050919050565b60006128b76128b284612878565b6125d1565b905080838252602082019050602084028301858111156128da576128d9612618565b5b835b8181101561290357806128ef8882612287565b8452602084019350506020810190506128dc565b5050509392505050565b600082601f8301126129225761292161256c565b5b81356129328482602086016128a4565b91505092915050565b6000806040838503121561295257612951612234565b5b600083013567ffffffffffffffff8111156129705761296f612239565b5b61297c8582860161290d565b925050602083013567ffffffffffffffff81111561299d5761299c612239565b5b6129a985828601612686565b9150509250929050565b600081519050919050565b600082825260208201905092915050565b6000819050602082019050919050565b6129e88161229c565b82525050565b60006129fa83836129df565b60208301905092915050565b6000602082019050919050565b6000612a1e826129b3565b612a2881856129be565b9350612a33836129cf565b8060005b83811015612a64578151612a4b88826129ee565b9750612a5683612a06565b925050600181019050612a37565b5085935050505092915050565b60006020820190508181036000830152612a8b8184612a13565b905092915050565b612a9c816123c1565b8114612aa757600080fd5b50565b600081359050612ab981612a93565b92915050565b60008060408385031215612ad657612ad5612234565b5b6000612ae485828601612287565b9250506020612af585828601612aaa565b9150509250929050565b600060208284031215612b1557612b14612234565b5b6000612b2384828501612287565b91505092915050565b612b358161225e565b82525050565b6000602082019050612b506000830184612b2c565b92915050565b60008060408385031215612b6d57612b6c612234565b5b6000612b7b85828601612287565b9250506020612b8c85828601612287565b9150509250929050565b600080600080600060a08688031215612bb257612bb1612234565b5b6000612bc088828901612287565b9550506020612bd188828901612287565b9450506040612be2888289016122bd565b9350506060612bf3888289016122bd565b925050608086013567ffffffffffffffff811115612c1457612c13612239565b5b612c208882890161273b565b9150509295509295909350565b7f455243313135353a2062616c616e636520717565727920666f7220746865207a60008201527f65726f2061646472657373000000000000000000000000000000000000000000602082015250565b6000612c89602b8361242f565b9150612c9482612c2d565b604082019050919050565b60006020820190508181036000830152612cb881612c7c565b9050919050565b7f4e487b7100000000000000000000000000000000000000000000000000000000600052602260045260246000fd5b60006002820490506001821680612d0657607f821691505b60208210811415612d1a57612d19612cbf565b5b50919050565b7f455243313135353a207472616e736665722063616c6c6572206973206e6f742060008201527f6f776e6572206e6f7220617070726f7665640000000000000000000000000000602082015250565b6000612d7c60328361242f565b9150612d8782612d20565b604082019050919050565b60006020820190508181036000830152612dab81612d6f565b9050919050565b7f416363657373436f6e74726f6c3a2063616e206f6e6c792072656e6f756e636560008201527f20726f6c657320666f722073656c660000000000000000000000000000000000602082015250565b6000612e0e602f8361242f565b9150612e1982612db2565b604082019050919050565b60006020820190508181036000830152612e3d81612e01565b9050919050565b7f455243313135353a206163636f756e747320616e6420696473206c656e67746860008201527f206d69736d617463680000000000000000000000000000000000000000000000602082015250565b6000612ea060298361242f565b9150612eab82612e44565b604082019050919050565b60006020820190508181036000830152612ecf81612e93565b9050919050565b7f4e487b7100000000000000000000000000000000000000000000000000000000600052603260045260246000fd5b7f4e487b7100000000000000000000000000000000000000000000000000000000600052601160045260246000fd5b6000612f3f8261229c565b91507fffffffffffffffffffffffffffffffffffffffffffffffffffffffffffffffff821415612f7257612f71612f05565b5b600182019050919050565b6000604082019050612f926000830185612b2c565b612f9f6020830184612312565b9392505050565b600081519050612fb5816122a6565b92915050565b600060208284031215612fd157612fd0612234565b5b6000612fdf84828501612fa6565b91505092915050565b6000819050919050565b6000819050919050565b600061301761301261300d84612fe8565b612ff2565b61229c565b9050919050565b61302781612ffc565b82525050565b600082825260208201905092915050565b50565b600061304e60008361302d565b91506130598261303e565b600082019050919050565b600060a0820190506130796000830187612b2c565b6130866020830186612b2c565b6130936040830185612312565b6130a0606083018461301e565b81810360808301526130b181613041565b905095945050505050565b60006040820190506130d160008301856124e9565b6130de6020830184612b2c565b9392505050565b6000815190506130f481612a93565b92915050565b6000602082840312156131105761310f612234565b5b600061311e848285016130e5565b91505092915050565b7f455243313135353a2063616c6c6572206973206e6f74206f776e6572206e6f7260008201527f20617070726f7665640000000000000000000000000000000000000000000000602082015250565b600061318360298361242f565b915061318e82613127565b604082019050919050565b600060208201905081810360008301526131b281613176565b9050919050565b7f455243313135353a2069647320616e6420616d6f756e7473206c656e6774682060008201527f6d69736d61746368000000000000000000000000000000000000000000000000602082015250565b600061321560288361242f565b9150613220826131b9565b604082019050919050565b6000602082019050818103600083015261324481613208565b9050919050565b7f455243313135353a207472616e7366657220746f20746865207a65726f20616460008201527f6472657373000000000000000000000000000000000000000000000000000000602082015250565b60006132a760258361242f565b91506132b28261324b565b604082019050919050565b600060208201905081810360008301526132d68161329a565b9050919050565b7f455243313135353a20696e73756666696369656e742062616c616e636520666f60008201527f72207472616e7366657200000000000000000000000000000000000000000000602082015250565b6000613339602a8361242f565b9150613344826132dd565b604082019050919050565b600060208201905081810360008301526133688161332c565b9050919050565b600061337a8261229c565b91506133858361229c565b9250827fffffffffffffffffffffffffffffffffffffffffffffffffffffffffffffffff038211156133ba576133b9612f05565b5b828201905092915050565b600060408201905081810360008301526133df8185612a13565b905081810360208301526133f38184612a13565b90509392505050565b600081905092915050565b7f416363657373436f6e74726f6c3a206163636f756e7420000000000000000000600082015250565b600061343d6017836133fc565b915061344882613407565b601782019050919050565b600061345e82612424565b61346881856133fc565b9350613478818560208601612440565b80840191505092915050565b7f206973206d697373696e6720726f6c6520000000000000000000000000000000600082015250565b60006134ba6011836133fc565b91506134c582613484565b601182019050919050565b60006134db82613430565b91506134e78285613453565b91506134f2826134ad565b91506134fe8284613453565b91508190509392505050565b7f455243313135353a2073657474696e6720617070726f76616c2073746174757360008201527f20666f722073656c660000000000000000000000000000000000000000000000602082015250565b600061356660298361242f565b91506135718261350a565b604082019050919050565b6000602082019050818103600083015261359581613559565b9050919050565b60006135a78261229c565b91506135b28361229c565b9250828210156135c5576135c4612f05565b5b828203905092915050565b7f4e487b7100000000000000000000000000000000000000000000000000000000600052601260045260246000fd5b600061360a8261229c565b91506136158361229c565b925082613625576136246135d0565b5b828204905092915050565b7f455243313135353a206d696e7420746f20746865207a65726f2061646472657360008201527f7300000000000000000000000000000000000000000000000000000000000000602082015250565b600061368c60218361242f565b915061369782613630565b604082019050919050565b600060208201905081810360008301526136bb8161367f565b9050919050565b60006040820190506136d76000830185612312565b6136e46020830184612312565b9392505050565b600081519050919050565b6000613701826136eb565b61370b818561302d565b935061371b818560208601612440565b61372481612473565b840191505092915050565b600060a0820190506137446000830188612b2c565b6137516020830187612b2c565b81810360408301526137638186612a13565b905081810360608301526137778185612a13565b9050818103608083015261378b81846136f6565b90509695505050505050565b6000815190506137a681612368565b92915050565b6000602082840312156137c2576137c1612234565b5b60006137d084828501613797565b91505092915050565b60008160e01c9050919050565b600060033d11156138055760046000803e6138026000516137d9565b90505b90565b600060443d10156138185761389b565b61382061222a565b60043d036004823e80513d602482011167ffffffffffffffff8211171561384857505061389b565b808201805167ffffffffffffffff811115613866575050505061389b565b80602083010160043d03850181111561388357505050505061389b565b613892826020018501866125a0565b82955050505050505b90565b7f455243313135353a207472616e7366657220746f206e6f6e204552433131353560008201527f526563656976657220696d706c656d656e746572000000000000000000000000602082015250565b60006138fa60348361242f565b91506139058261389e565b604082019050919050565b60006020820190508181036000830152613929816138ed565b9050919050565b7f455243313135353a204552433131353552656365697665722072656a6563746560008201527f6420746f6b656e73000000000000000000000000000000000000000000000000602082015250565b600061398c60288361242f565b915061399782613930565b604082019050919050565b600060208201905081810360008301526139bb8161397f565b9050919050565b60006139cd8261229c565b91506139d88361229c565b9250817fffffffffffffffffffffffffffffffffffffffffffffffffffffffffffffffff0483118215151615613a1157613a10612f05565b5b828202905092915050565b6000613a278261229c565b91506000821415613a3b57613a3a612f05565b5b600182039050919050565b7f537472696e67733a20686578206c656e67746820696e73756666696369656e74600082015250565b6000613a7c60208361242f565b9150613a8782613a46565b602082019050919050565b60006020820190508181036000830152613aab81613a6f565b9050919050565b600060a082019050613ac76000830188612b2c565b613ad46020830187612b2c565b613ae16040830186612312565b613aee6060830185612312565b8181036080830152613b0081846136f6565b9050969550505050505056fea26469706673582212202552061d859df607c253c60d5157db2bef6e7907ae37d330f05b901abc07941264736f6c634300080a003368747470733a2f2f6261667962656961617a77703465346667756b646c6b666b6d786c3333666a3333706f716f6f66797677777a616b61336573727a647073327972342e697066732e647765622e6c696e6b2f302e6a736f6e",
  "immutableReferences": {},
  "source": "// SPDX-License-Identifier: MIT\npragma solidity ^0.8.10;\n\nimport \"@openzeppelin/contracts/token/ERC1155/ERC1155.sol\";\nimport \"@openzeppelin/contracts/utils/Strings.sol\";\nimport \"@openzeppelin/contracts/utils/math/SafeMath.sol\";\nimport \"@openzeppelin/contracts/access/AccessControl.sol\";\n\ncontract Razor is ERC1155, AccessControl {\n    using SafeMath for uint256;\n    address public contractOwner = msg.sender;\n    uint256 public constant RAZOR = 0;\n    uint256 public constant RZR = 1;\n    bytes32 public constant USER_ROLE = keccak256(\"USER_ROLE\");\n    bytes32 public constant GROUP_ROLE = keccak256(\"GROUP_ROLE\");\n    mapping (address => uint256) private previusBlock;\n\n    mapping (uint256 => string) private _uris;\n\n    constructor() ERC1155(\"https://bafybeiaazwp4e4fgukdlkfkmxl33fj33poqoofyvwwzaka3esrzdps2yr4.ipfs.dweb.link/0.json\") {\n        _mint(msg.sender, RAZOR, 1000, \"\");\n    }\n\n    function supportsInterface(bytes4 interfaceId) public view virtual override(ERC1155, AccessControl) returns (bool) {\n        return super.supportsInterface(interfaceId);\n    }\n\n    function faucetNFT(address user) public {\n        this.safeTransferFrom(contractOwner, user, RAZOR, 1, \"\");\n        previusBlock[msg.sender] = 0;\n\n        if(!this.hasRole(USER_ROLE, user)) {\n            _setupRole(USER_ROLE, user);\n        }\n    }\n\n    function calcReward() public view returns(uint256) {\n        uint256 balance = this.balanceOf(msg.sender, RAZOR);\n        uint256 blockDiff = block.number.sub(previusBlock[msg.sender]);\n        if(balance <= 0 || blockDiff <=0) {\n            return 0;\n        }\n\n        return (balance.div(1000)).add(blockDiff);\n    }\n\n    function mintRZR() public {\n        uint256 rewards = calcReward();\n        _mint(msg.sender, RZR, rewards, \"\");\n        previusBlock[msg.sender] = block.number;\n\n        if(!this.hasRole(GROUP_ROLE, msg.sender)) {\n            _setupRole(GROUP_ROLE, msg.sender);\n        }\n    }\n}",
  "sourcePath": "/home/spielrs/Proyectos/razornft/contracts/Razor.sol",
  "compiler": {
    "name": "solc",
    "version": "0.8.10+commit.fc410830.Emscripten.clang"
  },
  "schemaVersion": "3.4.3",
  "updatedAt": "2021-12-17T01:22:59.710Z",
  "networkType": "ethereum",
  "devdoc": {
    "kind": "dev",
    "methods": {
      "balanceOf(address,uint256)": {
        "details": "See {IERC1155-balanceOf}. Requirements: - `account` cannot be the zero address."
      },
      "balanceOfBatch(address[],uint256[])": {
        "details": "See {IERC1155-balanceOfBatch}. Requirements: - `accounts` and `ids` must have the same length."
      },
      "getRoleAdmin(bytes32)": {
        "details": "Returns the admin role that controls `role`. See {grantRole} and {revokeRole}. To change a role's admin, use {_setRoleAdmin}."
      },
      "grantRole(bytes32,address)": {
        "details": "Grants `role` to `account`. If `account` had not been already granted `role`, emits a {RoleGranted} event. Requirements: - the caller must have ``role``'s admin role."
      },
      "hasRole(bytes32,address)": {
        "details": "Returns `true` if `account` has been granted `role`."
      },
      "isApprovedForAll(address,address)": {
        "details": "See {IERC1155-isApprovedForAll}."
      },
      "renounceRole(bytes32,address)": {
        "details": "Revokes `role` from the calling account. Roles are often managed via {grantRole} and {revokeRole}: this function's purpose is to provide a mechanism for accounts to lose their privileges if they are compromised (such as when a trusted device is misplaced). If the calling account had been revoked `role`, emits a {RoleRevoked} event. Requirements: - the caller must be `account`."
      },
      "revokeRole(bytes32,address)": {
        "details": "Revokes `role` from `account`. If `account` had been granted `role`, emits a {RoleRevoked} event. Requirements: - the caller must have ``role``'s admin role."
      },
      "safeBatchTransferFrom(address,address,uint256[],uint256[],bytes)": {
        "details": "See {IERC1155-safeBatchTransferFrom}."
      },
      "safeTransferFrom(address,address,uint256,uint256,bytes)": {
        "details": "See {IERC1155-safeTransferFrom}."
      },
      "setApprovalForAll(address,bool)": {
        "details": "See {IERC1155-setApprovalForAll}."
      },
      "uri(uint256)": {
        "details": "See {IERC1155MetadataURI-uri}. This implementation returns the same URI for *all* token types. It relies on the token type ID substitution mechanism https://eips.ethereum.org/EIPS/eip-1155#metadata[defined in the EIP]. Clients calling this function must replace the `\\{id\\}` substring with the actual token type ID."
      }
    },
    "version": 1
  },
  "userdoc": {
    "kind": "user",
    "methods": {},
    "version": 1
  }
}