{
  "contractName": "Razor",
  "abi": [
    {
      "inputs": [],
      "stateMutability": "nonpayable",
      "type": "constructor"
    },
    {
      "anonymous": false,
      "inputs": [
        {
          "indexed": true,
          "internalType": "address",
          "name": "account",
          "type": "address"
        },
        {
          "indexed": true,
          "internalType": "address",
          "name": "operator",
          "type": "address"
        },
        {
          "indexed": false,
          "internalType": "bool",
          "name": "approved",
          "type": "bool"
        }
      ],
      "name": "ApprovalForAll",
      "type": "event"
    },
    {
      "anonymous": false,
      "inputs": [
        {
          "indexed": true,
          "internalType": "address",
          "name": "previousOwner",
          "type": "address"
        },
        {
          "indexed": true,
          "internalType": "address",
          "name": "newOwner",
          "type": "address"
        }
      ],
      "name": "OwnershipTransferred",
      "type": "event"
    },
    {
      "anonymous": false,
      "inputs": [
        {
          "indexed": true,
          "internalType": "bytes32",
          "name": "role",
          "type": "bytes32"
        },
        {
          "indexed": true,
          "internalType": "bytes32",
          "name": "previousAdminRole",
          "type": "bytes32"
        },
        {
          "indexed": true,
          "internalType": "bytes32",
          "name": "newAdminRole",
          "type": "bytes32"
        }
      ],
      "name": "RoleAdminChanged",
      "type": "event"
    },
    {
      "anonymous": false,
      "inputs": [
        {
          "indexed": true,
          "internalType": "bytes32",
          "name": "role",
          "type": "bytes32"
        },
        {
          "indexed": true,
          "internalType": "address",
          "name": "account",
          "type": "address"
        },
        {
          "indexed": true,
          "internalType": "address",
          "name": "sender",
          "type": "address"
        }
      ],
      "name": "RoleGranted",
      "type": "event"
    },
    {
      "anonymous": false,
      "inputs": [
        {
          "indexed": true,
          "internalType": "bytes32",
          "name": "role",
          "type": "bytes32"
        },
        {
          "indexed": true,
          "internalType": "address",
          "name": "account",
          "type": "address"
        },
        {
          "indexed": true,
          "internalType": "address",
          "name": "sender",
          "type": "address"
        }
      ],
      "name": "RoleRevoked",
      "type": "event"
    },
    {
      "anonymous": false,
      "inputs": [
        {
          "indexed": true,
          "internalType": "address",
          "name": "operator",
          "type": "address"
        },
        {
          "indexed": true,
          "internalType": "address",
          "name": "from",
          "type": "address"
        },
        {
          "indexed": true,
          "internalType": "address",
          "name": "to",
          "type": "address"
        },
        {
          "indexed": false,
          "internalType": "uint256[]",
          "name": "ids",
          "type": "uint256[]"
        },
        {
          "indexed": false,
          "internalType": "uint256[]",
          "name": "values",
          "type": "uint256[]"
        }
      ],
      "name": "TransferBatch",
      "type": "event"
    },
    {
      "anonymous": false,
      "inputs": [
        {
          "indexed": true,
          "internalType": "address",
          "name": "operator",
          "type": "address"
        },
        {
          "indexed": true,
          "internalType": "address",
          "name": "from",
          "type": "address"
        },
        {
          "indexed": true,
          "internalType": "address",
          "name": "to",
          "type": "address"
        },
        {
          "indexed": false,
          "internalType": "uint256",
          "name": "id",
          "type": "uint256"
        },
        {
          "indexed": false,
          "internalType": "uint256",
          "name": "value",
          "type": "uint256"
        }
      ],
      "name": "TransferSingle",
      "type": "event"
    },
    {
      "anonymous": false,
      "inputs": [
        {
          "indexed": false,
          "internalType": "string",
          "name": "value",
          "type": "string"
        },
        {
          "indexed": true,
          "internalType": "uint256",
          "name": "id",
          "type": "uint256"
        }
      ],
      "name": "URI",
      "type": "event"
    },
    {
      "inputs": [],
      "name": "DEFAULT_ADMIN_ROLE",
      "outputs": [
        {
          "internalType": "bytes32",
          "name": "",
          "type": "bytes32"
        }
      ],
      "stateMutability": "view",
      "type": "function",
      "constant": true
    },
    {
      "inputs": [],
      "name": "GROUP_ROLE",
      "outputs": [
        {
          "internalType": "bytes32",
          "name": "",
          "type": "bytes32"
        }
      ],
      "stateMutability": "view",
      "type": "function",
      "constant": true
    },
    {
      "inputs": [],
      "name": "RAZOR",
      "outputs": [
        {
          "internalType": "uint256",
          "name": "",
          "type": "uint256"
        }
      ],
      "stateMutability": "view",
      "type": "function",
      "constant": true
    },
    {
      "inputs": [],
      "name": "RZR",
      "outputs": [
        {
          "internalType": "uint256",
          "name": "",
          "type": "uint256"
        }
      ],
      "stateMutability": "view",
      "type": "function",
      "constant": true
    },
    {
      "inputs": [],
      "name": "USER_ROLE",
      "outputs": [
        {
          "internalType": "bytes32",
          "name": "",
          "type": "bytes32"
        }
      ],
      "stateMutability": "view",
      "type": "function",
      "constant": true
    },
    {
      "inputs": [
        {
          "internalType": "address",
          "name": "account",
          "type": "address"
        },
        {
          "internalType": "uint256",
          "name": "id",
          "type": "uint256"
        }
      ],
      "name": "balanceOf",
      "outputs": [
        {
          "internalType": "uint256",
          "name": "",
          "type": "uint256"
        }
      ],
      "stateMutability": "view",
      "type": "function",
      "constant": true
    },
    {
      "inputs": [
        {
          "internalType": "address[]",
          "name": "accounts",
          "type": "address[]"
        },
        {
          "internalType": "uint256[]",
          "name": "ids",
          "type": "uint256[]"
        }
      ],
      "name": "balanceOfBatch",
      "outputs": [
        {
          "internalType": "uint256[]",
          "name": "",
          "type": "uint256[]"
        }
      ],
      "stateMutability": "view",
      "type": "function",
      "constant": true
    },
    {
      "inputs": [
        {
          "internalType": "bytes32",
          "name": "role",
          "type": "bytes32"
        }
      ],
      "name": "getRoleAdmin",
      "outputs": [
        {
          "internalType": "bytes32",
          "name": "",
          "type": "bytes32"
        }
      ],
      "stateMutability": "view",
      "type": "function",
      "constant": true
    },
    {
      "inputs": [
        {
          "internalType": "bytes32",
          "name": "role",
          "type": "bytes32"
        },
        {
          "internalType": "address",
          "name": "account",
          "type": "address"
        }
      ],
      "name": "grantRole",
      "outputs": [],
      "stateMutability": "nonpayable",
      "type": "function"
    },
    {
      "inputs": [
        {
          "internalType": "bytes32",
          "name": "role",
          "type": "bytes32"
        },
        {
          "internalType": "address",
          "name": "account",
          "type": "address"
        }
      ],
      "name": "hasRole",
      "outputs": [
        {
          "internalType": "bool",
          "name": "",
          "type": "bool"
        }
      ],
      "stateMutability": "view",
      "type": "function",
      "constant": true
    },
    {
      "inputs": [
        {
          "internalType": "address",
          "name": "account",
          "type": "address"
        },
        {
          "internalType": "address",
          "name": "operator",
          "type": "address"
        }
      ],
      "name": "isApprovedForAll",
      "outputs": [
        {
          "internalType": "bool",
          "name": "",
          "type": "bool"
        }
      ],
      "stateMutability": "view",
      "type": "function",
      "constant": true
    },
    {
      "inputs": [],
      "name": "owner",
      "outputs": [
        {
          "internalType": "address",
          "name": "",
          "type": "address"
        }
      ],
      "stateMutability": "view",
      "type": "function",
      "constant": true
    },
    {
      "inputs": [],
      "name": "renounceOwnership",
      "outputs": [],
      "stateMutability": "nonpayable",
      "type": "function"
    },
    {
      "inputs": [
        {
          "internalType": "bytes32",
          "name": "role",
          "type": "bytes32"
        },
        {
          "internalType": "address",
          "name": "account",
          "type": "address"
        }
      ],
      "name": "renounceRole",
      "outputs": [],
      "stateMutability": "nonpayable",
      "type": "function"
    },
    {
      "inputs": [
        {
          "internalType": "bytes32",
          "name": "role",
          "type": "bytes32"
        },
        {
          "internalType": "address",
          "name": "account",
          "type": "address"
        }
      ],
      "name": "revokeRole",
      "outputs": [],
      "stateMutability": "nonpayable",
      "type": "function"
    },
    {
      "inputs": [
        {
          "internalType": "address",
          "name": "from",
          "type": "address"
        },
        {
          "internalType": "address",
          "name": "to",
          "type": "address"
        },
        {
          "internalType": "uint256[]",
          "name": "ids",
          "type": "uint256[]"
        },
        {
          "internalType": "uint256[]",
          "name": "amounts",
          "type": "uint256[]"
        },
        {
          "internalType": "bytes",
          "name": "data",
          "type": "bytes"
        }
      ],
      "name": "safeBatchTransferFrom",
      "outputs": [],
      "stateMutability": "nonpayable",
      "type": "function"
    },
    {
      "inputs": [
        {
          "internalType": "address",
          "name": "from",
          "type": "address"
        },
        {
          "internalType": "address",
          "name": "to",
          "type": "address"
        },
        {
          "internalType": "uint256",
          "name": "id",
          "type": "uint256"
        },
        {
          "internalType": "uint256",
          "name": "amount",
          "type": "uint256"
        },
        {
          "internalType": "bytes",
          "name": "data",
          "type": "bytes"
        }
      ],
      "name": "safeTransferFrom",
      "outputs": [],
      "stateMutability": "nonpayable",
      "type": "function"
    },
    {
      "inputs": [
        {
          "internalType": "address",
          "name": "operator",
          "type": "address"
        },
        {
          "internalType": "bool",
          "name": "approved",
          "type": "bool"
        }
      ],
      "name": "setApprovalForAll",
      "outputs": [],
      "stateMutability": "nonpayable",
      "type": "function"
    },
    {
      "inputs": [
        {
          "internalType": "address",
          "name": "newOwner",
          "type": "address"
        }
      ],
      "name": "transferOwnership",
      "outputs": [],
      "stateMutability": "nonpayable",
      "type": "function"
    },
    {
      "inputs": [
        {
          "internalType": "uint256",
          "name": "",
          "type": "uint256"
        }
      ],
      "name": "uri",
      "outputs": [
        {
          "internalType": "string",
          "name": "",
          "type": "string"
        }
      ],
      "stateMutability": "view",
      "type": "function",
      "constant": true
    },
    {
      "inputs": [
        {
          "internalType": "bytes4",
          "name": "interfaceId",
          "type": "bytes4"
        }
      ],
      "name": "supportsInterface",
      "outputs": [
        {
          "internalType": "bool",
          "name": "",
          "type": "bool"
        }
      ],
      "stateMutability": "view",
      "type": "function",
      "constant": true
    },
    {
      "inputs": [
        {
          "internalType": "address",
          "name": "user",
          "type": "address"
        }
      ],
      "name": "NFTfaucet",
      "outputs": [],
      "stateMutability": "nonpayable",
      "type": "function"
    },
    {
      "inputs": [
        {
          "internalType": "address",
          "name": "nftHolder",
          "type": "address"
        }
      ],
      "name": "mintRZR",
      "outputs": [],
      "stateMutability": "nonpayable",
      "type": "function"
    }
  ],
  "bytecode": "0x6080604052436005553480156200001557600080fd5b5060405180608001604052806059815260200162004afc6059913962000041816200008e60201b60201c565b506200006262000056620000aa60201b60201c565b620000b260201b60201c565b620000883360006103e8604051806020016040528060008152506200017860201b60201c565b62000d58565b8060029080519060200190620000a6929190620005d3565b5050565b600033905090565b6000600460009054906101000a900473ffffffffffffffffffffffffffffffffffffffff16905081600460006101000a81548173ffffffffffffffffffffffffffffffffffffffff021916908373ffffffffffffffffffffffffffffffffffffffff1602179055508173ffffffffffffffffffffffffffffffffffffffff168173ffffffffffffffffffffffffffffffffffffffff167f8be0079c531659141344cd1fd0a4f28419497f9722a3daafe3b4186f6b6457e060405160405180910390a35050565b600073ffffffffffffffffffffffffffffffffffffffff168473ffffffffffffffffffffffffffffffffffffffff161415620001eb576040517f08c379a0000000000000000000000000000000000000000000000000000000008152600401620001e2906200070a565b60405180910390fd5b6000620001fd620000aa60201b60201c565b9050620002368160008762000218886200033d60201b60201c565b62000229886200033d60201b60201c565b87620003be60201b60201c565b8260008086815260200190815260200160002060008773ffffffffffffffffffffffffffffffffffffffff1673ffffffffffffffffffffffffffffffffffffffff168152602001908152602001600020600082825462000297919062000765565b925050819055508473ffffffffffffffffffffffffffffffffffffffff16600073ffffffffffffffffffffffffffffffffffffffff168273ffffffffffffffffffffffffffffffffffffffff167fc3d58168c5ae7397731d063d5bbf3d657854427343f4c083240f7aacaa2d0f62878760405162000317929190620007d3565b60405180910390a46200033681600087878787620003c660201b60201c565b5050505050565b60606000600167ffffffffffffffff8111156200035f576200035e62000800565b5b6040519080825280602002602001820160405280156200038e5781602001602082028036833780820191505090505b5090508281600081518110620003a957620003a86200082f565b5b60200260200101818152505080915050919050565b505050505050565b620003f28473ffffffffffffffffffffffffffffffffffffffff16620005c060201b62000f361760201c565b15620005b8578373ffffffffffffffffffffffffffffffffffffffff1663f23a6e6187878686866040518663ffffffff1660e01b81526004016200043b95949392919062000947565b6020604051808303816000875af19250505080156200047a57506040513d601f19601f8201168201806040525081019062000477919062000a17565b60015b6200052c576200048962000a56565b806308c379a01415620004ed5750620004a162000ab1565b80620004ae5750620004ef565b806040517f08c379a0000000000000000000000000000000000000000000000000000000008152600401620004e4919062000b9f565b60405180910390fd5b505b6040517f08c379a0000000000000000000000000000000000000000000000000000000008152600401620005239062000c39565b60405180910390fd5b63f23a6e6160e01b7bffffffffffffffffffffffffffffffffffffffffffffffffffffffff1916817bffffffffffffffffffffffffffffffffffffffffffffffffffffffff191614620005b6576040517f08c379a0000000000000000000000000000000000000000000000000000000008152600401620005ad9062000cd1565b60405180910390fd5b505b505050505050565b600080823b905060008111915050919050565b828054620005e19062000d22565b90600052602060002090601f01602090048101928262000605576000855562000651565b82601f106200062057805160ff191683800117855562000651565b8280016001018555821562000651579182015b828111156200065057825182559160200191906001019062000633565b5b50905062000660919062000664565b5090565b5b808211156200067f57600081600090555060010162000665565b5090565b600082825260208201905092915050565b7f455243313135353a206d696e7420746f20746865207a65726f2061646472657360008201527f7300000000000000000000000000000000000000000000000000000000000000602082015250565b6000620006f260218362000683565b9150620006ff8262000694565b604082019050919050565b600060208201905081810360008301526200072581620006e3565b9050919050565b6000819050919050565b7f4e487b7100000000000000000000000000000000000000000000000000000000600052601160045260246000fd5b600062000772826200072c565b91506200077f836200072c565b9250827fffffffffffffffffffffffffffffffffffffffffffffffffffffffffffffffff03821115620007b757620007b662000736565b5b828201905092915050565b620007cd816200072c565b82525050565b6000604082019050620007ea6000830185620007c2565b620007f96020830184620007c2565b9392505050565b7f4e487b7100000000000000000000000000000000000000000000000000000000600052604160045260246000fd5b7f4e487b7100000000000000000000000000000000000000000000000000000000600052603260045260246000fd5b600073ffffffffffffffffffffffffffffffffffffffff82169050919050565b60006200088b826200085e565b9050919050565b6200089d816200087e565b82525050565b600081519050919050565b600082825260208201905092915050565b60005b83811015620008df578082015181840152602081019050620008c2565b83811115620008ef576000848401525b50505050565b6000601f19601f8301169050919050565b60006200091382620008a3565b6200091f8185620008ae565b935062000931818560208601620008bf565b6200093c81620008f5565b840191505092915050565b600060a0820190506200095e600083018862000892565b6200096d602083018762000892565b6200097c6040830186620007c2565b6200098b6060830185620007c2565b81810360808301526200099f818462000906565b90509695505050505050565b6000604051905090565b600080fd5b60007fffffffff0000000000000000000000000000000000000000000000000000000082169050919050565b620009f181620009ba565b8114620009fd57600080fd5b50565b60008151905062000a1181620009e6565b92915050565b60006020828403121562000a305762000a2f620009b5565b5b600062000a408482850162000a00565b91505092915050565b60008160e01c9050919050565b600060033d111562000a785760046000803e62000a7560005162000a49565b90505b90565b62000a8682620008f5565b810181811067ffffffffffffffff8211171562000aa85762000aa762000800565b5b80604052505050565b600060443d101562000ac35762000b50565b62000acd620009ab565b60043d036004823e80513d602482011167ffffffffffffffff8211171562000af757505062000b50565b808201805167ffffffffffffffff81111562000b17575050505062000b50565b80602083010160043d03850181111562000b3657505050505062000b50565b62000b478260200185018662000a7b565b82955050505050505b90565b600081519050919050565b600062000b6b8262000b53565b62000b77818562000683565b935062000b89818560208601620008bf565b62000b9481620008f5565b840191505092915050565b6000602082019050818103600083015262000bbb818462000b5e565b905092915050565b7f455243313135353a207472616e7366657220746f206e6f6e204552433131353560008201527f526563656976657220696d706c656d656e746572000000000000000000000000602082015250565b600062000c2160348362000683565b915062000c2e8262000bc3565b604082019050919050565b6000602082019050818103600083015262000c548162000c12565b9050919050565b7f455243313135353a204552433131353552656365697665722072656a6563746560008201527f6420746f6b656e73000000000000000000000000000000000000000000000000602082015250565b600062000cb960288362000683565b915062000cc68262000c5b565b604082019050919050565b6000602082019050818103600083015262000cec8162000caa565b9050919050565b7f4e487b7100000000000000000000000000000000000000000000000000000000600052602260045260246000fd5b6000600282049050600182168062000d3b57607f821691505b6020821081141562000d525762000d5162000cf3565b5b50919050565b613d948062000d686000396000f3fe608060405234801561001057600080fd5b506004361061014c5760003560e01c806391d14854116100c3578063d547741f1161007c578063d547741f1461039d578063e26aeaa1146103b9578063e985e9c5146103d5578063f242432a14610405578063f2fde38b14610421578063fa260da41461043d5761014c565b806391d14854146102db5780639959c72b1461030b578063a217fddf14610329578063a22cb46514610347578063be67357314610363578063c812a2151461037f5761014c565b80632eb2c2d6116101155780632eb2c2d61461022f5780632f2ff15d1461024b57806336568abe146102675780634e1273f414610283578063715018a6146102b35780638da5cb5b146102bd5761014c565b8062fdd58e1461015157806301ffc9a7146101815780630e89341c146101b157806313119161146101e1578063248a9ca3146101ff575b600080fd5b61016b60048036038101906101669190612426565b61045b565b6040516101789190612475565b60405180910390f35b61019b600480360381019061019691906124e8565b610524565b6040516101a89190612530565b60405180910390f35b6101cb60048036038101906101c6919061254b565b610536565b6040516101d89190612611565b60405180910390f35b6101e96105ca565b6040516101f6919061264c565b60405180910390f35b61021960048036038101906102149190612693565b6105ee565b604051610226919061264c565b60405180910390f35b610249600480360381019061024491906128bd565b61060e565b005b6102656004803603810190610260919061298c565b6106af565b005b610281600480360381019061027c919061298c565b6106d8565b005b61029d60048036038101906102989190612a8f565b61075b565b6040516102aa9190612bc5565b60405180910390f35b6102bb610874565b005b6102c56108fc565b6040516102d29190612bf6565b60405180910390f35b6102f560048036038101906102f0919061298c565b610926565b6040516103029190612530565b60405180910390f35b610313610991565b6040516103209190612475565b60405180910390f35b610331610996565b60405161033e919061264c565b60405180910390f35b610361600480360381019061035c9190612c3d565b61099d565b005b61037d60048036038101906103789190612c7d565b6109b3565b005b610387610af4565b604051610394919061264c565b60405180910390f35b6103b760048036038101906103b2919061298c565b610b18565b005b6103d360048036038101906103ce9190612c7d565b610b41565b005b6103ef60048036038101906103ea9190612caa565b610d04565b6040516103fc9190612530565b60405180910390f35b61041f600480360381019061041a9190612cea565b610d98565b005b61043b60048036038101906104369190612c7d565b610e39565b005b610445610f31565b6040516104529190612475565b60405180910390f35b60008073ffffffffffffffffffffffffffffffffffffffff168373ffffffffffffffffffffffffffffffffffffffff1614156104cc576040517f08c379a00000000000000000000000000000000000000000000000000000000081526004016104c390612df3565b60405180910390fd5b60008083815260200190815260200160002060008473ffffffffffffffffffffffffffffffffffffffff1673ffffffffffffffffffffffffffffffffffffffff16815260200190815260200160002054905092915050565b600061052f82610f49565b9050919050565b60606002805461054590612e42565b80601f016020809104026020016040519081016040528092919081815260200182805461057190612e42565b80156105be5780601f10610593576101008083540402835291602001916105be565b820191906000526020600020905b8154815290600101906020018083116105a157829003601f168201915b50505050509050919050565b7f14823911f2da1b49f045a0929a60b8c1f2a7fc8c06c7284ca3e8ab4e193a08c881565b600060036000838152602001908152602001600020600101549050919050565b610616610fc3565b73ffffffffffffffffffffffffffffffffffffffff168573ffffffffffffffffffffffffffffffffffffffff16148061065c575061065b85610656610fc3565b610d04565b5b61069b576040517f08c379a000000000000000000000000000000000000000000000000000000000815260040161069290612ee6565b60405180910390fd5b6106a88585858585610fcb565b5050505050565b6106b8826105ee565b6106c9816106c4610fc3565b6112df565b6106d3838361137c565b505050565b6106e0610fc3565b73ffffffffffffffffffffffffffffffffffffffff168173ffffffffffffffffffffffffffffffffffffffff161461074d576040517f08c379a000000000000000000000000000000000000000000000000000000000815260040161074490612f78565b60405180910390fd5b610757828261145d565b5050565b606081518351146107a1576040517f08c379a00000000000000000000000000000000000000000000000000000000081526004016107989061300a565b60405180910390fd5b6000835167ffffffffffffffff8111156107be576107bd6126c5565b5b6040519080825280602002602001820160405280156107ec5781602001602082028036833780820191505090505b50905060005b8451811015610869576108398582815181106108115761081061302a565b5b602002602001015185838151811061082c5761082b61302a565b5b602002602001015161045b565b82828151811061084c5761084b61302a565b5b6020026020010181815250508061086290613088565b90506107f2565b508091505092915050565b61087c610fc3565b73ffffffffffffffffffffffffffffffffffffffff1661089a6108fc565b73ffffffffffffffffffffffffffffffffffffffff16146108f0576040517f08c379a00000000000000000000000000000000000000000000000000000000081526004016108e79061311d565b60405180910390fd5b6108fa600061153f565b565b6000600460009054906101000a900473ffffffffffffffffffffffffffffffffffffffff16905090565b60006003600084815260200190815260200160002060000160008373ffffffffffffffffffffffffffffffffffffffff1673ffffffffffffffffffffffffffffffffffffffff16815260200190815260200160002060009054906101000a900460ff16905092915050565b600181565b6000801b81565b6109af6109a8610fc3565b8383611605565b5050565b3073ffffffffffffffffffffffffffffffffffffffff1663f242432a3383600060016040518563ffffffff1660e01b81526004016109f494939291906131b9565b600060405180830381600087803b158015610a0e57600080fd5b505af1158015610a22573d6000803e3d6000fd5b505050503073ffffffffffffffffffffffffffffffffffffffff166391d148547f14823911f2da1b49f045a0929a60b8c1f2a7fc8c06c7284ca3e8ab4e193a08c8836040518363ffffffff1660e01b8152600401610a81929190613211565b602060405180830381865afa158015610a9e573d6000803e3d6000fd5b505050506040513d601f19601f82011682018060405250810190610ac2919061324f565b610af157610af07f14823911f2da1b49f045a0929a60b8c1f2a7fc8c06c7284ca3e8ab4e193a08c882611772565b5b50565b7f8d6b526d6b13eab5a67762424267752264b236dd46b48a705b5b5249049123f781565b610b21826105ee565b610b3281610b2d610fc3565b6112df565b610b3c838361145d565b505050565b60003073ffffffffffffffffffffffffffffffffffffffff1662fdd58e8360006040518363ffffffff1660e01b8152600401610b7e92919061327c565b602060405180830381865afa158015610b9b573d6000803e3d6000fd5b505050506040513d601f19601f82011682018060405250810190610bbf91906132ba565b90506000610bd86005544361178090919063ffffffff16565b905043600581905550600082111580610bf15750600381105b15610bfd575050610d01565b6000610c146103e88461179690919063ffffffff16565b9050610c3284600183604051806020016040528060008152506117ac565b3073ffffffffffffffffffffffffffffffffffffffff166391d148547f8d6b526d6b13eab5a67762424267752264b236dd46b48a705b5b5249049123f7866040518363ffffffff1660e01b8152600401610c8d929190613211565b602060405180830381865afa158015610caa573d6000803e3d6000fd5b505050506040513d601f19601f82011682018060405250810190610cce919061324f565b610cfd57610cfc7f8d6b526d6b13eab5a67762424267752264b236dd46b48a705b5b5249049123f785611772565b5b5050505b50565b6000600160008473ffffffffffffffffffffffffffffffffffffffff1673ffffffffffffffffffffffffffffffffffffffff16815260200190815260200160002060008373ffffffffffffffffffffffffffffffffffffffff1673ffffffffffffffffffffffffffffffffffffffff16815260200190815260200160002060009054906101000a900460ff16905092915050565b610da0610fc3565b73ffffffffffffffffffffffffffffffffffffffff168573ffffffffffffffffffffffffffffffffffffffff161480610de65750610de585610de0610fc3565b610d04565b5b610e25576040517f08c379a0000000000000000000000000000000000000000000000000000000008152600401610e1c90613359565b60405180910390fd5b610e328585858585611942565b5050505050565b610e41610fc3565b73ffffffffffffffffffffffffffffffffffffffff16610e5f6108fc565b73ffffffffffffffffffffffffffffffffffffffff1614610eb5576040517f08c379a0000000000000000000000000000000000000000000000000000000008152600401610eac9061311d565b60405180910390fd5b600073ffffffffffffffffffffffffffffffffffffffff168173ffffffffffffffffffffffffffffffffffffffff161415610f25576040517f08c379a0000000000000000000000000000000000000000000000000000000008152600401610f1c906133eb565b60405180910390fd5b610f2e8161153f565b50565b600081565b600080823b905060008111915050919050565b60007f7965db0b000000000000000000000000000000000000000000000000000000007bffffffffffffffffffffffffffffffffffffffffffffffffffffffff1916827bffffffffffffffffffffffffffffffffffffffffffffffffffffffff19161480610fbc5750610fbb82611bc4565b5b9050919050565b600033905090565b815183511461100f576040517f08c379a00000000000000000000000000000000000000000000000000000000081526004016110069061347d565b60405180910390fd5b600073ffffffffffffffffffffffffffffffffffffffff168473ffffffffffffffffffffffffffffffffffffffff16141561107f576040517f08c379a00000000000000000000000000000000000000000000000000000000081526004016110769061350f565b60405180910390fd5b6000611089610fc3565b9050611099818787878787611ca6565b60005b845181101561124a5760008582815181106110ba576110b961302a565b5b6020026020010151905060008583815181106110d9576110d861302a565b5b60200260200101519050600080600084815260200190815260200160002060008b73ffffffffffffffffffffffffffffffffffffffff1673ffffffffffffffffffffffffffffffffffffffff1681526020019081526020016000205490508181101561117a576040517f08c379a0000000000000000000000000000000000000000000000000000000008152600401611171906135a1565b60405180910390fd5b81810360008085815260200190815260200160002060008c73ffffffffffffffffffffffffffffffffffffffff1673ffffffffffffffffffffffffffffffffffffffff168152602001908152602001600020819055508160008085815260200190815260200160002060008b73ffffffffffffffffffffffffffffffffffffffff1673ffffffffffffffffffffffffffffffffffffffff168152602001908152602001600020600082825461122f91906135c1565b925050819055505050508061124390613088565b905061109c565b508473ffffffffffffffffffffffffffffffffffffffff168673ffffffffffffffffffffffffffffffffffffffff168273ffffffffffffffffffffffffffffffffffffffff167f4a39dc06d4c0dbc64b70af90fd698a233a518aa5d07e595d983b8c0526c8f7fb87876040516112c1929190613617565b60405180910390a46112d7818787878787611cae565b505050505050565b6112e98282610926565b6113785761130e8173ffffffffffffffffffffffffffffffffffffffff166014611e86565b61131c8360001c6020611e86565b60405160200161132d929190613722565b6040516020818303038152906040526040517f08c379a000000000000000000000000000000000000000000000000000000000815260040161136f9190612611565b60405180910390fd5b5050565b6113868282610926565b6114595760016003600084815260200190815260200160002060000160008373ffffffffffffffffffffffffffffffffffffffff1673ffffffffffffffffffffffffffffffffffffffff16815260200190815260200160002060006101000a81548160ff0219169083151502179055506113fe610fc3565b73ffffffffffffffffffffffffffffffffffffffff168173ffffffffffffffffffffffffffffffffffffffff16837f2f8788117e7eff1d82e926ec794901d17c78024a50270940304540a733656f0d60405160405180910390a45b5050565b6114678282610926565b1561153b5760006003600084815260200190815260200160002060000160008373ffffffffffffffffffffffffffffffffffffffff1673ffffffffffffffffffffffffffffffffffffffff16815260200190815260200160002060006101000a81548160ff0219169083151502179055506114e0610fc3565b73ffffffffffffffffffffffffffffffffffffffff168173ffffffffffffffffffffffffffffffffffffffff16837ff6391f5c32d9c69d2a47ea670b442974b53935d1edc7fd64eb21e047a839171b60405160405180910390a45b5050565b6000600460009054906101000a900473ffffffffffffffffffffffffffffffffffffffff16905081600460006101000a81548173ffffffffffffffffffffffffffffffffffffffff021916908373ffffffffffffffffffffffffffffffffffffffff1602179055508173ffffffffffffffffffffffffffffffffffffffff168173ffffffffffffffffffffffffffffffffffffffff167f8be0079c531659141344cd1fd0a4f28419497f9722a3daafe3b4186f6b6457e060405160405180910390a35050565b8173ffffffffffffffffffffffffffffffffffffffff168373ffffffffffffffffffffffffffffffffffffffff161415611674576040517f08c379a000000000000000000000000000000000000000000000000000000000815260040161166b906137ce565b60405180910390fd5b80600160008573ffffffffffffffffffffffffffffffffffffffff1673ffffffffffffffffffffffffffffffffffffffff16815260200190815260200160002060008473ffffffffffffffffffffffffffffffffffffffff1673ffffffffffffffffffffffffffffffffffffffff16815260200190815260200160002060006101000a81548160ff0219169083151502179055508173ffffffffffffffffffffffffffffffffffffffff168373ffffffffffffffffffffffffffffffffffffffff167f17307eab39ab6107e8899845ad3d59bd9653f200f220920489ca2b5937696c31836040516117659190612530565b60405180910390a3505050565b61177c828261137c565b5050565b6000818361178e91906137ee565b905092915050565b600081836117a49190613851565b905092915050565b600073ffffffffffffffffffffffffffffffffffffffff168473ffffffffffffffffffffffffffffffffffffffff16141561181c576040517f08c379a0000000000000000000000000000000000000000000000000000000008152600401611813906138f4565b60405180910390fd5b6000611826610fc3565b905061184781600087611838886120c2565b611841886120c2565b87611ca6565b8260008086815260200190815260200160002060008773ffffffffffffffffffffffffffffffffffffffff1673ffffffffffffffffffffffffffffffffffffffff16815260200190815260200160002060008282546118a691906135c1565b925050819055508473ffffffffffffffffffffffffffffffffffffffff16600073ffffffffffffffffffffffffffffffffffffffff168273ffffffffffffffffffffffffffffffffffffffff167fc3d58168c5ae7397731d063d5bbf3d657854427343f4c083240f7aacaa2d0f628787604051611924929190613914565b60405180910390a461193b8160008787878761213c565b5050505050565b600073ffffffffffffffffffffffffffffffffffffffff168473ffffffffffffffffffffffffffffffffffffffff1614156119b2576040517f08c379a00000000000000000000000000000000000000000000000000000000081526004016119a99061350f565b60405180910390fd5b60006119bc610fc3565b90506119dc8187876119cd886120c2565b6119d6886120c2565b87611ca6565b600080600086815260200190815260200160002060008873ffffffffffffffffffffffffffffffffffffffff1673ffffffffffffffffffffffffffffffffffffffff16815260200190815260200160002054905083811015611a73576040517f08c379a0000000000000000000000000000000000000000000000000000000008152600401611a6a906135a1565b60405180910390fd5b83810360008087815260200190815260200160002060008973ffffffffffffffffffffffffffffffffffffffff1673ffffffffffffffffffffffffffffffffffffffff168152602001908152602001600020819055508360008087815260200190815260200160002060008873ffffffffffffffffffffffffffffffffffffffff1673ffffffffffffffffffffffffffffffffffffffff1681526020019081526020016000206000828254611b2891906135c1565b925050819055508573ffffffffffffffffffffffffffffffffffffffff168773ffffffffffffffffffffffffffffffffffffffff168373ffffffffffffffffffffffffffffffffffffffff167fc3d58168c5ae7397731d063d5bbf3d657854427343f4c083240f7aacaa2d0f628888604051611ba5929190613914565b60405180910390a4611bbb82888888888861213c565b50505050505050565b60007fd9b67a26000000000000000000000000000000000000000000000000000000007bffffffffffffffffffffffffffffffffffffffffffffffffffffffff1916827bffffffffffffffffffffffffffffffffffffffffffffffffffffffff19161480611c8f57507f0e89341c000000000000000000000000000000000000000000000000000000007bffffffffffffffffffffffffffffffffffffffffffffffffffffffff1916827bffffffffffffffffffffffffffffffffffffffffffffffffffffffff1916145b80611c9f5750611c9e82612314565b5b9050919050565b505050505050565b611ccd8473ffffffffffffffffffffffffffffffffffffffff16610f36565b15611e7e578373ffffffffffffffffffffffffffffffffffffffff1663bc197c8187878686866040518663ffffffff1660e01b8152600401611d13959493929190613981565b6020604051808303816000875af1925050508015611d4f57506040513d601f19601f82011682018060405250810190611d4c91906139fe565b60015b611df557611d5b613a38565b806308c379a01415611db85750611d70613a5a565b80611d7b5750611dba565b806040517f08c379a0000000000000000000000000000000000000000000000000000000008152600401611daf9190612611565b60405180910390fd5b505b6040517f08c379a0000000000000000000000000000000000000000000000000000000008152600401611dec90613b62565b60405180910390fd5b63bc197c8160e01b7bffffffffffffffffffffffffffffffffffffffffffffffffffffffff1916817bffffffffffffffffffffffffffffffffffffffffffffffffffffffff191614611e7c576040517f08c379a0000000000000000000000000000000000000000000000000000000008152600401611e7390613bf4565b60405180910390fd5b505b505050505050565b606060006002836002611e999190613c14565b611ea391906135c1565b67ffffffffffffffff811115611ebc57611ebb6126c5565b5b6040519080825280601f01601f191660200182016040528015611eee5781602001600182028036833780820191505090505b5090507f300000000000000000000000000000000000000000000000000000000000000081600081518110611f2657611f2561302a565b5b60200101907effffffffffffffffffffffffffffffffffffffffffffffffffffffffffffff1916908160001a9053507f780000000000000000000000000000000000000000000000000000000000000081600181518110611f8a57611f8961302a565b5b60200101907effffffffffffffffffffffffffffffffffffffffffffffffffffffffffffff1916908160001a90535060006001846002611fca9190613c14565b611fd491906135c1565b90505b6001811115612074577f3031323334353637383961626364656600000000000000000000000000000000600f8616601081106120165761201561302a565b5b1a60f81b82828151811061202d5761202c61302a565b5b60200101907effffffffffffffffffffffffffffffffffffffffffffffffffffffffffffff1916908160001a905350600485901c94508061206d90613c6e565b9050611fd7565b50600084146120b8576040517f08c379a00000000000000000000000000000000000000000000000000000000081526004016120af90613ce4565b60405180910390fd5b8091505092915050565b60606000600167ffffffffffffffff8111156120e1576120e06126c5565b5b60405190808252806020026020018201604052801561210f5781602001602082028036833780820191505090505b50905082816000815181106121275761212661302a565b5b60200260200101818152505080915050919050565b61215b8473ffffffffffffffffffffffffffffffffffffffff16610f36565b1561230c578373ffffffffffffffffffffffffffffffffffffffff1663f23a6e6187878686866040518663ffffffff1660e01b81526004016121a1959493929190613d04565b6020604051808303816000875af19250505080156121dd57506040513d601f19601f820116820180604052508101906121da91906139fe565b60015b612283576121e9613a38565b806308c379a0141561224657506121fe613a5a565b806122095750612248565b806040517f08c379a000000000000000000000000000000000000000000000000000000000815260040161223d9190612611565b60405180910390fd5b505b6040517f08c379a000000000000000000000000000000000000000000000000000000000815260040161227a90613b62565b60405180910390fd5b63f23a6e6160e01b7bffffffffffffffffffffffffffffffffffffffffffffffffffffffff1916817bffffffffffffffffffffffffffffffffffffffffffffffffffffffff19161461230a576040517f08c379a000000000000000000000000000000000000000000000000000000000815260040161230190613bf4565b60405180910390fd5b505b505050505050565b60007f01ffc9a7000000000000000000000000000000000000000000000000000000007bffffffffffffffffffffffffffffffffffffffffffffffffffffffff1916827bffffffffffffffffffffffffffffffffffffffffffffffffffffffff1916149050919050565b6000604051905090565b600080fd5b600080fd5b600073ffffffffffffffffffffffffffffffffffffffff82169050919050565b60006123bd82612392565b9050919050565b6123cd816123b2565b81146123d857600080fd5b50565b6000813590506123ea816123c4565b92915050565b6000819050919050565b612403816123f0565b811461240e57600080fd5b50565b600081359050612420816123fa565b92915050565b6000806040838503121561243d5761243c612388565b5b600061244b858286016123db565b925050602061245c85828601612411565b9150509250929050565b61246f816123f0565b82525050565b600060208201905061248a6000830184612466565b92915050565b60007fffffffff0000000000000000000000000000000000000000000000000000000082169050919050565b6124c581612490565b81146124d057600080fd5b50565b6000813590506124e2816124bc565b92915050565b6000602082840312156124fe576124fd612388565b5b600061250c848285016124d3565b91505092915050565b60008115159050919050565b61252a81612515565b82525050565b60006020820190506125456000830184612521565b92915050565b60006020828403121561256157612560612388565b5b600061256f84828501612411565b91505092915050565b600081519050919050565b600082825260208201905092915050565b60005b838110156125b2578082015181840152602081019050612597565b838111156125c1576000848401525b50505050565b6000601f19601f8301169050919050565b60006125e382612578565b6125ed8185612583565b93506125fd818560208601612594565b612606816125c7565b840191505092915050565b6000602082019050818103600083015261262b81846125d8565b905092915050565b6000819050919050565b61264681612633565b82525050565b6000602082019050612661600083018461263d565b92915050565b61267081612633565b811461267b57600080fd5b50565b60008135905061268d81612667565b92915050565b6000602082840312156126a9576126a8612388565b5b60006126b78482850161267e565b91505092915050565b600080fd5b7f4e487b7100000000000000000000000000000000000000000000000000000000600052604160045260246000fd5b6126fd826125c7565b810181811067ffffffffffffffff8211171561271c5761271b6126c5565b5b80604052505050565b600061272f61237e565b905061273b82826126f4565b919050565b600067ffffffffffffffff82111561275b5761275a6126c5565b5b602082029050602081019050919050565b600080fd5b600061278461277f84612740565b612725565b905080838252602082019050602084028301858111156127a7576127a661276c565b5b835b818110156127d057806127bc8882612411565b8452602084019350506020810190506127a9565b5050509392505050565b600082601f8301126127ef576127ee6126c0565b5b81356127ff848260208601612771565b91505092915050565b600080fd5b600067ffffffffffffffff821115612828576128276126c5565b5b612831826125c7565b9050602081019050919050565b82818337600083830152505050565b600061286061285b8461280d565b612725565b90508281526020810184848401111561287c5761287b612808565b5b61288784828561283e565b509392505050565b600082601f8301126128a4576128a36126c0565b5b81356128b484826020860161284d565b91505092915050565b600080600080600060a086880312156128d9576128d8612388565b5b60006128e7888289016123db565b95505060206128f8888289016123db565b945050604086013567ffffffffffffffff8111156129195761291861238d565b5b612925888289016127da565b935050606086013567ffffffffffffffff8111156129465761294561238d565b5b612952888289016127da565b925050608086013567ffffffffffffffff8111156129735761297261238d565b5b61297f8882890161288f565b9150509295509295909350565b600080604083850312156129a3576129a2612388565b5b60006129b18582860161267e565b92505060206129c2858286016123db565b9150509250929050565b600067ffffffffffffffff8211156129e7576129e66126c5565b5b602082029050602081019050919050565b6000612a0b612a06846129cc565b612725565b90508083825260208201905060208402830185811115612a2e57612a2d61276c565b5b835b81811015612a575780612a4388826123db565b845260208401935050602081019050612a30565b5050509392505050565b600082601f830112612a7657612a756126c0565b5b8135612a868482602086016129f8565b91505092915050565b60008060408385031215612aa657612aa5612388565b5b600083013567ffffffffffffffff811115612ac457612ac361238d565b5b612ad085828601612a61565b925050602083013567ffffffffffffffff811115612af157612af061238d565b5b612afd858286016127da565b9150509250929050565b600081519050919050565b600082825260208201905092915050565b6000819050602082019050919050565b612b3c816123f0565b82525050565b6000612b4e8383612b33565b60208301905092915050565b6000602082019050919050565b6000612b7282612b07565b612b7c8185612b12565b9350612b8783612b23565b8060005b83811015612bb8578151612b9f8882612b42565b9750612baa83612b5a565b925050600181019050612b8b565b5085935050505092915050565b60006020820190508181036000830152612bdf8184612b67565b905092915050565b612bf0816123b2565b82525050565b6000602082019050612c0b6000830184612be7565b92915050565b612c1a81612515565b8114612c2557600080fd5b50565b600081359050612c3781612c11565b92915050565b60008060408385031215612c5457612c53612388565b5b6000612c62858286016123db565b9250506020612c7385828601612c28565b9150509250929050565b600060208284031215612c9357612c92612388565b5b6000612ca1848285016123db565b91505092915050565b60008060408385031215612cc157612cc0612388565b5b6000612ccf858286016123db565b9250506020612ce0858286016123db565b9150509250929050565b600080600080600060a08688031215612d0657612d05612388565b5b6000612d14888289016123db565b9550506020612d25888289016123db565b9450506040612d3688828901612411565b9350506060612d4788828901612411565b925050608086013567ffffffffffffffff811115612d6857612d6761238d565b5b612d748882890161288f565b9150509295509295909350565b7f455243313135353a2062616c616e636520717565727920666f7220746865207a60008201527f65726f2061646472657373000000000000000000000000000000000000000000602082015250565b6000612ddd602b83612583565b9150612de882612d81565b604082019050919050565b60006020820190508181036000830152612e0c81612dd0565b9050919050565b7f4e487b7100000000000000000000000000000000000000000000000000000000600052602260045260246000fd5b60006002820490506001821680612e5a57607f821691505b60208210811415612e6e57612e6d612e13565b5b50919050565b7f455243313135353a207472616e736665722063616c6c6572206973206e6f742060008201527f6f776e6572206e6f7220617070726f7665640000000000000000000000000000602082015250565b6000612ed0603283612583565b9150612edb82612e74565b604082019050919050565b60006020820190508181036000830152612eff81612ec3565b9050919050565b7f416363657373436f6e74726f6c3a2063616e206f6e6c792072656e6f756e636560008201527f20726f6c657320666f722073656c660000000000000000000000000000000000602082015250565b6000612f62602f83612583565b9150612f6d82612f06565b604082019050919050565b60006020820190508181036000830152612f9181612f55565b9050919050565b7f455243313135353a206163636f756e747320616e6420696473206c656e67746860008201527f206d69736d617463680000000000000000000000000000000000000000000000602082015250565b6000612ff4602983612583565b9150612fff82612f98565b604082019050919050565b6000602082019050818103600083015261302381612fe7565b9050919050565b7f4e487b7100000000000000000000000000000000000000000000000000000000600052603260045260246000fd5b7f4e487b7100000000000000000000000000000000000000000000000000000000600052601160045260246000fd5b6000613093826123f0565b91507fffffffffffffffffffffffffffffffffffffffffffffffffffffffffffffffff8214156130c6576130c5613059565b5b600182019050919050565b7f4f776e61626c653a2063616c6c6572206973206e6f7420746865206f776e6572600082015250565b6000613107602083612583565b9150613112826130d1565b602082019050919050565b60006020820190508181036000830152613136816130fa565b9050919050565b6000819050919050565b6000819050919050565b600061316c6131676131628461313d565b613147565b6123f0565b9050919050565b61317c81613151565b82525050565b600082825260208201905092915050565b50565b60006131a3600083613182565b91506131ae82613193565b600082019050919050565b600060a0820190506131ce6000830187612be7565b6131db6020830186612be7565b6131e86040830185612466565b6131f56060830184613173565b818103608083015261320681613196565b905095945050505050565b6000604082019050613226600083018561263d565b6132336020830184612be7565b9392505050565b60008151905061324981612c11565b92915050565b60006020828403121561326557613264612388565b5b60006132738482850161323a565b91505092915050565b60006040820190506132916000830185612be7565b61329e6020830184612466565b9392505050565b6000815190506132b4816123fa565b92915050565b6000602082840312156132d0576132cf612388565b5b60006132de848285016132a5565b91505092915050565b7f455243313135353a2063616c6c6572206973206e6f74206f776e6572206e6f7260008201527f20617070726f7665640000000000000000000000000000000000000000000000602082015250565b6000613343602983612583565b915061334e826132e7565b604082019050919050565b6000602082019050818103600083015261337281613336565b9050919050565b7f4f776e61626c653a206e6577206f776e657220697320746865207a65726f206160008201527f6464726573730000000000000000000000000000000000000000000000000000602082015250565b60006133d5602683612583565b91506133e082613379565b604082019050919050565b60006020820190508181036000830152613404816133c8565b9050919050565b7f455243313135353a2069647320616e6420616d6f756e7473206c656e6774682060008201527f6d69736d61746368000000000000000000000000000000000000000000000000602082015250565b6000613467602883612583565b91506134728261340b565b604082019050919050565b600060208201905081810360008301526134968161345a565b9050919050565b7f455243313135353a207472616e7366657220746f20746865207a65726f20616460008201527f6472657373000000000000000000000000000000000000000000000000000000602082015250565b60006134f9602583612583565b91506135048261349d565b604082019050919050565b60006020820190508181036000830152613528816134ec565b9050919050565b7f455243313135353a20696e73756666696369656e742062616c616e636520666f60008201527f72207472616e7366657200000000000000000000000000000000000000000000602082015250565b600061358b602a83612583565b91506135968261352f565b604082019050919050565b600060208201905081810360008301526135ba8161357e565b9050919050565b60006135cc826123f0565b91506135d7836123f0565b9250827fffffffffffffffffffffffffffffffffffffffffffffffffffffffffffffffff0382111561360c5761360b613059565b5b828201905092915050565b600060408201905081810360008301526136318185612b67565b905081810360208301526136458184612b67565b90509392505050565b600081905092915050565b7f416363657373436f6e74726f6c3a206163636f756e7420000000000000000000600082015250565b600061368f60178361364e565b915061369a82613659565b601782019050919050565b60006136b082612578565b6136ba818561364e565b93506136ca818560208601612594565b80840191505092915050565b7f206973206d697373696e6720726f6c6520000000000000000000000000000000600082015250565b600061370c60118361364e565b9150613717826136d6565b601182019050919050565b600061372d82613682565b915061373982856136a5565b9150613744826136ff565b915061375082846136a5565b91508190509392505050565b7f455243313135353a2073657474696e6720617070726f76616c2073746174757360008201527f20666f722073656c660000000000000000000000000000000000000000000000602082015250565b60006137b8602983612583565b91506137c38261375c565b604082019050919050565b600060208201905081810360008301526137e7816137ab565b9050919050565b60006137f9826123f0565b9150613804836123f0565b92508282101561381757613816613059565b5b828203905092915050565b7f4e487b7100000000000000000000000000000000000000000000000000000000600052601260045260246000fd5b600061385c826123f0565b9150613867836123f0565b92508261387757613876613822565b5b828204905092915050565b7f455243313135353a206d696e7420746f20746865207a65726f2061646472657360008201527f7300000000000000000000000000000000000000000000000000000000000000602082015250565b60006138de602183612583565b91506138e982613882565b604082019050919050565b6000602082019050818103600083015261390d816138d1565b9050919050565b60006040820190506139296000830185612466565b6139366020830184612466565b9392505050565b600081519050919050565b60006139538261393d565b61395d8185613182565b935061396d818560208601612594565b613976816125c7565b840191505092915050565b600060a0820190506139966000830188612be7565b6139a36020830187612be7565b81810360408301526139b58186612b67565b905081810360608301526139c98185612b67565b905081810360808301526139dd8184613948565b90509695505050505050565b6000815190506139f8816124bc565b92915050565b600060208284031215613a1457613a13612388565b5b6000613a22848285016139e9565b91505092915050565b60008160e01c9050919050565b600060033d1115613a575760046000803e613a54600051613a2b565b90505b90565b600060443d1015613a6a57613aed565b613a7261237e565b60043d036004823e80513d602482011167ffffffffffffffff82111715613a9a575050613aed565b808201805167ffffffffffffffff811115613ab85750505050613aed565b80602083010160043d038501811115613ad5575050505050613aed565b613ae4826020018501866126f4565b82955050505050505b90565b7f455243313135353a207472616e7366657220746f206e6f6e204552433131353560008201527f526563656976657220696d706c656d656e746572000000000000000000000000602082015250565b6000613b4c603483612583565b9150613b5782613af0565b604082019050919050565b60006020820190508181036000830152613b7b81613b3f565b9050919050565b7f455243313135353a204552433131353552656365697665722072656a6563746560008201527f6420746f6b656e73000000000000000000000000000000000000000000000000602082015250565b6000613bde602883612583565b9150613be982613b82565b604082019050919050565b60006020820190508181036000830152613c0d81613bd1565b9050919050565b6000613c1f826123f0565b9150613c2a836123f0565b9250817fffffffffffffffffffffffffffffffffffffffffffffffffffffffffffffffff0483118215151615613c6357613c62613059565b5b828202905092915050565b6000613c79826123f0565b91506000821415613c8d57613c8c613059565b5b600182039050919050565b7f537472696e67733a20686578206c656e67746820696e73756666696369656e74600082015250565b6000613cce602083612583565b9150613cd982613c98565b602082019050919050565b60006020820190508181036000830152613cfd81613cc1565b9050919050565b600060a082019050613d196000830188612be7565b613d266020830187612be7565b613d336040830186612466565b613d406060830185612466565b8181036080830152613d528184613948565b9050969550505050505056fea26469706673582212200f03edc59d7a63db1d0b071dfc0e864092f887869fb5f633ae55a4acde4fec7664736f6c634300080a003368747470733a2f2f6261667962656961617a77703465346667756b646c6b666b6d786c3333666a3333706f716f6f66797677777a616b61336573727a647073327972342e697066732e647765622e6c696e6b2f302e6a736f6e",
  "immutableReferences": {},
  "source": "// SPDX-License-Identifier: MIT\npragma solidity ^0.8.10;\n\nimport \"@openzeppelin/contracts/token/ERC1155/ERC1155.sol\";\nimport \"@openzeppelin/contracts/utils/Strings.sol\";\nimport \"@openzeppelin/contracts/utils/math/SafeMath.sol\";\nimport \"@openzeppelin/contracts/access/AccessControl.sol\";\nimport \"@openzeppelin/contracts/access/Ownable.sol\";\n\ncontract Razor is ERC1155, AccessControl, Ownable {\n    using SafeMath for uint256;\n    uint256 public constant RAZOR = 0;\n    uint256 public constant RZR = 1;\n    uint256 private previusBlock = block.number;\n    bytes32 public constant USER_ROLE = keccak256(\"USER_ROLE\");\n    bytes32 public constant GROUP_ROLE = keccak256(\"GROUP_ROLE\");\n\n    mapping (uint256 => string) private _uris;\n\n    constructor() ERC1155(\"https://bafybeiaazwp4e4fgukdlkfkmxl33fj33poqoofyvwwzaka3esrzdps2yr4.ipfs.dweb.link/0.json\") {\n        _mint(msg.sender, RAZOR, 1000, \"\");\n    }\n\n    function supportsInterface(bytes4 interfaceId) public view virtual override(ERC1155, AccessControl) returns (bool) {\n        return super.supportsInterface(interfaceId);\n    }\n\n    function NFTfaucet(address user) public {\n        this.safeTransferFrom(msg.sender, user, RAZOR, 1, \"\");\n\n        if(!this.hasRole(USER_ROLE, user)) {\n            _setupRole(USER_ROLE, user);\n        }\n    }\n\n    function mintRZR(address nftHolder) public {\n        uint256 balance = this.balanceOf(nftHolder, RAZOR);\n        uint256 blockDiff = block.number.sub(previusBlock);\n        previusBlock = block.number;\n        \n        if(balance <= 0 || blockDiff < 3) {\n            return;\n        }\n\n        uint256 rewards = balance.div(1000);\n        _mint(nftHolder, RZR, rewards, \"\");\n\n        if(!this.hasRole(GROUP_ROLE, nftHolder)) {\n            _setupRole(GROUP_ROLE, nftHolder);\n        }\n    }\n}",
  "sourcePath": "/home/spielrs/Proyectos/razornft/contracts/Razor.sol",
  "compiler": {
    "name": "solc",
    "version": "0.8.10+commit.fc410830.Emscripten.clang"
  },
  "schemaVersion": "3.4.3",
  "updatedAt": "2021-12-12T18:18:49.069Z",
  "networkType": "ethereum",
  "devdoc": {
    "kind": "dev",
    "methods": {
      "balanceOf(address,uint256)": {
        "details": "See {IERC1155-balanceOf}. Requirements: - `account` cannot be the zero address."
      },
      "balanceOfBatch(address[],uint256[])": {
        "details": "See {IERC1155-balanceOfBatch}. Requirements: - `accounts` and `ids` must have the same length."
      },
      "getRoleAdmin(bytes32)": {
        "details": "Returns the admin role that controls `role`. See {grantRole} and {revokeRole}. To change a role's admin, use {_setRoleAdmin}."
      },
      "grantRole(bytes32,address)": {
        "details": "Grants `role` to `account`. If `account` had not been already granted `role`, emits a {RoleGranted} event. Requirements: - the caller must have ``role``'s admin role."
      },
      "hasRole(bytes32,address)": {
        "details": "Returns `true` if `account` has been granted `role`."
      },
      "isApprovedForAll(address,address)": {
        "details": "See {IERC1155-isApprovedForAll}."
      },
      "owner()": {
        "details": "Returns the address of the current owner."
      },
      "renounceOwnership()": {
        "details": "Leaves the contract without owner. It will not be possible to call `onlyOwner` functions anymore. Can only be called by the current owner. NOTE: Renouncing ownership will leave the contract without an owner, thereby removing any functionality that is only available to the owner."
      },
      "renounceRole(bytes32,address)": {
        "details": "Revokes `role` from the calling account. Roles are often managed via {grantRole} and {revokeRole}: this function's purpose is to provide a mechanism for accounts to lose their privileges if they are compromised (such as when a trusted device is misplaced). If the calling account had been revoked `role`, emits a {RoleRevoked} event. Requirements: - the caller must be `account`."
      },
      "revokeRole(bytes32,address)": {
        "details": "Revokes `role` from `account`. If `account` had been granted `role`, emits a {RoleRevoked} event. Requirements: - the caller must have ``role``'s admin role."
      },
      "safeBatchTransferFrom(address,address,uint256[],uint256[],bytes)": {
        "details": "See {IERC1155-safeBatchTransferFrom}."
      },
      "safeTransferFrom(address,address,uint256,uint256,bytes)": {
        "details": "See {IERC1155-safeTransferFrom}."
      },
      "setApprovalForAll(address,bool)": {
        "details": "See {IERC1155-setApprovalForAll}."
      },
      "transferOwnership(address)": {
        "details": "Transfers ownership of the contract to a new account (`newOwner`). Can only be called by the current owner."
      },
      "uri(uint256)": {
        "details": "See {IERC1155MetadataURI-uri}. This implementation returns the same URI for *all* token types. It relies on the token type ID substitution mechanism https://eips.ethereum.org/EIPS/eip-1155#metadata[defined in the EIP]. Clients calling this function must replace the `\\{id\\}` substring with the actual token type ID."
      }
    },
    "version": 1
  },
  "userdoc": {
    "kind": "user",
    "methods": {},
    "version": 1
  }
}